:020000040800F2
:10000000683F00200D030008552A000877250008E6
:10001000512A0008811B000837400008000000003A
:100020000000000000000000000000007502000851
:100030009F1B000800000000B9020008393C0008BE
:100040002703000827030008270300089D3600083F
:100050002703000827030008A11B00082703000846
:1000600027030008270300082703000827030008C8
:1000700027030008270300082703000827030008B8
:1000800027030008270300082703000827030008A8
:100090002703000827030008270300082703000898
:1000A0002703000827030008270300082703000888
:1000B0002703000827030008270300082703000878
:1000C0002703000827030008270300082703000868
:1000D00027030008C53C00084D3D0008AD3D000861
:1000E00027030008270300082703000800F002F890
:1000F00000F0B0F80AA090E8000C82448344AAF112
:100100000107DA4501D100F0A5F8AFF2090EBAE80F
:100110000F0013F0010F18BFFB1A43F0010318473B
:1001200050850000708500000A444FF0000C10F864
:10013000013B13F0070408BF10F8014B1D1108BF65
:1001400010F8015B641E05D010F8016B641E01F805
:10015000016BF9D113F0080F1EBF10F8014BAD1C55
:100160000C1B09D16D1E58BF01F801CBFAD505E073
:1001700014F8016B01F8016B6D1EF9D59142D6D3CD
:10018000704700000023002400250026103A28BFF5
:1001900078C1FBD8520728BF30C148BF0B607047F9
:1001A0006E2900F0AD83702900F01F85662907F0E5
:1001B0003F85652907F03C85672907F03985612966
:1001C000AFF3008003681B0A28BF41F08001692952
:1001D00000F02281642900F01F81752900F01C8144
:1001E0006F2900F0AC84782900F0EB84E92900F055
:1001F0004784E42900F04484F52900F04184EF2984
:1002000000F0A984F82900F0EA840368DB0928BF1C
:1002100041F08001632900F0B683732900F0BB83AD
:10022000E32900F09F87F32900F0A487002070479E
:100230001FB500F0F5FF04000020002107F0E2FCEC
:10024000401C60600020002107F0C6FCE0601FBD7C
:1002500010B510BD00F0B6FF1146FFF7E9FF04F03E
:1002600019FF01F093F803B4FFF7F2FF03BC03F0AA
:1002700018FF0000224B19680868B0E8F00F80F3FF
:100280000988BFF36F8F4FF0000080F311884EF0A4
:100290000D0E70470000000006480068006880F3FB
:1002A000088862B661B6BFF34F8FBFF36F8F00DF70
:1002B00000BF00BF08ED00E0EFF30980BFF36F8FD0
:1002C0000F4B1A6820E9F00F106008B54FF050008E
:1002D00080F31188BFF34F8FBFF36F8F06F0DCFC04
:1002E0004FF0000080F31188BDE8084019680868E5
:1002F000B0E8F00F80F30988BFF36F8F704700BF3D
:1003000050010020EFF30580704700000948804746
:1003100009480047FEE7FEE7FEE7FEE7FEE7FEE7E7
:10032000FEE7FEE7FEE7FEE704480549054A064BFF
:1003300070470000493C0008ED00000868390020C3
:10034000683F0020683B0020683B002070470000A9
:100350001CB50C46064B7B4469460090204600F0D5
:10036000E8FA04460020694600F0F6FA20461CBD73
:10037000FF0500000FB4044910B503AA029800F06D
:100380000FFB10BC5DF814FB340100200FB47CB5EA
:100390000C0009AA009001D02044401E084B7B4469
:1003A00069460190089800F0C4FA05461CB1002087
:1003B000694600F0D1FA28467CBC5DF814FB0000C9
:1003C000C105000070B50C460546012A05D0287805
:1003D000800600D5EA69002302E0012305E05B1CEA
:1003E000934202D2E05C0028F9D1A869E618C01A4D
:1003F000A861286A18442862284600F0EFF904E052
:10040000D5E9012114F8010B9047B442F8D32846EE
:1004100000F0FAF970BD00002DE9F0410646002415
:1004200010687529314616A510D000F0FEF9002895
:1004300002DA404213A507E031688A0701D512A508
:1004400002E0490704D511A5012401E000F0F6F906
:1004500000210A2206F1240709E0B0FBF2FCB0FB00
:10046000F2F302FB1C00303078541846491C002877
:10047000F3D123462A463046BDE8F04100F0E7B903
:10048000000000002D0000002B00000020000000F4
:100490002DE9F05F894604464FF0000ADFF874B199
:1004A000FB44C0F820A02046E1688847002874D0AB
:1004B000252806D0D4E901219047206A401C2062FB
:1004C000F1E700265F462046E16888472028054678
:1004D00007DB312D05D2781910F8200C08B106433E
:1004E000F1E7B00701D526F00406C4F81CA00027E8
:1004F000C4F818A02A2D09D0284603F0CBFD38B344
:1005000004EB8708303DC8F8185019E059F8041B6F
:10051000204604EB87029161E1688847012F054678
:1005200018D1E069002820DA26F020061DE0D8F86E
:10053000180000EB800005EB40003038C8F81800C8
:100540002046E1688847054603F0A4FD0028EED167
:10055000012F0AD02E2D08D12046E16888477F1C44
:100560000546022F46F02006C4DBA069002803DA06
:10057000404246F00106A061F00701D026F01006C7
:100580006C2D0BD0682D09D04C2D39D06A2D35D06B
:10059000742D35D07A2D33D016E038E0E1682F463F
:1005A00020468847B842054609D16C2F26D04FF423
:1005B0008060E168064320468847054604E06C2FCA
:1005C0001AD04FF4807006430DB3A5F141001928ED
:1005D00002D8203546F400664A4629462046266061
:1005E0004E46FFF7DDFD80B101280BD0F61D26F049
:1005F000070000F1080956E74020E4E78020D8E72B
:100600000020D6E706F104094DE7284652E7206AA4
:10061000BDE8F09FF58000000022CBB210F8011B6E
:10062000994200D1421E0029F8D11046704710B5FA
:10063000431C02E010F8011B71B18107FAD14FF0A1
:10064000013202C88C1A8C4314EAC211F9D0C01AC4
:100650000A0603D0C01E10BDC01A10BD0A0401D086
:10066000801E10BD0902FCD0401E10BD032A40F2BE
:10067000308010F0030C00F0158011F8013BBCF144
:10068000020F624498BF11F801CB00F8013B38BF5C
:1006900011F8013BA2F1040298BF00F801CB38BF6A
:1006A00000F8013B11F0030300F0AA82083AC0F001
:1006B000088051F8043B083A51F804CBA0E8081030
:1006C000F5E7121D5CBF51F8043B40F8043BAFF363
:1006D0000080D20724BF11F8013B11F801CB48BFBD
:1006E00011F8012B24BF00F8013B00F801CB48BFF3
:1006F00000F8012B704702F0FF0343EA032242EAAD
:10070000024200F0B1BA4FF0000200B51346944621
:100710009646203922BFA0E80C50A0E80C50B1F159
:100720002001BFF4F7AF090728BFA0E80C5048BF6D
:100730000CC05DF804EB890028BF40F8042B08BF0B
:10074000704748BF20F8022B11F0804F18BF00F807
:10075000012B70474FF0013C50F8042B51F8043B3B
:100760009A4221D1A2EB0C03934313EACC1317D185
:1007700050F8042B51F8043B9A4215D1A2EB0C031C
:10078000934313EACC130BD150F8042B51F8043BDC
:100790009A4209D1A2EB0C03934313EACC13DBD0AA
:1007A0004FF00000704700BFD01A01BAB1FA81F1D2
:1007B00001F0180122FA01F0CB40C1F12001DBB2B7
:1007C000C0B2C01A2CFA01F3D11A914311EAC31135
:1007D000E6D17047704770477047704770B5044660
:1007E00085690068C10601D5302600E02026C007D3
:1007F00007D070BDD4E9012130469047206A401CE3
:1008000020626D1EF6D570BD70B50446856900780E
:10081000C00707D170BDD4E9012120209047206A8C
:10082000401C20626D1EF6D570BD09684A0501D5D1
:1008300040B27047C905FCD500B2704709684A0547
:1008400001D5C0B27047C905FCD580B270472DE90B
:10085000F0470D4699469246044600F12408016887
:10086000880604D5E06921F01001216000E0012034
:10087000A84201DD471B00E00027A1697A1902EBBD
:100880000900081AA0612078C00602D42046FFF7AC
:10089000A5FF002608E0D4E901211AF806009047D8
:1008A000206A401C761C20624E45F4DB2078C0068E
:1008B0000AD52046FFF792FF06E0D4E90121302057
:1008C0009047206A401C2062381EA7F10107F4DC23
:1008D00007E0D4E9012118F805009047206A401C80
:1008E0002062281EA5F10105F3DC2046FFF78CFFEE
:1008F0002078000602D50220BDE8F0870120FBE742
:1009000011680268006A530501D508700AE0D30532
:1009100001D5088006E0130603D5C217C1E900021D
:1009200000E008600120704701694A1C02610878F4
:10093000704700B58FB0CDE901310021059105491F
:100940007944CDE9031011466846FFF7A1FD0FB0C9
:1009500000BD0000E5FFFFFF0A6802F8010B0A6016
:100960007047D1E900239A4202D2531C0B601070E9
:10097000704710B5436913B1AFF3008001E0FFF792
:1009800021FD012010BD127800F124010A7000221F
:100990004A700122EDE711684FF0FF32E9E70000ED
:1009A000074B70B50D467B44FFF7C3FF044628464E
:1009B00000F0E4FB10B14FF0FF3070BD204670BD79
:1009C000173E00002DE9FF5F15468A460446DFF812
:1009D000AC80F8440027D8E900103E46CDE900106D
:1009E00010E03AF816106A4602A800F0CBFB411C52
:1009F00007D02178890603D5E269391891420DD8CC
:100A00000744761C2078800602D5E069B84205DDEF
:100A1000AE42E6DB3AF816000028E2D1A069C01B1E
:100A2000A0612046FFF7DAFED8E90010CDE90010FA
:100A3000002017E03AF818106A4602A800F0A2FB5E
:100A4000B0F1FF3F81460BD000250DF1080B05E00A
:100A5000D4E901211BF8050090476D1C4D45F7D3E3
:100A600008F10100B0428046E4DB206A384420628D
:100A70002046FFF7C9FEBDE8FF9F0000D67B0000BF
:100A80002DE9F0418046D21D22F007020025D2E96F
:100A90000002F52915A614D0011E72F1000106DA34
:100AA0000023D0EB030063EB020211A608E0D8F8A4
:100AB00000108B0701D50FA602E0490701D50EA64D
:100AC00001251146002408F1240704E000F0ECF8A9
:100AD00030323A55641C50EA0102F7D12B463246B7
:100AE00021464046BDE8F041FFF7B1BE00000000DE
:100AF0002D0000002B0000002000000030B4002179
:100B000000F1240408E002F00705D208303542EA7B
:100B10004372DB086554491C52EA0305F3D10468AB
:100B2000002310A2250707D5A40600D421B1C4696B
:100B300001230DA2641EC46130BCFFF788BE10B54E
:100B4000044621461068FFF779FE02462046BDE8BC
:100B500010400023D2E7D21D22F00701D1E9002383
:100B6000CCE700000000000030000000F0B40D46AB
:100B70000188090502D5214C7C4402E01F4C7C44CD
:100B80000E34002100F1240608E002F00F071209DC
:100B9000E75D42EA03721B097754491C52EA0307D6
:100BA000F3D102780023120704D5702D06D009B1C5
:100BB000022311342246F0BCFFF749BE0123103452
:100BC000F8E770B504460D4621461068FFF736FE7B
:100BD000024629462046BDE870400023C6E7D21DE4
:100BE00022F00703D3E90023C0E70368126843F04B
:100BF000200303600823C3610023B7E7387A0000AD
:100C000010B5203AC0F00B80B1E81850203AA0E8A7
:100C10001850B1E81850A0E81850BFF4F5AF5FEADB
:100C2000027C24BFB1E81850A0E8185044BF18C98E
:100C300018C0BDE810405FEA827C24BF51F8043B35
:100C400040F8043B08BF7047D20728BF31F8023B89
:100C500048BF11F8012B28BF20F8023B48BF00F81D
:100C6000012B70474FF000020429C0F0128010F0F1
:100C7000030C3FF44AADCCF1040CBCF1020F18BFD9
:100C800000F8012BA8BF20F8022BA1EB0C01FFF705
:100C90003CBD5FEAC17C24BF00F8012B00F8012BAA
:100CA00048BF00F8012B704730B5B0F10A024FEA97
:100CB000900E71F100034EEA817EB0EB0E0061EB05
:100CC00091014FEA101E4EEA017E10EB0E0041EB3F
:100CD00011114FEA102E4EEA016E10EB0E0041EB9F
:100CE00011214FEA104E4EEA014E10EB0E0041EB7F
:100CF0001141401841F100014FEAD00040EA417033
:100D00004FEAD10110EB80054FEA810444EA907468
:100D100044EB01046D1944EB0404521BA3414FF052
:100D2000000348BF0A3200D530BD401C41F100012C
:100D300030BD70472DE9FF4F0C461E464FF0FF3780
:100D40008BB0D2E90001DDF860800A908A46C1F3D9
:100D50000A5505B93D46002108464FF00000BAF19A
:100D6000000F00F4400005DA00EB80004FF4400172
:100D700001EA50004FEA9059B9F1010F00DDB94680
:100D80000A9850EA4A000ED044F61050A5F2FF35FA
:100D900045432F14B8F1000F1ED07542291E1EDDE9
:100DA000C9F100021CE0B8F1010F4FF0000001D0C2
:100DB000302103E0F24305E02154401CB042FBDB4C
:100DC00030460022002121540B99C1F80880C1E966
:100DD00000200FB0BDE8F08FBD1B6D1CDEE74A465A
:100DE00000DA694206A800F05FFA06AB93E8070054
:100DF00003AB83E8070050460A9900F0D5FA8DE866
:100E00000700A0F500501F3800900398002D0ADD60
:100E100042F21F014A460844002303A90390684692
:100E200000F03EFD09E0A0F500504A461F380023BF
:100E300003A90390684600F048FD8DE80700000410
:100E4000000C03D04FF0FF30410800E01046B8F12D
:100E5000000F03D00022009215461EE0751E05D437
:100E6000FFF722FF303262556D1EF9D5B3460122DD
:100E7000084302D000227F1C04E02078302801D1F2
:100E800000227F1E002A099784D01DE0112D07DA69
:100E9000FFF70AFF303262556D1C50EA0102F5D1AE
:100EA000084302D00098C8B10EE00021681E05E09A
:100EB000235C625C63542254401E491C8142F7DB70
:100EC000AB46A81B401E0990002004F80B000B98AD
:100ED000099AC0F80880C0E9002B7AE711264FF084
:100EE000000857E72DE9F04F88460446D21D22F04E
:100EF000070191B0D1E90001CDE90A0103F0B6F88C
:100F000002460B98C00F01D02D2007E02068810712
:100F100001D52B2002E0202101EAC000032A09901C
:100F200001D0072A05DB03464146204600F07CF944
:100F30000BE12078800601D5E06900E00620B8F1D9
:100F4000650F814606D0B8F1660F18D0B8F1670F6B
:100F500070D131E00020B9F1110F009001DB1123B5
:100F600001E009F101030AAA01A90CA8FFF7E2FEBA
:100F7000DDE90C70002609F10105834647E00120F8
:100F80004B4600904FF000470AAA01A90CA8FFF7B2
:100F9000D1FEDDE90DB00C995D46002610B909F1CE
:100FA00001000D18B9EB050003D4C0F1FF3609F1BB
:100FB0000105A5EB09002BE0B9F1010F01DA4FF0B3
:100FC00001090020B9F1110F0090484601DD1123FD
:100FD00000E003460AAA01A90CA8FFF7ABFEDDE971
:100FE0000C704D4600268346207800070AD4AB4596
:100FF00000DA5D4601A8012D04DD411911F8011C3C
:10100000302907D04F4502DA17F1040F04DA012026
:1010100082460FE06D1EEEE7002F02DCED1B3E4422
:1010200003E0781CA84200DD7D1CB81B00F1010A1A
:101030004FF000472078000703D4AA4501DB4FF0AA
:10104000FF3A0021B7F1004F0DF143088DF843102E
:1010500024D002202B23002F01DA7F422D230A21E6
:10106000021EA0F1010000DC5FB197FBF1FC97FBD1
:10107000F1F201FB1C7C17460CF1300C08F801CD95
:10108000EEE7A8F1010003702188090501D545218B
:1010900000E06521A0F1010800F8011C09980FA9E2
:1010A000A1EB0807FF1D00B10120411901EBEA7017
:1010B000A1693844081A401EA0612078C00602D4F5
:1010C0002046FFF78BFB099828B1D4E9012190470E
:1010D000206A401C20622078C00622D52046FFF7F7
:1010E0007DFB1EE0002E04DBB34502DD01A8805D20
:1010F00000E03020D4E901219047206A401C2062A2
:10110000761CAAF101005FEA000A0AD100F088F813
:10111000C0680168405CD4E901219047206A401C06
:101120002062281EA5F10105DCDC07E0D4E90121DD
:1011300018F8010B9047206A401C2062381EA7F166
:101140000107F3DC2046FFF75FFB032011B041E607
:1011500010B5436913B1AFF3008001E0FFF732FC33
:10116000012010BD128800F1240182840022C28473
:101170000122EDE711684FF0FF32E9E7007B00F054
:101180008000704770B516460C46054600F040F8E2
:10119000036893F80101012806D0FF2C0FD8185DD1
:1011A00068B101202C7070BDD3F80701324621468A
:1011B00003F2071303442846BDE8704018474FF078
:1011C000FF3070BD754600F0EBF8AE46050069468D
:1011D000534620F00700854618B020B5FFF7A4F865
:1011E000BDE820404FF000064FF000074FF0000828
:1011F0004FF0000B21F00701AC46ACE8C009ACE8A9
:10120000C009ACE8C009ACE8C0098D4670470000D1
:1012100010B500F005F8001D10BD00BFE969000021
:1012200000487047283900202DE9F0411F46044648
:1012300003260168072A01F4006004DB08B116A543
:1012400005E016A503E008B115A500E015A521F0FD
:1012500010002060A069C01EA0610FB1401EA061F7
:101260002046FFF7BBFA4FB1D4E901213846904739
:10127000206A401C2062C01C206206E0206AFAE757
:10128000D4E9012115F8010B9047761EF8D22046CB
:10129000FFF7BAFABDE8F0814E414E006E616E0074
:1012A000494E4600696E66002DE9F04781461646B4
:1012B0008AB0354878440DC88DE80D00324878442E
:1012C000801C03AC0DC884E80D0041F69B30084437
:1012D000372190FBF1F290FBF1F5A5F1800501FBC0
:1012E00012041B3C02D56442012000E00020DFF81C
:1012F00098A080460027FA44AAF1BE0A0EE0E00753
:101300000AD03246684607EB470101230AEB810108
:1013100000F0DBFA8DE8070064107F1C002CEED192
:10132000194F7F44AE3F19E0E80715D007EB0410D2
:101330000DF1180A90E80E008AE80E00C068F0422D
:1013400001D1981908903246012306A903A800F09C
:10135000BCFA03AB83E807006D10641C002DE3D1D9
:101360004FF0010332466946B8F1000F03A802D0DE
:1013700000F096FA01E000F0A8FAC9E90001C9F806
:1013800008200AB0BDE8F087A073000010B504463D
:10139000AFF300802046BDE81040FEF764BF0000B8
:1013A00000487047083900205FEA400C08BF91F000
:1013B000000F4FEA8C234FEAC12243EA51514FEA12
:1013C0001C5018BF00F5F0404FEA300018BF41F044
:1013D00000415FEA6C5C00F02980BCF1FF3F08BF70
:1013E00040F080407047130C06BF12044FF0100C01
:1013F0004FF0000C130E04BF12020CF1080C130F77
:1014000004BF12010CF1040C930F04BF92000CF105
:10141000020CD30F04BF52000CF1010C11464FF027
:101420000002A0F11F00A0EB0C00704711F0004F6C
:1014300008BF704731F000413FF4D5AF0B0C06BF39
:1014400009044FF0100C4FF0000C0B0E04BF090202
:101450000CF1080C0B0F04BF09010CF1040C8B0FED
:1014600004BF89000CF1020CCB0F04BF49000CF142
:10147000010CCCF12003A0EB0C0022FA03F302FADA
:101480000CF241EA030100F10100704720F07F4CAB
:1014900080EA030023F07F47ACEB070303F57C539E
:1014A00000F0004003F1FF032DE980494FEA154B9E
:1014B00009B44FEA144325EA0B4E24EA03480FF21D
:1014C000042606EB132749083E785FEA320203FB45
:1014D0000667C7F5000707FB06F64FEA54374FEAE1
:1014E000D64606F1020607FB066CCCF1005C4FEA1B
:1014F0001C472CEA074C07FB06F40CFB06F504EB33
:1015000015464FEA961634BF00204FF000404FEAD0
:10151000D13706FB07FC4FEA1C4C0CFB0BF7D21B28
:1015200003FB0CF761EB07010CFB0EF7B0EB074078
:1015300072EB17420CFB08F734BFA2EB0742B2EB89
:10154000074261EB17414FEA0C444FEA910706FB53
:1015500007FC4FEA1C4C0CFB0BF7B0EBC74072EBDF
:10156000573203FB0CF734BFA2EBC742B2EBC742C2
:1015700061EB57310CFB0EF7B0EBC70072EB577203
:101580000CFB08F734BFA2EBC702B2EBC70261EB5A
:101590005771039F4FEA816141EA921104EBCC0439
:1015A0004FEAD1374FEA826206FB07FC42EA90120B
:1015B0004FEA80604FEA1C4C0CFB0BF7D21B03FB7D
:1015C0000CF761EB07010CFB0EF7B0EB074072EB79
:1015D00017420CFB08F734BFA2EB0742B2EB0742FD
:1015E00061EB17414FEA8C554FEA910704EB9C24BD
:1015F00006FB07FC4FEA1C4C0CFB0BF7B0EBC7409B
:1016000072EB573203FB0CF734BFA2EBC742B2EBCD
:10161000C74261EB57310CFB0EF7B0EBC70072EB22
:1016200057720CFB08F734BFA2EBC702B2EBC7023C
:1016300061EB577115EB4C254FEA816141EA92113C
:101640004FEA82624FEAD13742EA901206FB07FC6A
:1016500044F100044FEA80604FEA1C4C0CFB0BF78E
:10166000D21B03FB0CF761EB07010CFB0EF7B0EB91
:10167000074072EB17420CFB08F734BFA2EB07429E
:10168000B2EB074261EB174115EB1C154FEA8131B4
:1016900041EA92414FEA823242EA90424FEA803078
:1016A0004FEA0C7644F1000448EA03434EEA0B4843
:1016B0004FF0000EB2EB080C71EB030724BF62463B
:1016C00039464EEB0E0E4FF0000B001852414941C7
:1016D0004BEB0B0BB2EB080C71EB03077BF1000B30
:1016E00024BF624639464EEB0E0E4FF0000B001839
:1016F000524149414BEB0B0BB2EB080C71EB03076A
:101700007BF1000B24BF624639464EEB0E0E51EAC8
:10171000020718BF46F0010616EB0E7655F10002DF
:1017200054F1000103D5BDE88901BDE80088BDE89A
:101730008901BDE80048B619524141EB0101A3F10E
:101740000103704780807F7E7D7C7B7A7978777615
:1017500076757473727171706F6E6E6D6C6C6B6A8E
:101760006A6968686766666564646363626161602C
:10177000605F5F5E5E5D5D5C5C5B5B5A5A595958A9
:101780005857575656555555545453535252525113
:10179000515050504F4F4F4E4E4D4D4D4C4C4C4B69
:1017A0004B4B4A4A4A4949494848484747474746B0
:1017B00046464545454444444443434343424242EC
:1017C00042414141002B9C4630D477002BD01CB5C0
:1017D0004FEA370703B44FF010004FF01001BAF191
:1017E000000F06D0BCF1000FDCBF40F0080040F055
:1017F00008014FF000000FBCBDE810400BF1010BD9
:10180000BBF1010F08BF5FEA170722BF12F1010207
:1018100011F101014FF0004143F1000300F00040DD
:1018200043EA00007047F9D35708D0E746EA064676
:1018300013F1400F4FEA16461FDD13F1200FDFBFF3
:1018400016430A46002120335B42BED0C3F1200775
:1018500046EA064602FA07F74FEA164646EA070640
:10186000C3F1200722FA03F201FA07F721FA03F184
:101870004FF0000342EA0702A7E746EA020646EAFB
:1018800006464FEA164646EA0106BCBF46EA064649
:10189000360C4FF000034FF000024FF0000194E7C8
:1018A0002DE9804C9A46934670B491E8380007C8F9
:1018B00031EA400C48BF34EA430C03D5FFF7E6FD9C
:1018C000FFF780FFF0BCBDE8008C2DE9804C9A4604
:1018D000934670B491E8380007C810F0804F08BFF5
:1018E00013F0804F03D100F005F8FFF76BFFF0BC59
:1018F000BDE8008C20F07F4780EA030023F07F4C96
:1019000007EB0C03A3F57C5300F00040A3F1FE03AA
:1019100092F0000F00F0B38095F0000F00F0778098
:101920002DE901494FEA11404FEA144621EA0048E7
:1019300000FB06FC24EA064708FB06F607FB08F84E
:1019400000FB07F718EB06484CEB164C4FEA124B1E
:1019500018EB07484FEA15464CEB174022EA0B4EAE
:101960000BFB06FC25EA06470EFB06F607FB0EFE00
:101970000BFB07F71EEB064E4CEB164C4FF0000628
:101980001EEB074E4CEB174B18EB0B0840F1000019
:1019900018EB0E0B58EB000840F100008F1A4FF0C7
:1019A00000013CBFC943661B14BFB5EB040C00210A
:1019B0003CBFC943F61B4FEA17444EEA8E0E27EA96
:1019C00004454FEA1C4704FB07622CEA074C05FB61
:1019D00007F70CFB05F604FB0CFC16EB074642EB85
:1019E000174216EB0C4642EB1C421BEB060658EB6B
:1019F0000202414146EA9E0601D5BDE80189B619B9
:101A0000524141EB0101A3F10103BDE801894FEA15
:101A100014454FEA114724EA054621EA074C05FB25
:101A200007F406FB07F70CFB06F105FB0CFC11EBBA
:101A3000074144EB17444FEA124711EB0C4144EBCA
:101A40001C4422EA074C05FB07F206FB07F70CFBD8
:101A500006F605FB0CFC16EB074642EB174216EBAD
:101A60000C4642EB1C456A1854F1000148BF704710
:101A7000B619524141EB0101A3F10103704795F002
:101A8000000F37D04FEA11424FEA144721EA0246CD
:101A900024EA074C02FB07F106FB07F70CFB06F4F0
:101AA00002FB0CFC14EB074441EB17414FEA1547CE
:101AB00014EB0C4441EB1C4125EA074C02FB07F5F3
:101AC00006FB07F70CFB06F602FB0CFC16EB0746C1
:101AD00045EB174516EB0C4645EB1C42121951F12C
:101AE000000148BF7047B619524141EB0101A3F113
:101AF000010370474FEA14454FEA114724EA0546AF
:101B000021EA074C05FB07F106FB07F70CFB06F281
:101B10004FF0000605FB0CFC12EB074241EB1741AE
:101B200012EB0C4251EB1C4148BF7047921841EB3D
:101B30000101A3F10103704710B5012001F004FC7D
:101B4000002001F001FC10BD08B501460020009006
:101B5000034800900098084400900098008808BD51
:101B6000006C004008B500220092044A0092009ADE
:101B700002440092009A116008BD0000006C004011
:101B800000BFFEE770B505460C46284601F0BAFED8
:101B9000064626EA0401284602F050FA70BD704756
:101BA00010B5012000F014F840B10548007840F06D
:101BB000800003490870012000F004F810BD000007
:101BC0002E00002001490860704700001404014005
:101BD000014600200022074B1B6803EA0102054B67
:101BE00014331B680B4013B10AB1012000E0002040
:101BF0007047000000040140002123498279002A37
:101C00003AD00A46126803689A430B461A600A1DC6
:101C1000126803689A430B1D1A60027911440A681E
:101C200003681A430A60184A0832126803689A4324
:101C3000154B08331A601A1D126803689A43124B39
:101C40000C331A604279102A0ED11A1F12680368E9
:101C50001A430D4B08331A601A1D126803681A43A1
:101C6000094B0C331A600DE00749427911440A68A8
:101C700003681A430A6005E0027911440A680368A0
:101C80009A430A60704700000004014030B50446E2
:101C900004254FF4302000F06FF80546042D17D1CD
:101CA0000C48006940F002000A4908610846446196
:101CB000006940F0400008614FF4302000F05CF80B
:101CC00005460448006941F6FD7108400149086174
:101CD000284630BD0020024004200B49C96801F0AD
:101CE000010109B101200EE00749C96801F00401B2
:101CF00009B1022007E00449C96801F0100109B1E7
:101D0000032000E0042070470020024003480069DF
:101D100040F0800001490861704700000020024047
:101D200070B504460D460426F00200F025F806467C
:101D3000042E11D10948006940F0010007490861EB
:101D40002580F00200F018F806460448006941F6C4
:101D5000FE71084001490861304670BD0020024014
:101D600002480349486003484860704723016745BB
:101D700000200240AB89EFCD00B502460423FFF7F7
:101D8000ABFF034603E0FFF7A7FF0346521E012BFC
:101D900001D1002AF7D102B90523184600BD000081
:101DA00070B504465C2112A0FEF736FC28B15C2118
:101DB0000FA0FEF731FC401C00E00DA0054614A367
:101DC0001D4AED2103F022F94FF4FA611B4800F09F
:101DD00037F8052002F0E2FA42F21071204600F0D6
:101DE00055F84FF4FA7002F0D9FA00F0B9FA70BD64
:101DF0002E2E5C48415244574152455C66706D330B
:101E00003833635C46504D333833432E6300000053
:101E10003E3E3EC7EBBDABD0E8D2AAD7A2B2E1B5F9
:101E2000C4CAD6D6B8B0B4D1B9D6B8CEC6C4A3BF8A
:101E3000E934B4CE3C3C3C00E5840008440000207A
:101E400070B504460D462146102000F06DFA02E000
:101E5000012002F0A3FA0B4800780C2802DA681E71
:101E6000051EF5D108488079072802D10648407A36
:101E700000E0FF200646FF2214210348FEF73BFC4A
:101E8000304670BD280000201702002070B50446BF
:101E90000D46201230498872CC720846807A543040
:101EA000C97A084400122C49C8730846807A543015
:101EB000C97A084428490874112000F035FA02E074
:101EC000012002F06BFA254800780C2803DA681E1E
:101ED00080B2051EF4D12248407A002818D15C2136
:101EE00020A0FEF799FB28B15C211EA0FEF794FB11
:101EF000401C00E01BA0064622A3274A40F207111F
:101F000003F084F84FF4FA612448FFF799FF70BD9D
:101F1000002D19D122490C2000F006FA5C2111A0F5
:101F2000FEF77AFB28B15C210EA0FEF775FB401C82
:101F300000E00CA006461BA3174A4FF4877103F07C
:101F400065F8322002F02AFA4FF4FA611948FFF7D7
:101F500077FF00BFDBE7000098000020280000208A
:101F6000170200202E2E5C48415244574152455CD6
:101F700066706D333833635C46504D333833432ECF
:101F8000630000003E3E3ED6B8CEC6D7A2B2E1B353
:101F9000C9B9A63C3C3C0000F18400086400002064
:101FA0008C0000203E3E3EB3ACCAB1CAA7B0DC3CB8
:101FB0003C3C0000540000201FB50121084601F000
:101FC000B3F90121042001F0AFF90120ADF80000C0
:101FD00028208DF803006946114800F0E9F9002136
:101FE000084600F0C5F90120029000208DF80C0091
:101FF00008208DF80D0001208DF80E0002A8FFF7D3
:10200000FBFD06208DF8040002208DF805008DF8F8
:10201000060001208DF8070001A800F03FFD1FBD5C
:102020000008014070B504460F490D2000F07CF90E
:1020300002E0012002F0B2F90C4800780C2802DA24
:10204000601E041EF5D10A488079072802D108488D
:10205000407A00E0FF200546FF2214210448FEF7E5
:102060004AFB284670BD0000B50000202800002073
:102070001702002070B504460F490C2000F054F9F7
:1020800002E0012002F08AF90C4800780C2802DAFC
:10209000601E041EF5D10A488079072802D108483D
:1020A000407A00E0FF200546FF2214210448FEF795
:1020B00022FB284670BD0000A90000202800002057
:1020C0001702002038B54FF4FA60FFF7D3FF00285D
:1020D00030D14FF4FA60FFF7A5FF00282AD14FF462
:1020E000FA6000F001F9002824D11F48C07A1E4987
:1020F000897A00EB01201D4908805C211CA0FEF7B5
:102100008BFA28B15C211AA0FEF786FA401C00E089
:1021100017A00446154800881DA3224AE12100901B
:10212000204602F073FF4FF4FA611F48FFF788FE64
:10213000002038BD5C210EA0FEF76EFA28B15C21AC
:102140000BA0FEF769FA401C00E009A0044617A3A3
:10215000144AE72102F05AFF4FF4FA611748FFF7DB
:102160006FFE4FF0FF30E4E7170200202C00002044
:102170002E2E5C48415244574152455C66706D3387
:102180003833635C46504D333833432E63000000D0
:10219000C9A8C3E8B3C9B9A620D6B8CEC64944A3D6
:1021A000BA256400D484000864000020CEB4CBD1EA
:1021B000CBF7B5BDD6B8CEC6000000005400002055
:1021C00010B500F048FC01F003FE00F0C9F8FFF77D
:1021D000F3FE5C2109A0FEF71FFA28B15C2107A0DD
:1021E000FEF71AFA401C00E004A004460BA3134AB1
:1021F00040F2B71102F00AFF10BD00002E2E5C481D
:10220000415244574152455C66706D333833635CCC
:1022100046504D333833432E63000000A1AAA1AAD3
:10222000A1AAD6B8CEC6B3F5CABCBBAFB3C9B9A6CE
:10223000A1AAA1AAA1AAA1AA0000000000850008E5
:1022400070B54FF0FF3416480078802826D15C2105
:1022500014A0FEF7E1F928B15C2112A0FEF7DCF929
:10226000401C00E00FA0054616A31D4A4FF4E37181
:1022700002F0CCFE4FF4FA611A48FFF7E1FD0520A9
:1022800002F08CF8FFF71EFF04464FF4FA7002F0DC
:1022900085F800F065F8002001490870204670BDFF
:1022A0002E0000202E2E5C48415244574152455C7E
:1022B00066706D333833635C46504D333833432E8C
:1022C00063000000A1A1A1A1A1A13E3E3ED6B8CECF
:1022D000C6D1E9D6A43C3C3CA1A1A1A1A1A100008A
:1022E0000D8500084400002010B504460B4911205C
:1022F00000F01AF802E0012002F050F808480078D7
:10230000102802DA601E041EF5D1064880790728DD
:1023100002D10448407A10BDFF20FCE7CF00002026
:10232000280000201702002070B505460E46002444
:1023300000BF0BE0315D084801F079FE00BF80214D
:10234000054801F0A6FD0028F9D0641CAC42F1DB81
:1023500000200249087070BD0044004028000020A1
:1023600010B502490C20FFF7DFFF10BD74000020FC
:1023700030B500228B071C0F0F2303FA04F20B4B1E
:102380008C1053F824309343084C8D1044F82530BA
:1023900023468C1053F824308C07240F00FA04F4E1
:1023A0002343024C8D1044F8253030BD0800014015
:1023B0002DE9F041024600250026002000230024DC
:1023C000002791F803C00CF00F0591F803C00CF042
:1023D000100CBCF1000F03D091F802C04CEA0505C7
:1023E00091F800C0BCF1000F31D0146800202BE040
:1023F0004FF0010C0CFA00F3B1F800C00CEA030630
:102400009E4220D183004FF00F0C0CFA03F7BC431F
:1024100005FA03FC4CEA040491F803C0BCF1280F50
:1024200006D14FF0010C0CFA00FCC2F814C00AE00F
:1024300091F803C0BCF1480F05D14FF0010C0CFA24
:1024400000FCC2F810C0401C0828D1D31460B1F8B9
:1024500000C0BCF1FF0F34DD546800202EE000F115
:10246000080C4FF0010808FA0CF3B1F800C00CEAB0
:1024700003069E4221D183004FF00F0C0CFA03F7A4
:10248000BC4305FA03FC4CEA040491F803C0BCF118
:10249000280F05D100F1080C08FA0CF8C2F81480D6
:1024A00091F803C0BCF1480F07D100F1080C4FF0C0
:1024B000010808FA0CF8C2F81080401C0828CED396
:1024C0005460BDE8F0810000F0B50A460023002406
:1024D0000021002500F00046B6F1004F02D11D4E4C
:1024E000F16901E01B4E7168C0F3034583B200F44B
:1024F0004016B6F5401F08D121F07061154E766880
:1025000026F07066134F7E6012E000F48016B6F578
:10251000801F06D1032606FA05F4A14341F070613D
:1025200006E0460D360103FA06F6B14341F070614C
:1025300022B1460D360103FA06F6314300F000469B
:10254000B6F1004F02D1034EF16101E0014E71601E
:10255000F0BD0000000001400246002093680B40DF
:102560000BB1012000E0002070474161704701611C
:102570007047C160704700BFFEE700004CF6CC40DA
:1025800001490860704700000030004010B500F0BD
:1025900013F810BD70B505460C4645F2555000F0D5
:1025A0001FF8284600F010F8204600F013F800F05D
:1025B00003F8FFF7E3FF70BD4AF6AA20014908605F
:1025C000704700000030004001494860704700003B
:1025D0000030004001498860704700000030004032
:1025E0000149086070470000003000400146CA17EA
:1025F00001EB92729210A1EB820292B9642091FBDE
:10260000F0F200FB121050B94FF4C87091FBF0F2D9
:1026100000FB121008B9012070470020FCE70120E0
:10262000FAE70020F8E7000010B5044602F004F9CC
:102630008021C048FFF790FF78B14021BD48FFF7E7
:102640008BFF50B12021BB48FFF786FF28B1102136
:10265000B848FFF781FF002844D10A2001F09EFE10
:102660008021B448FFF778FF48B90120207000BFEF
:102670008021B048FFF770FF0028F9D032E04021F8
:10268000AC48FFF769FF48B90220207000BF402125
:10269000A848FFF761FF0028F9D023E02021A548D2
:1026A000FFF75AFF48B90320207000BF2021A1483E
:1026B000FFF752FF0028F9D014E010219D48FFF7E2
:1026C0004BFF48B90420207000BF10219948FFF744
:1026D00043FF0028F9D005E0FF202070FF21954836
:1026E000FFF747FF02F0BAF880219248FFF734FF66
:1026F00078B140218F48FFF72FFF50B120218D483E
:10270000FFF72AFF28B110218A48FFF725FF00288C
:1027100044D10A2001F042FE80218648FFF71CFFC9
:1027200048B90520207000BF80218248FFF714FFC0
:102730000028F9D032E040217E48FFF70DFF48B96C
:102740000620207000BF40217A48FFF705FF0028CF
:10275000F9D023E020217748FFF7FEFE48B9072093
:10276000207000BF20217348FFF7F6FE0028F9D043
:1027700014E010216F48FFF7EFFE48B908202070E1
:1027800000BF10216B48FFF7E7FE0028F9D005E0F5
:10279000FF202070FF216748FFF7EBFE02F072F880
:1027A00080216448FFF7D8FE70B140216148FFF7EF
:1027B000D3FE48B120215F48FFF7CEFE20B11021A3
:1027C0005C48FFF7C9FEF8B90A2001F0E7FD802157
:1027D0005848FFF7C1FE48B90920207000BF80218A
:1027E0005448FFF7B9FE0028F9D032E040215148A3
:1027F000FFF7B2FE48B90A20207000BF40214D48C3
:10280000FFF7AAFE0028F9D023E020214948FFF76E
:10281000A3FE48B90B20207000BF20214548FFF7D8
:102820009BFE0028F9D014E010214248FFF794FEE7
:1028300048B90C20207000BF10213E48FFF78CFEE5
:102840000028F9D005E0FF202070FF213948FFF76C
:1028500090FE02F02BF880213648FFF77DFE70B124
:1028600040213448FFF778FE48B120213148FFF776
:1028700073FE20B110212F48FFF76EFEF8B90A2031
:1028800001F08CFD80212B48FFF766FE48B90D2032
:10289000207000BF80212748FFF75EFE0028F9D096
:1028A00032E040212348FFF757FE48B90E20207040
:1028B00000BF40211F48FFF74FFE0028F9D023E05A
:1028C00020211C48FFF748FE48B90F20207000BFA8
:1028D00020211848FFF740FE0028F9D014E010210D
:1028E0001448FFF739FE48B91020207000BF1021AE
:1028F0001048FFF731FE0028F9D005E0FF202070D6
:10290000FF210C48FFF735FE94F9000003F052FC5C
:1029100040B2207094F90000401C48B100200649E4
:102920000860322001F03AFD01200449C1F8840119
:1029300010BD000000080140848121420080214236
:1029400008B501210C2000F0EFFC4FF47040ADF809
:10295000000003208DF8020010208DF80300694666
:102960000B48FFF725FD4FF470410948FFF7FFFDC5
:10297000F020ADF8000048208DF8030069460548B6
:10298000FFF716FDF0210348FFF7F1FD08BD000039
:10299000000C01400008014008B50121182000F09A
:1029A000C3FC4FF40050ADF8000010208DF8030078
:1029B00003208DF8020069460E48FFF7F9FC4FF43A
:1029C00000510C48FFF7D3FD0320ADF800001020A4
:1029D0008DF8030003208DF8020069460648FFF7D2
:1029E000E7FC01210448FFF7C0FD02210248FFF780
:1029F000BEFD08BD00100140000C014010B50446AA
:102A0000412C24D108210846FFF7BCF83D211120B4
:102A100001F014FB8621172001F010FB7F212620F6
:102A200001F00CFB1E212D2001F008FB00212C20C1
:102A300001F004FB8D212A2001F000FB3E212B2018
:102A400001F0FCFA022001F0C9FC00F043FA10BDCD
:102A500000BFFEE7704708B54FF4A06000F056F8DD
:102A600028208DF8000001208DF803008DF801006A
:102A700000208DF80200684600F010F826208DF83E
:102A8000000001208DF8030000208DF801008DF872
:102A90000200684600F002F808BD000070B5002191
:102AA00000230F22C47804B3154C246804F4E064B6
:102AB000C4F5E064210AC1F10403CA40447804FA71
:102AC00003F184781440214309010E4C0678A15586
:102AD000047804F01F050124AC4005786D11AD00A9
:102AE00005F1E025C5F8004109E0047804F01F0570
:102AF0000124AC40044D0678761145F8264070BD9F
:102B00000CED00E000E400E080E100E00249014358
:102B1000024A1160704700000000FA050CED00E069
:102B200070B5002418E004F1B000002100F065F950
:102B30000021084600F061F90021102000F05DF945
:102B4000002505E00121002000F057F9681CC5B2FE
:102B5000802DF7DB601CC4B2082CE4DB70BD0000E4
:102B600010B54FF480710948FFF701FD4FF4007173
:102B70000648FFF7FCFC4FF400710448FFF7F5FC32
:102B80004FF480710148FFF7F0FC10BD000C0140CC
:102B900010B54FF480710748FFF7E9FC4FF400715E
:102BA0000448FFF7E2FC4FF400710248FFF7DFFC36
:102BB00010BD0000000C014010B54FF480710448B6
:102BC000FFF7D5FC4FF480710148FFF7CEFC10BD34
:102BD000000C014008B50121092000F0A5FB0121EE
:102BE0004348FFF771FC4FF44070ADF8000010202F
:102BF0008DF8030003208DF8020069463D48FFF779
:102C0000D7FB4FF440713B48FFF7B1FC4FF44870DD
:102C100001F0C4FB0021AE2000F0EFF800210846CF
:102C200000F0EBF80021102000F0E7F80021402030
:102C300000F0E3F80021B02000F0DFF8002181204F
:102C400000F0DBF80021FF2000F0D7F80021A120E0
:102C500000F0D3F80021A62000F0CFF80021A82032
:102C600000F0CBF800213F2000F0C7F80021C82079
:102C700000F0C3F80021D32000F0BFF8002108467F
:102C800000F0BBF80021D52000F0B7F8002180202B
:102C900000F0B3F80021D82000F0AFF800210520A3
:102CA00000F0ABF80021D92000F0A7F80021F120B6
:102CB00000F0A3F80021DA2000F09FF80021122094
:102CC00000F09BF80021DB2000F097F80021302075
:102CD00000F093F800218D2000F08FF800211420DF
:102CE00000F08BF80021AF2000F087F808BD00004D
:102CF00000023000000C014070B504460D4605F19D
:102D0000B000002100F079F8102141EA14100021F0
:102D100000F073F804F00F00002100F06EF870BDB1
:102D20002DE9F04707460E469046994600250024B7
:102D3000A8F12000C5B27F2F02DD0027B01CC6B26B
:102D4000B9F1100F24D131463846FFF7D5FF0024E2
:102D500008E004EB0511194A505C012100F04DF820
:102D6000601CC4B2082CF4DB701CC1B23846FFF7FB
:102D7000C3FF002409E004EB051108310F4A505C41
:102D8000012100F03AF8601CC4B2082CF3DB12E019
:102D900031463846FFF7B0FF00240AE005EB450155
:102DA000074A02EB4101085D012100F026F8601C92
:102DB000C4B2062CF2DBBDE8F0870000D47E000828
:102DC000AC7C00082DE9F04105460E4614461F462E
:102DD0000EE022783B4631462846FFF7A1FF05F179
:102DE0000800C5B2782D02DD0025B01CC6B2641CF7
:102DF00020780028EDD1BDE8F08170B504460D467D
:102E00001DB1E0B200F04AF802E0E0B200F030F8A4
:102E100070BD00002DE9F04105462C464FF480714D
:102E20001248FFF7A2FB00261CE0274607F08007A8
:102E3000802F04D1B9000D48FFF799FB04E04FF44F
:102E400000710A48FFF791FB6006040E4FF4807191
:102E50000648FFF78CFB4FF480710448FFF785FBB1
:102E6000701CC6B2082EE0DBBDE8F081000C01400A
:102E700010B50446FFF774FE7820FFF7CBFFFFF78D
:102E80009BFE0020FFF7C6FFFFF796FE2046FFF7E8
:102E9000C1FFFFF791FEFFF77BFE10BD10B50446A2
:102EA000FFF75EFE7820FFF7B5FFFFF785FE4020B5
:102EB000FFF7B0FFFFF780FE2046FFF7ABFFFFF7FD
:102EC0007BFEFFF765FE10BD0149086270470000F8
:102ED00000000E4210B5142000F014FD044604F06A
:102EE000030018B90321142000F011FE10BDF0B545
:102EF00087B00546002708210846FEF743FE00215B
:102F00000D2001F09BF880210E20FEF73BFE932060
:102F10008DF8080020208DF8090001A802AB0222DC
:102F200002A900900C2000F01BF80646262E10D1B6
:102F3000002407E002A8005D285502A8005D474074
:102F4000601CC4B2042CF5DB02A8005DB84200D0BE
:102F5000BB2680210E2000F0DAFD304607B0F0BD20
:102F60002DE9FE4F0646884691469A46DDF830B078
:102F7000BB2002900020019000900C2E06D00E2E57
:102F800009D1122001901020009005E077200190D7
:102F90003020009000E000BF00BF019840F08001A9
:102FA000022001F04BF880210420FEF7EBFD002108
:102FB000012001F043F880210A2000F0A8FD00253F
:102FC00005E018F80510092001F038F86D1C4D4592
:102FD000F7D33146012001F031F80C2E03D18021C6
:102FE0000D2000F094FD4FF47A7500BF042000F02E
:102FF00089FC04466D1E35B104F0010018B9009833
:1030000020400028F2D080210D20FEF7BBFD95B3B3
:10301000062000F077FC00F01B0068BB2620029021
:103020000198204000F0010008B1CC2002900C2E45
:1030300024D10A2000F066FC04460C2000F062FC5B
:1030400000F007072FB1601E07EBC000CBF80000AF
:1030500002E0E000CBF8000004B90124122C00DDEE
:103060001224002505E0092000F04CFC0AF80500B8
:103070006D1CA542F7D301E0BB20029080210C20FB
:1030800000F045FD0021012000F0D8FF0298BDE8C6
:10309000FE8F70B588B005460C4608210846FEF73D
:1030A00071FD07210D2000F0C9FF0321142000F05D
:1030B0002EFD8DF80C5002A803AB012203A900904D
:1030C0000C20FFF74DFF0646262E09D10298102846
:1030D00006D19DF80C0020709DF80D00607000E096
:1030E000BB26304608B070BD10B508211D48FFF75B
:1030F0003EFA012001F072F908211A48FFF735FA6B
:10310000012001F06BF908211648FFF730FA012081
:1031100001F064F90F21012000F090FF00BF0120B1
:1031200000F0F0FB00F010000028F8D1012001F0C1
:1031300055F93D21112000F081FF1E212D2000F0C6
:103140007DFF00212C2000F079FF8D212A2000F046
:1031500075FF3E212B2000F071FF4021152000F06B
:103160006DFF10BD000C01401FB521495220FFF733
:1031700090FF2049087008460078262805D01C4991
:103180005220FFF786FF1B4908701A48007826284E
:1031900007D1BB20174908701748FFF7A8FE15494B
:1031A000087014480078262821D1BB2011490870E6
:1031B0005C2112A0FDF730FA28B15C210FA0FDF7C9
:1031C0002BFA401C00E00DA004460B48C0780A49C9
:1031D0008978094A5278084B1B78CDE90032CDE94D
:1031E00002100DA3154A4A21204601F00FFF1FBD12
:1031F000F20000202E010020F40000202E2E5C485A
:10320000415244574152455C52433532325C7263FD
:103210003532322E630000006361726420696420DD
:1032200069733D3D3D3D3D20253032782530327873
:1032300025303278253032780D0A000032850008BA
:1032400010B500F00BF808210348FFF790F9802132
:103250000148FFF78CF910BD000C014008B50121B1
:10326000082000F061F88020ADF8000003208DF800
:10327000020010208DF8030069462248FFF798F8F5
:103280000121082000F050F84020ADF80000032094
:103290008DF8020010208DF8030069461948FFF7E9
:1032A00087F80121082000F03FF82020ADF8000049
:1032B00003208DF8020010208DF8030069461148A4
:1032C000FFF776F80121082000F02EF81020ADF865
:1032D000000004208DF8030069460A48FFF768F8EB
:1032E0000121082000F020F80820ADF8000003209C
:1032F0008DF8020010208DF8030069460148FFF7A1
:1033000057F808BD000C014029B1064AD2690243B2
:10331000044BDA6104E0034AD2698243014BDA616B
:10332000704700000010024029B1064A926902432A
:10333000044B9A6104E0034A92698243014B9A610B
:10334000704700000010024001490860704700000B
:103350004004424230B500210022002400232D4DBC
:103360006D6805F00C0121B1042905D0082923D18D
:1033700005E0294D056022E0274D05601FE0254D41
:103380006D6805F47012234D6D6805F480340225D4
:1033900005EB92421CB9214D554305600BE01D4DD4
:1033A0006D6805F400351DB11C4D5543056002E004
:1033B000194D5543056002E0174D056000BF00BF81
:1033C000144D6D6805F0F0010909154D6B5C056839
:1033D000DD4045600F4D6D6805F4E061090A104D50
:1033E0006B5C4568DD4085600A4D6D6805F4605191
:1033F000C90A0B4D6B5C4568DD40C560054D6D68C5
:1034000005F44041890B074D6B5CC568B5FBF3F5CE
:10341000056130BD0010024000127A0000093D0035
:103420003A0100204A01002010B501460022002385
:1034300000204A11012A02D1094C236806E0022A21
:1034400002D1074C236A01E0054C636A01F01F02B8
:10345000012494401C400CB1012000E0002010BD6C
:103460000010024000210B4A11700A4A203A82F8EB
:103470002010012802D0042808D103E00121054AC8
:10348000117004E00521034A117000E000BF00BF85
:10349000704700002010024001490860704700009A
:1034A0003C0442420249096A0143014A11627047E1
:1034B00000100240024909888143014A1180704787
:1034C000042800400348008840F0100001490880AB
:1034D0007047000004280040034800884FF6EF7151
:1034E00008400149088070470428004070B5002654
:1034F0000024002500F07AF806463848B6FBF0F4C0
:1035000037480088A0423CD035490C8040F2B27563
:1035100010E02846FFF76AF840B1B4F5B77F02D350
:10352000A4F5B77404E0681C85B206E0A4F26D143B
:10353000681C85B2B4F5B67FEBD800BF29488580FA
:10354000002516E027498888FFF750F830B1012D93
:1035500004D11D2C01D31D3C09E00CE02248405D44
:10356000A04203D82048405D241A00E003E0681C14
:1035700085B21C2CE6D200BF681C1A498871601CF9
:10358000C8711648B6FBF0F100FB11644FF461609E
:10359000B4FBF0F0134908704FF46160B4FBF0F134
:1035A00000FB11403C21B0FBF1F00E4948704FF494
:1035B0006160B4FBF0F100FB11403C21B0FBF1F283
:1035C00001FB1200074988700B46DA7999799888CF
:1035D00000F028F803490872002070BD80510100F6
:1035E000F00000202C02002026850008002103485E
:1035F0000188001F008841EA004070471C280040F5
:1036000001460020064A12880A40D0B2044A121F1E
:1036100012880A4012B108B1012000E00020704772
:1036200004280040F0B503460C461546642093FB81
:10363000F0F0C6B2642093FBF0F700FB1730C1B284
:10364000132E02DD01F16400C1B20846CF1701EB71
:10365000977701EBA707BAB2072092FBF0F700FBC0
:10366000172082B25719601EDFF82CC01CF800002A
:10367000384482B2CF1701EB9777BF10A1EB8707D1
:103680001FB9032C01DA501E82B2072092FBF0F71B
:1036900000FB1720C0B2F0BD1A85000810B501204C
:1036A000FFF7AEFF08B1FFF721FF0220FFF7A8FFE9
:1036B00010B10220FFF7FEFE0520FFF7FBFE00F031
:1036C00005F910BD29B1064A12880243044B1A803D
:1036D00004E0034A12888243014B1A8070470000BD
:1036E000002800401CB5002401214FF0C050FFF716
:1036F0000BFE0120FFF7E8FB0420FEF725FA45F258
:10370000500188423FD0FEF717FA0120FFF7AAFECA
:1037100004E0601CC4B20A2000F040FE4120FFF724
:1037200083FE0028F5D0FA2C01DB01201CBD4FF4EC
:103730008070FFF7B7FE0120FFF7AEFE00F0C6F87D
:1037400000F0CEF801210846FFF7BCFF00F0BEF8FC
:10375000FFF7B8FE47F6FF7000F0A8F800F0B6F8E3
:10376000372000210A230222CDE900100C2140F26B
:10377000D97000F027F8FFF7AFFE45F250010420A2
:10378000FEF7F0F907E000F0ABF801210846FFF77B
:1037900099FF00F09BF800F004F8FFF7A7FE002067
:1037A000C4E708B503208DF8000000208DF8010063
:1037B0008DF8020001208DF803006846FFF76EF9CE
:1037C00008BD00002DE9F05F06460F469046994679
:1037D000DDE90AAB002440F2B270864203DB40F61A
:1037E0003300864202DD0120BDE8F09F40F2B27551
:1037F0000AE02846FEF7FAFE10B12148044401E031
:1038000020480444681C85B2B542F2DB781EC7B27A
:10381000002510E01C48405D40F2A321484304EB22
:10382000C0143046FEF7E2FE18B1012D01D1174851
:103830000444681C85B2BD42ECDBA8F1010040F2F3
:10384000A321484304EBC014C9EB4910C0EB092085
:1038500004EB0014CAEB0A1004EB80045C44012161
:103860004FF0C050FFF750FD0120FFF72DFB204621
:1038700000F00EF800F02AF8FFF738FE0020B3E75A
:103880000085E2018033E1012685000880510100B6
:1038900000B50246FFF716FE100C03490880091D0B
:1038A0000A80FFF719FE00BD1828004000B5024647
:1038B000FFF708FEC2F3034003490880091D0A8090
:1038C000FFF70AFE00BD00000828004000BF0348C3
:1038D000008800F020000028F9D07047042800403C
:1038E000074800884FF6F77108400549088000BF77
:1038F0000348008800F008000028F9D07047000055
:103900000428004070B504467E2000EA440040F0E0
:10391000800580210748FEF728FE284600F032F88F
:1039200000F00AF8064680210248FEF720FE3046E5
:1039300070BD0000000C014070B500251CE0600661
:10394000040E40210E48FEF710FE142000F046FD44
:1039500010210B48FEF700FE012801D144F00104BC
:10396000142000F03BFD40210548FEF700FE142026
:1039700000F034FD681CC5B2082DE0DB204670BDA8
:10398000000C014070B50446002520E004F08000E2
:1039900020B120210F48FEF7EAFD03E020210D4869
:1039A000FEF7E3FD142000F019FD40210948FEF761
:1039B000DCFD142000F012FD40210648FEF7D7FD83
:1039C000142000F00BFD6006040E681CC5B2082D23
:1039D000DCDB70BD000C014030B503460C461546DB
:1039E000002207E0184600F008F824F812009B1C9B
:1039F000501C82B2AA42F5DB30BD014608887047F0
:103A00002DE9F05F80468A461746B8F1006F02D371
:103A10003348804501D3BDE8F09FFEF7A1F9A8F136
:103A2000006B4FEADB25CBF34909C9F58064A74257
:103A300000DC3C464DE04FF0006101EBC5204A142C
:103A40002849FFF7C9FF00260BE009EB06002549CE
:103A500031F810004FF6FF71884200D003E0701C6F
:103A600086B2A642F1DB00BFA6421BDA4FF000612E
:103A700001EBC520FEF70AF9002608E03AF8160027
:103A800006EB0901174A22F81100701C86B2A64203
:103A9000F4DB4FF0006101EBC5204A14114900F03E
:103AA00023F804E022465146404600F01DF8A742A4
:103AB00000D10FE06D1C4FF000090AEB440AA0444E
:103AC000381B87B2B7F5806F02DD4FF4806400E0E9
:103AD0003C46B0E700BFFEF719F900BF9BE70000C6
:103AE00000000408360200202DE9F04105460E468C
:103AF0001746002407E036F814102846FEF710F9A0
:103B0000AD1C601C84B2BC42F5DBBDE8F08170B531
:103B100005460C462846FFF7F5FE064646EA040130
:103B2000284600F08BFA70BD10B500F001F810BD0A
:103B30000CB50020019000903348006840F48030BC
:103B40003149086000BF3048006800F40030009040
:103B50000198401C0190009818B90198B0F5A06F29
:103B6000F1D12948006800F4003010B10120009024
:103B700001E0002000900098012843D1234800680C
:103B800040F01000214908600846006820F003005A
:103B900008600846006840F0020008601A48406863
:103BA000194948600846406848600846406840F443
:103BB000806048600846406820F47C1048600846F1
:103BC000406840F4E81048600846006840F08070A3
:103BD000086000BF0C48006800F000700028F9D0B1
:103BE0000948406820F003000749486008464068DB
:103BF00040F00200486000BF0348406800F00C003D
:103C00000828F9D10CBD000000100240002002403D
:103C1000042808D14FF0E021096941F004014FF078
:103C2000E022116107E04FF0E021096921F0040171
:103C30004FF0E0221161704710B503F025FD012817
:103C400001D003F0A7F910BD10B51348006840F08B
:103C500001001149086008464068104908400E49B3
:103C60004860084600680E4908400B49086008464D
:103C7000006820F4802008600846406820F4FE00B8
:103C800048604FF41F008860FFF74EFF4FF0006060
:103C90000449086010BD0000001002400000FFF859
:103CA000FFFFF6FE08ED00E000BF0549098801F0BE
:103CB00080018029F9D10249091D08807047000060
:103CC0000048004010B540F225511D4800F0EEF8C4
:103CD00010B31B4800F0A6F9C4B21A48008800F4DB
:103CE0000040C8B91748008800F4804060B10A2C31
:103CF00003D000201349088020E01248008840F4D7
:103D000000401049088019E00D2C06D10D480088AC
:103D100040F480400B49088010E00A480088C0F356
:103D20000D0009490C5407480088401C05490880CB
:103D300008460088C72801DD0020088010BD00006B
:103D40000038014038010020360A002010B540F24A
:103D50002551134800F0AAF8D8B1114800F062F9D3
:103D6000C4B21048007800F0800090B90D48007887
:103D7000142808DA0B4801780078401C094A1070B2
:103D80000948445405E00748007840F080000549A0
:103D9000087040F22551024800F060F810BD0000A4
:103DA00000440040280000201702002010B540F217
:103DB0002551064800F07AF830B1044800F032F995
:103DC000C4B2204602F0C0FA10BD00000048004016
:103DD00000B585B001210420FFF7A6FA01214804AF
:103DE000FFF792FA18208DF813000420ADF81000A8
:103DF00003208DF8120004A91648FEF7D9FA042012
:103E00008DF813000820ADF8100004A91148FEF742
:103E1000CFFA4FF4614000900020ADF80C000C2068
:103E2000ADF80A000020ADF80800ADF80600ADF8C6
:103E300004006946084800F089F8012240F2255143
:103E4000054800F05DF80121034800F016F805B0C0
:103E500000BD0000000801400044004010B50022F1
:103E6000002340F66A14A14200D100BF0A120124C7
:103E70009440A3B2DC43048010BD21B1828942F496
:103E80000052828104E082894DF6FF731A408281DC
:103E9000704702460020B1F5007F00D100BF1388B3
:103EA0000B400BB1012000E00020704770B50246C6
:103EB000002400230025002040F66A16B14200D1FC
:103EC00000BFC1F3421501F01F03012606FA03F3F8
:103ED000012D02D19689334006E0022D02D1168AC7
:103EE000334001E0968A33400C12012606FA04F4AE
:103EF0001688344013B10CB1012000E0002070BDE1
:103F0000F0B50346002400260025002040F66A177D
:103F1000B94200D100BF1846C1F3421401F01F0698
:103F2000012707FA06F5012C01D10C3004E0022C20
:103F300001D1103000E014301AB107682F43076038
:103F400002E00768AF430760F0BD00002DE9F047CD
:103F500086B005460E460024A24600BFA1460027B3
:103F6000B08900B100BF2F462C8A4CF6FF70044088
:103F7000F08804432C82AC894EF6F3100440B088DC
:103F800031890843718908430443AC81AC8A4FF6F8
:103F9000FF400440B0890443AC8201A8FFF7DAF97E
:103FA0001F48874202D1DDF810A001E0DDF80CA027
:103FB000A88900F4004040B10AEBCA0000EB0A10E7
:103FC00031684900B0FBF1F807E00AEBCA0000EBEA
:103FD0000A1031688900B0FBF1F86420B8FBF0F0FA
:103FE00004012009642101FB1089A88900F4004024
:103FF00040B1322000EBC900B0FBF1F000F0070047
:10400000044308E0322000EB09106421B0FBF1F01A
:1040100000F00F0004432C8106B0BDE8F0870000DB
:104020000038014001468888C0F308007047C1F39A
:1040300008028280704700BFFEE7000070B50446AA
:104040000D467E2000EA440680210748FEF78DFADF
:104050003046FFF797FC2846FFF794FC8021024882
:10406000FEF785FA70BD0000000C0140490050EADF
:10407000C12018BF04204A0D18BF40F0010040F2D3
:10408000FF72B2EB515F08BF40F00200012808BF89
:104090000520704730380A2801D2012070470020DF
:1040A000704700BF704710B50446012C04D0022CA5
:1040B00005D0032C09D105E000F026FC06E000F055
:1040C00021FC03E000F080FA00E000BF00BF10BD5B
:1040D000704700002DE9FC5F04464FF0000A7D495F
:1040E000E01C11F800B0BBF10F0F7DD2DFE80BF040
:1040F000080B0E111B1F23ED44ED4791EDEDE10080
:1041000000F0E6FBE2E001F039F9DFE000F08CFBC3
:10411000DCE07049A01D085C6F4908700021032095
:1041200002F0B8FED2E001206C490870CEE0012018
:104130006B490870CAE06749601D095C654A201D2B
:10414000105C41EA0028002713E0A01D3844801CC1
:104150006049085C0502A01D3844C01C085C054489
:104160002144891DC81900F0C5F80646281D3844A9
:1041700087B24745E9DBA9E0FFF7AAFFA6E04FF0C9
:104180000009B9F1000F04D14FF48070554908803F
:104190000EE0B9F1010F04D14FF4007051490880CD
:1041A00006E0B9F1020F03D14FF480604D49088059
:1041B0004849A01D085C4C49086008460068000298
:1041C00008604449E01D085C4749096808434649BE
:1041D000086008460068000208603E4904F10800D3
:1041E000085C4149096800E06FE008433E49086007
:1041F0000846006800020860364904F10900085CBE
:10420000394909680843384908600A203749087065
:104210005CE0364800780A284AD101203449087009
:104220002C49601D095C2B4A201D105C41EA0028C6
:104230001146A01D0D5C2D02E01D085C05432D02FA
:1042400004F10800085C05432D0204F10900085C34
:1042500005438A4604F10A008244B8F1040F0DD1E7
:1042600021480068854209D100222946504601F0C4
:104270002BF8064600201D49087010E0A8F1040044
:1042800018490988884206DC82B22946504601F066
:104290001BF8064603E00020144908700026012E92
:1042A00003D100210B2002F0F5FD00201049087019
:1042B0000CE00849A01D085C0190E01D085C00901E
:1042C000DDE9001002F052FD00E000BF00BFBDE8D4
:1042D000FC9F000014370020D3010020D1010020F2
:1042E000D2010020D6010020D8010020DC010020EE
:1042F000D00100202DE9F0470446267894F801808B
:10430000A0784FF6FF7101EA0025E078284485B2D5
:10431000304600F071FA0746084800EB4700407845
:10432000404502D00020BDE8F0872A46211D3046D6
:1043300000F078F881464846F5E700003F85000820
:1043400010B50420FFF764FC104800681049B0FB6A
:10435000F1F0104908700D4800680D49B0FBF1F408
:104360004FF47A70444301200B4908804FF0E0205D
:10437000006940F002004FF0E02108610846446106
:10438000006940F00100086110BD00001400002029
:1043900040420F00300100203201002070B5044679
:1043A00003F072F9012810D00B480088844206D32C
:1043B00009480088B4FBF0F5284602F073FA064875
:1043C0000088B4FBF0F100FB11444FF47A7104FB58
:1043D00001F000F003F870BD3201002070B5034613
:1043E00000224FF0E02675690D4E367803FB06F487
:1043F0004FF0E026B16910E04FF0E026B069884246
:104400000BD0884202D20E1A324402E02E1A0E4419
:1044100032440146A24200D300E0EDE700BF70BD88
:10442000300100202DE9F04105460E461746322D99
:1044300004D0372D08D0D42D12D10BE039463046A8
:1044400000F080F804460CE03946304600F01CF8D5
:10445000044606E03946304600F007F8044600E01E
:1044600000BF00BF2046BDE8F08170B504460D4690
:104470002A462146D42000F0EDFE0646012E00D14A
:1044800070BD0020FCE700002DE9F04106460F4614
:104490003946304600F01BFF054695B95C211CA04B
:1044A000FCF7BAF828B15C2119A0FCF7B5F8401C5C
:1044B00000E017A080461CA31D4AD32100F0A6FDF2
:1044C0001BE05C2112A0FCF7A7F828B15C2110A02A
:1044D000FCF7A2F8401C00E00DA0804615A3144A8A
:1044E000D52100F093FD012014490860C82002F096
:1044F000D9F900201249C1F880012946372000F07F
:1045000077FE0446012C01D1BDE8F0810020FBE7D5
:104510002E2E5C6D63755F73646B5C70726F746F6D
:10452000636F6C2E630000003D3D3D3132330A0065
:10453000758500083D3D3D3435360A0080812142B5
:10454000008021422DE9F04105460E465C2113A072
:10455000FCF762F828B15C2110A0FCF75DF8401C64
:1045600000E00EA0074613A3144AAC2100F04EFD54
:10457000012013490860C82002F094F90020114975
:10458000C1F8800132462946322000F063FE04461D
:10459000012C01D1BDE8F0810020FBE72E2E5C6DDF
:1045A00063755F73646B5C70726F746F636F6C2E96
:1045B000630000003132333332310000518500088E
:1045C00080812142008021427CB5FF2001904FF480
:1045D000FA745C2132A0FCF71FF828B15C2130A0EE
:1045E000FCF71AF8401C00E02DA005462EA3364A21
:1045F000E52100F00BFD5C2129A0FCF70DF828B1A6
:104600005C2127A0FCF708F8401C00E024A0054628
:104610002EA32D4AE92100F0F9FC29E001A8FEF7BC
:1046200003F89DF804000A2800D17CBD9DF9040020
:10463000401CE0B15C211AA0FBF7EEFF28B15C2121
:1046400017A0FBF7E9FF401C00E015A005469DF907
:10465000040024A31C4AF5210090284600F0D6FC53
:104660009DF9041088B2FDF79BFBFF20019001E04B
:10467000002CD3DC00BF8CB95C2109A0FBF7CCFF78
:1046800028B15C2106A0FBF7C7FF401C00E004A096
:1046900005461AA30C4AFF2100F0B8FC00BFC4E78E
:1046A0006D61696E2E630000A1AAA1AAA1AAA1AAA8
:1046B000D7A2B2E1D6B8CEC6C4A3CABDA1AAA1AA48
:1046C000A1AAA1AA000000006A7C00083E3E3EC7E5
:1046D000EBCFC8CAE4C8EBD6B8CEC649443C3C3C94
:1046E000000000003E3E3ECAE4C8EBB5C4D6B8CEDA
:1046F000C64944A3BA25643C3C3C00003E3E3EB360
:10470000ACCAB1CDCBB3F63C3C3C000010B50024A4
:1047100000BF0BE004EB440000EBC4000749084471
:1047200000210160416001818172641C052CF1DB74
:10473000372202490248FFF74FF910BDE00100207F
:1047400000F0000870B5002400BF0BE004EB44004B
:1047500000EBC40010490844002101604160018160
:104760008172641C052CF1DB37220B490B48FFF7E3
:1047700047F95C210AA0FBF74FFF28B15C2108A094
:10478000FBF74AFF401C00E005A0054606A30B4AC4
:10479000482100F03BFC70BDE001002000F0000863
:1047A0006D61696E2E630000666C617368207265CE
:1047B000736574207375636365737300347C0008DC
:1047C00000BF054A128802F04002002AF9D0C2B2A6
:1047D000014B1B1D1A8070470038014030B502465E
:1047E0000020002305E012F8015B2C18E0B25C1CED
:1047F000A3B28B42F7DB30BD70B5054600F012F86E
:104800000646002407E0064810F81400A84200D12C
:1048100003E0601CC4B2B442F5DB00BF204670BDAB
:104820003F8500080920704710B50024214602206A
:1048300002F030FB10BD0000002006490860012096
:104840000549C1F8B4010349083108600249C1F8BB
:10485000BC017047B08121420080214201200749FC
:10486000086000200649C1F8B4010120034908315D
:1048700008600349C1F8BC0170470000B0812142C3
:10488000008021420120074908600749C1F8B401AE
:10489000002004490831086001200349C1F8BC0127
:1048A00070470000B081214200802142012006496A
:1048B00008600649C1F8B4010349083108600020C6
:1048C0000249C1F8BC017047B081214200802142F9
:1048D00010B500240A48007840B90021204601F0B4
:1048E00017FCC4B201200649087004E001212046EB
:1048F00001F00EFCC4B22146002002F0CBFA10BD3C
:10490000D4010020704700002DE9F04786B0002454
:10491000A246002004900590FF20039000254FF44C
:104920007A765C2179A0FBF777FE28B15C2177A02D
:10493000FBF772FE401C00E074A0074675A37A4A9C
:10494000B42100F063FBC9E003A8FDF76DFE9DF8FC
:104950000C000A2802D106B0BDE8F0879DF90C00D2
:10496000401C002830D09DF80C00303004A9485578
:104970005C2166A0FBF750FE28B15C2163A0FBF729
:104980004BFE401C00E061A0074604A8405D67A301
:10499000654ABF210090384600F038FB6D1C5C2151
:1049A0005AA0FBF739FE28B15C2158A0FBF734FE72
:1049B000401C00E055A007465FA35B4AC12100955B
:1049C00000F024FBFF200390062D7AD100246BE039
:1049D00004EB440101EBC4015A4A8818FBF727FE97
:1049E000002860D104EB440101EBC401554A88184A
:1049F00004AB55A20721FBF7C9FC04EB440101EB12
:104A0000C401504A8818FBF712FE074604A8FBF7BA
:104A10000EFE80465C213DA0FBF7FEFD28B15C2127
:104A20003AA0FBF7F9FD401C00E038A0814647A3FF
:104A30003D4ACB21CDE9008700F0E8FA5C2133A0A4
:104A4000FBF7EAFD28B15C2130A0FBF7E5FD401C37
:104A500000E02EA0074604A842A3334ACC210090D0
:104A6000384600F0D3FA5C2128A0FBF7D5FD28B129
:104A70005C2126A0FBF7D0FD401C00E023A00746E8
:104A800004EB440000EBC4002E49084435A3264A39
:104A9000CD210090384600F0B9FA3722294936482E
:104AA000FEF7AEFF57E7641C052C91DB5C2117A0D5
:104AB000FBF7B2FD30B15C2114A0FBF7ADFD401C4B
:104AC00001E007E011A007462CA3174AD22100F00D
:104AD0009DFA40E70A2001F0E5FE761E002E3FF722
:104AE00033AF8EB95C2109A0FBF796FD28B15C219C
:104AF00006A0FBF791FD401C00E004A0074623A39D
:104B0000094ADA2100F082FA00BF24E76D61696E7C
:104B10002E630000616464206B657920706173739B
:104B2000776F726400000000597C000876616C7534
:104B30006520256300000000636F756E7420256496
:104B400000000000E0010020257300007365742060
:104B50006B65792073756363657373202564202505
:104B600064000000736574206B657920737563635E
:104B7000657373202573000000F000086B657920D1
:104B8000627566206E756C6C0000000074696D655E
:104B9000206F757400000000F8B504460E2C52D248
:104BA000DFE804F051434445464748494A4B5151D8
:104BB0004E07FFF7C7FD00F093FB322001F072FEB5
:104BC000002000F099FB5C2120A0FBF725FD28B117
:104BD0005C211EA0FBF720FD401C00E01BA0054649
:104BE0001C4800781CA3234A40F26B110090284611
:104BF00000F00CFA00F06EFB05465C2113A0FBF7F9
:104C00000BFD28B15C2111A0FBF706FD401C00E064
:104C10000EA0064618A3174A4FF4B671009500F08F
:104C2000F5F9322001F03EFE0DE000BF00BF00BFED
:104C300000BF00BF00BF00BF00BF00F08DF802E062
:104C400001F010FC00BF00BFF8BD00006D61696E8F
:104C50002E630000D2010020B0B4BCFCC5E4CDF846
:104C600020534D4152545F434F4E464947202564DF
:104C70000D0A0000977C0008253032780A000000F9
:104C800086B0FF2005905C2127A0FBF7C5FC28B16A
:104C90005C2125A0FBF7C0FC401C00E022A00446DC
:104CA00023A3274A4FF4C47100F0B0F93AE005A8F5
:104CB000FDF7BAFC9DF91400401C002829D01421EE
:104CC0006846FBF720FD9DF914301EA214216846AA
:104CD000FBF75CFB5C2114A0FBF79EFC28B15C2178
:104CE00011A0FBF799FC401C00E00FA004466B46A6
:104CF000134A40F2911100F089F910236A4600210D
:104D00000846FEF75FF89DF91400642148431149F5
:104D100008609DF91400FFF73FFFFF2005900A206F
:104D200001F0C0FDC3E700006D61696E2E630000F5
:104D30006B6579207461736B207374617274000009
:104D4000A37C00086B6579206973202564202020EE
:104D500020000000100000202DE9FF410024A046A3
:104D6000002002900390FF20019000254FF47A76F6
:104D70005C2164A0FBF750FC28B15C2161A0FBF72B
:104D80004BFC401C00E05FA0074660A3644A40F271
:104D9000351100F03BF99CE001A8FDF745FC9DF8BA
:104DA00004000A2801D1BDE8FF819DF90400401CE0
:104DB000002832D09DF80400303002A948555C210B
:104DC00050A0FBF729FC28B15C214EA0FBF724FC86
:104DD000401C00E04BA0074602A8405D51A3504A8A
:104DE0004FF4A0710090384600F010F95C2145A006
:104DF000FBF712FC28B15C2142A0FBF70DFC401C24
:104E000000E040A007464AA3454A40F24111009500
:104E100000F0FCF86D1CFF200190062D55D10024F8
:104E20003AE004EB440101EBC401444A8818FBF763
:104E3000FEFB78B304EB440101EBC4013F4A881840
:104E400002A9FBF787FC28BB5C212EA0FBF7E4FB43
:104E500028B15C212BA0FBF7DFFB401C00E029A060
:104E6000074604EB440000EBC4003449084434A373
:104E70002B4A40F24D110090384600F0C7F801204F
:104E800033490860C82001F00DFD00203149C1F808
:104E9000800188E7FFE7641C052CC2DB5C2119A0B8
:104EA000FBF7BAFB28B15C2116A0FBF7B5FB401C51
:104EB00000E014A0074602A827A3194A40F25511A2
:104EC0000090384600F0A2F86DE70A2001F0EAFCF5
:104ED000761E002E3FF760AF96B95C2109A0FBF764
:104EE0009BFB28B15C2107A0FBF796FB401C00E070
:104EF00004A007461CA30A4A40F25D1100F086F8A0
:104F000000BF50E76D61696E2E6300006F70656EC3
:104F1000206B65792070617373776F726400000095
:104F20007E7C000876616C756520256300000000BA
:104F3000636F756E7420256400000000E00100209E
:104F40006F70656E207375636365737320257300DE
:104F500080812142008021426F70656E2066616908
:104F60006C6564202573000074696D65206F75742D
:104F70000000000000245C2118A0FBF74DFB28B1C5
:104F80005C2116A0FBF748FB401C00E013A005467F
:104F900014A3194A8E2100F039F81EE0601CC4B237
:104FA0000A2C08DB15480068C0431549C1F8B40154
:104FB000FDF7ECFA0024FDF743F948B90120114947
:104FC0000860C82001F06EFC00200F49C1F8800184
:104FD000FEF7CAF8322001F065FCDFE76D61696E0B
:104FE0002E6300006C6564207461736B20737461C0
:104FF00072740D0A00000000457C0008B4012242D2
:105000000000224280812142008021420FB4F0B58D
:10501000C3B004460D4616464FF4807102A8FBF754
:1050200072FB4CA8429002A8429A4B99FBF790F968
:1050300007460D4880780C494978CDE900100A48A8
:105040000378C279817909A0FBF794F902A8334665
:105050002A46214600900AA0FBF78CF900204290D6
:1050600043B0F0BC5DF814FB2C0200205B25642FDC
:1050700025642D25643A25643A25645D000000000E
:105080005B25735D5B25645D5B25735D3A25730D60
:105090000A0000001CB54FF44070FDF737FDFFF724
:1050A0004FF94FF4E13001F0FFF8FDF749FCFDF74F
:1050B00073FCFDF78FFDFDF733FDFFF727FBFEF7D0
:1050C000BFF8FEF711F84120FDF798FC4FF4E130EE
:1050D00001F074F901F034FE27E05C212DA0FBF70C
:1050E0009BFA28B15C212BA0FBF796FA401C00E04C
:1050F00028A0044629A32D4A5B21FFF787FF4FF420
:105100004870FFF74BF95C2122A0FBF785FA28B124
:105110005C2120A0FBF780FA401C00E01DA00446A3
:1051200023A3224A5D21FFF771FFFEF7DBFA002877
:10513000D3D1FDF745F840F253710420FDF72AFA68
:105140005C2114A0FBF768FA28B15C2111A0FBF7E1
:1051500063FA401C00E00FA0044619A3134A612122
:10516000FFF754FF00201A4908601A49C1F880016E
:105170000120194908601948012100234FF4906269
:10518000CDE9001016A1194802F04EFA01F026FDF3
:1051900000201CBD6D61696E2E63000052544320D7
:1051A0004552524F5221202020000000407C000830
:1051B00052544320547279696E672E2E2E000000DF
:1051C000696E697420737563636573730A00000008
:1051D000B40122420080214284812142000000204B
:1051E00073746172745F7461736B000021610008F5
:1051F00070B504460D46002615480078012800D1F8
:1052000070BD2146304600F083FF0646012130463E
:1052100000F07EFF06460021304600F079FF06468A
:105220000121304600F074FF06462DB900213046BA
:1052300000F06EFF064604E00121304600F068FFF2
:1052400006463146072001F025FE0120D8E7000080
:10525000D00100202DE9F04106468846144600277B
:1052600018480078012801D1BDE8F0813146384660
:1052700000F04EFF07460021384600F049FF074680
:105280002546E01704EB1060C0F30721384600F014
:105290003FFF0746E01704EB10600012A4EB00206C
:1052A000C1B2384600F034FF074622464146384630
:1052B00000F01AFF07463946072001F0EBFD0120F8
:1052C000D2E70000D00100200346012070470246CB
:1052D000107870470148007870470000D301002023
:1052E00010B50020034908700021042001F0D2FD10
:1052F00010BD0000D101002070B50446002500203B
:10530000054908702146284600F002FFC5B229462B
:10531000052001F0BFFD70BDD2010020F0B50546AB
:105320000E4613462A46344605B10EB90020F0BD9C
:10533000A24202D9E018904208D2002103E0605C4A
:105340005054481C81B29942F9DB07E0194603E04A
:10535000481E275C175481B20029F9DC2846E6E78D
:105360000146002209B900207047002200E0521CCB
:1053700011F8013B002BFAD11046F5E73EB50024A9
:10538000002000900190029025A0FFF7E9FF85B270
:105390002A4623A1204600F0A7FEC4B222A0FFF7B0
:1053A000DFFF85B22A4620A1204600F09DFEC4B250
:1053B00022A0FFF7D5FF85B22A4620A1204600F0A3
:1053C00093FEC4B21FA0FFF7CBFF85B22A461DA1F2
:1053D000204600F089FEC4B21CA0FFF7C1FF85B2D1
:1053E0002A461AA1204600F07FFEC4B219A0FFF79A
:1053F000B7FF85B22A4617A1204600F075FEC4B259
:1054000015A0FFF7ADFF85B22A4613A1204600F094
:105410006BFEC4B22146012001F03CFD3EBD000000
:105420007B2270223A220000656B6C7064666C61AE
:105430006965756F636E753100000000222C22765D
:10544000223A2200312E302E30000000222C226D14
:10545000223A0000320000007D0000002DE9F041FA
:1054600005460E461C4807681C480068001D01F0F0
:105470005BF850B91948006890F82C10012088405A
:1054800017490968814316480160681C38B936B16C
:1054900012480168091D134801F084F81AE07C19CC
:1054A0000E4800684460BC4207D20C480168091DE0
:1054B0000D48006801F05CF80CE008480168091D1F
:1054C0000A48006801F054F809480068844201D293
:1054D00007480460BDE8F08164010020500100200D
:1054E00068010020D80E002058010020540100203F
:1054F0008001002010B5044601F060F824480068DF
:10550000401C234908602348006840B921480460D2
:105510000846006801280DD100F0EEF90AE01E48A7
:10552000006838B91B480068C06AE16A884201D83F
:105530001848046019480068401C1849086008466B
:105540000068606494F82C100120884014490968B0
:10555000084313490860E16A01EB8101114A02EB3B
:105560008100211D01F01EF801F06CF80A48006866
:1055700068B108480068C06AE16A884207D24FF003
:10558000805009490860BFF34F8FBFF36F8F10BD84
:1055900060010020500100206C0100207C010020EF
:1055A00068010020080C002004ED00E010B501F0B7
:1055B00005F810480068D0B90F4800F0C9FF0F483F
:1055C00000F0C6FF0C480E4908600C480D49086001
:1055D00000221021052001F0F7FC0649086008466A
:1055E000006820B108A10348006801F01FF901F02C
:1055F00029F810BD94010020EC0E0020000F0020BF
:105600008C01002090010020546D725100000000B8
:1056100070B523E001F038FB1348006808B9012099
:1056200000E00020054602F0BBF9BDB900F0C6FF5E
:105630000D48C068C468201D00F076FF0B48006864
:10564000401E0A4908600A480068401E0849086070
:1056500000F0F8FF204600F060F800BF0448006842
:105660000028D7D170BD0000C40E002060010020CA
:105670005C01002070B504460D46206C70B1216CB1
:10568000E0680844E0606168E068884201D320680F
:10569000E0602846226CE168FAF7E8FF70BD2DE96A
:1056A000F04104460F4615464FF00008A66B206CEB
:1056B00040B9206860BB606802F0ACF8804600200A
:1056C000606025E07DB93946226CA068FAF7CEFF0C
:1056D000216CA0680844A060D4E90110884217D367
:1056E0002068A06014E03946226CE068FAF7BEFF3B
:1056F000216CE068401AE0602168E068884203D2CB
:10570000216C6068401AE060022D01D106B1761E5E
:10571000701CA0634046BDE8F08110B50446206BC4
:1057200000F0C8FF204600F0C5FF10BD0146084A42
:10573000126812680AB9012200E000220A600A68B1
:1057400022B9034A1268D268106800E0002070474E
:105750008C01002030B54FF42053174800F00704A7
:105760002CB1C01D20F00700134C041B1B1B02466C
:10577000124C22600024114D6C60D018083820F0C3
:1057800007000F4C206000240D4D2D686C600C4DFF
:105790002D682C601146441A4C60094C24680C603A
:1057A000084D4C682C60084D4C682C604FF000444C
:1057B000064D2C6030BD0000140F0020AC0100200D
:1057C000B4010020BC010020B8010020C00100206D
:1057D00000BFFFF71DFF064800680128F9D94FF008
:1057E000805004490860BFF34F8FBFF36F8FF0E71D
:1057F000080C002004ED00E02DE9F04106460D46BE
:1058000017469846069C0DB9246000E02760E663C1
:1058100025640121204601F0F5FC84F85080002029
:10582000A064BDE8F08100002DE9F05F82460F46DC
:1058300090469B460A9E0C9C4FEA8801A522206B4D
:10584000FAF759FFA8F10100216B01EB800929F05B
:10585000070909F0070008B9012000E0002028B975
:1058600040F22B321BA120A0FAF784FD002507E0AF
:10587000795D04F134004155785D00B902E06D1C9A
:10588000102DF5D300BF002143200155202E00D359
:105890001F26E662E66400202065201D00F065FEFC
:1058A00004F1180000F061FE2461C6F12000A0613F
:1058B00064620020606584F858005A4651464846A4
:1058C00000F000FC20600B9808B10B980460BDE864
:1058D000F09F00002E2E5C4672656552544F535C5B
:1058E0007461736B732E63004572726F723A257325
:1058F0002C25640D0A00000010B5002407E004EB1D
:1059000084010F4A02EB810000F022FE641C202C6F
:10591000F5D30C4800F01CFE0B4800F019FE0B48B4
:1059200000F016FE0A4800F013FE0A4800F010FED0
:1059300004480949086004480849086010BD00008F
:10594000080C0020880E00209C0E0020B00E0020C5
:10595000C40E0020D80E0020540100205801002061
:1059600010B50146164800E0006803688B42FBD37F
:105970000246436813448B4204D143684C68234475
:10598000436001460A464B6813440468A34211D1A0
:105990000C4C03682468A34208D04B680468646810
:1059A00023444B6003681B680B6005E0054B1B68D4
:1059B0000B6001E003680B60884200D0016010BDFD
:1059C000AC010020B40100202DE9F04104460D4651
:1059D00016461F464FF0000865602461B5420CD89A
:1059E000F01BA169884202D34FF0010811E0211D8C
:1059F0000948006800F0BCFD0BE0BE4204D2BD4285
:105A000002D34FF0010804E0211D0448006800F0B3
:105A1000AFFD4046BDE8F081900100208C010020E0
:105A200070B5054600F0CAFDA86B08B9012400E076
:105A3000002400F007FE204670BD70B5054600F05A
:105A4000BDFDA86BE96B884201D1012400E0002470
:105A500000F0F8FD204670BD2DE9F3410D46009899
:105A6000846C00272CB940F6CE121AA11EA0FAF7BA
:105A700081FCA06BE16B884201D2012000E0002094
:105A800028B940F6CF1213A117A0FAF773FCA06B48
:105A9000E16B88421BD294F945602A46694620464C
:105AA000FFF7FDFD0746701C60B9606A08B9012068
:105AB00000E0002050B904F1240001F017FF28B1E4
:105AC000012703E0701C40B284F8450000BF38464F
:105AD000BDE8FC812E2E5C4672656552544F535CC6
