:020000040800F2
:10000000784000200D030008B92A0008EB250008FD
:10001000B52A0008811B0008874000080000000086
:100020000000000000000000000000007502000851
:100030009F1B000800000000B9020008893C00086E
:10004000270300082703000827030008ED360008EF
:100050002703000827030008A11B00082703000846
:1000600027030008270300082703000827030008C8
:1000700027030008270300082703000827030008B8
:1000800027030008270300082703000827030008A8
:100090002703000827030008270300082703000898
:1000A0002703000827030008270300082703000888
:1000B0002703000827030008270300082703000878
:1000C0002703000827030008270300082703000868
:1000D00027030008153D00089D3D0008FD3D000870
:1000E00027030008270300082703000800F002F890
:1000F00000F0B0F80AA090E8000C82448344AAF112
:100100000107DA4501D100F0A5F8AFF2090EBAE80F
:100110000F0013F0010F18BFFB1A43F0010318473B
:10012000A08D0000C08D00000A444FF0000C10F8B4
:10013000013B13F0070408BF10F8014B1D1108BF65
:1001400010F8015B641E05D010F8016B641E01F805
:10015000016BF9D113F0080F1EBF10F8014BAD1C55
:100160000C1B09D16D1E58BF01F801CBFAD505E073
:1001700014F8016B01F8016B6D1EF9D59142D6D3CD
:10018000704700000023002400250026103A28BFF5
:1001900078C1FBD8520728BF30C148BF0B607047F9
:1001A0006E2900F0AD83702900F01F85662908F0E4
:1001B0004D81652908F04A81672908F04781612946
:1001C000AFF3008003681B0A28BF41F08001692952
:1001D00000F02281642900F01F81752900F01C8144
:1001E0006F2900F0AC84782900F0EB84E92900F055
:1001F0004784E42900F04484F52900F04184EF2984
:1002000000F0A984F82900F0EA840368DB0928BF1C
:1002100041F08001632900F0B683732900F0BB83AD
:10022000E32900F09F87F32900F0A487002070479E
:100230001FB500F0F5FF04000020002108F0F0F8E1
:10024000401C60600020002108F0D4F8E0601FBD71
:1002500010B510BD00F0B6FF1146FFF7E9FF05F03D
:1002600019FA01F093F803B4FFF7F2FF03BC03F0AF
:1002700040FF0000224B19680868B0E8F00F80F3D7
:100280000988BFF36F8F4FF0000080F311884EF0A4
:100290000D0E70470000000006480068006880F3FB
:1002A000088862B661B6BFF34F8FBFF36F8F00DF70
:1002B00000BF00BF08ED00E0EFF30980BFF36F8FD0
:1002C0000F4B1A6820E9F00F106008B54FF050008E
:1002D00080F31188BFF34F8FBFF36F8F07F0EAF8F9
:1002E0004FF0000080F31188BDE8084019680868E5
:1002F000B0E8F00F80F30988BFF36F8F704700BF3D
:100300005C020020EFF30580704700000948804739
:1003100009480047FEE7FEE7FEE7FEE7FEE7FEE7E7
:10032000FEE7FEE7FEE7FEE704480549054A064BFF
:1003300070470000993C0008ED000008783A002062
:1003400078400020783C0020783C00207047000076
:100350001CB50C46064B7B4469460090204600F0D5
:10036000E8FA04460020694600F0F6FA20461CBD73
:10037000FF0500000FB4044910B503AA029800F06D
:100380000FFB10BC5DF814FB400200200FB47CB5DD
:100390000C0009AA009001D02044401E084B7B4469
:1003A00069460190089800F0C4FA05461CB1002087
:1003B000694600F0D1FA28467CBC5DF814FB0000C9
:1003C000C105000070B50C460546012A05D0287805
:1003D000800600D5EA69002302E0012305E05B1CEA
:1003E000934202D2E05C0028F9D1A869E618C01A4D
:1003F000A861286A18442862284600F0EFF904E052
:10040000D5E9012114F8010B9047B442F8D32846EE
:1004100000F0FAF970BD00002DE9F0410646002415
:1004200010687529314616A510D000F0FEF9002895
:1004300002DA404213A507E031688A0701D512A508
:1004400002E0490704D511A5012401E000F0F6F906
:1004500000210A2206F1240709E0B0FBF2FCB0FB00
:10046000F2F302FB1C00303078541846491C002877
:10047000F3D123462A463046BDE8F04100F0E7B903
:10048000000000002D0000002B00000020000000F4
:100490002DE9F05F894604464FF0000ADFF874B199
:1004A000FB44C0F820A02046E1688847002874D0AB
:1004B000252806D0D4E901219047206A401C2062FB
:1004C000F1E700265F462046E16888472028054678
:1004D00007DB312D05D2781910F8200C08B106433E
:1004E000F1E7B00701D526F00406C4F81CA00027E8
:1004F000C4F818A02A2D09D0284603F0F3FD38B31C
:1005000004EB8708303DC8F8185019E059F8041B6F
:10051000204604EB87029161E1688847012F054678
:1005200018D1E069002820DA26F020061DE0D8F86E
:10053000180000EB800005EB40003038C8F81800C8
:100540002046E1688847054603F0CCFD0028EED13F
:10055000012F0AD02E2D08D12046E16888477F1C44
:100560000546022F46F02006C4DBA069002803DA06
:10057000404246F00106A061F00701D026F01006C7
:100580006C2D0BD0682D09D04C2D39D06A2D35D06B
:10059000742D35D07A2D33D016E038E0E1682F463F
:1005A00020468847B842054609D16C2F26D04FF423
:1005B0008060E168064320468847054604E06C2FCA
:1005C0001AD04FF4807006430DB3A5F141001928ED
:1005D00002D8203546F400664A4629462046266061
:1005E0004E46FFF7DDFD80B101280BD0F61D26F049
:1005F000070000F1080956E74020E4E78020D8E72B
:100600000020D6E706F104094DE7284652E7206AA4
:10061000BDE8F09F478900000022CBB210F8011B13
:10062000994200D1421E0029F8D11046704710B5FA
:10063000431C02E010F8011B71B18107FAD14FF0A1
:10064000013202C88C1A8C4314EAC211F9D0C01AC4
:100650000A0603D0C01E10BDC01A10BD0A0401D086
:10066000801E10BD0902FCD0401E10BD032A40F2BE
:10067000308010F0030C00F0158011F8013BBCF144
:10068000020F624498BF11F801CB00F8013B38BF5C
:1006900011F8013BA2F1040298BF00F801CB38BF6A
:1006A00000F8013B11F0030300F0AA82083AC0F001
:1006B000088051F8043B083A51F804CBA0E8081030
:1006C000F5E7121D5CBF51F8043B40F8043BAFF363
:1006D0000080D20724BF11F8013B11F801CB48BFBD
:1006E00011F8012B24BF00F8013B00F801CB48BFF3
:1006F00000F8012B704702F0FF0343EA032242EAAD
:10070000024200F0B1BA4FF0000200B51346944621
:100710009646203922BFA0E80C50A0E80C50B1F159
:100720002001BFF4F7AF090728BFA0E80C5048BF6D
:100730000CC05DF804EB890028BF40F8042B08BF0B
:10074000704748BF20F8022B11F0804F18BF00F807
:10075000012B70474FF0013C50F8042B51F8043B3B
:100760009A4221D1A2EB0C03934313EACC1317D185
:1007700050F8042B51F8043B9A4215D1A2EB0C031C
:10078000934313EACC130BD150F8042B51F8043BDC
:100790009A4209D1A2EB0C03934313EACC13DBD0AA
:1007A0004FF00000704700BFD01A01BAB1FA81F1D2
:1007B00001F0180122FA01F0CB40C1F12001DBB2B7
:1007C000C0B2C01A2CFA01F3D11A914311EAC31135
:1007D000E6D17047704770477047704770B5044660
:1007E00085690068C10601D5302600E02026C007D3
:1007F00007D070BDD4E9012130469047206A401CE3
:1008000020626D1EF6D570BD70B50446856900780E
:10081000C00707D170BDD4E9012120209047206A8C
:10082000401C20626D1EF6D570BD09684A0501D5D1
:1008300040B27047C905FCD500B2704709684A0547
:1008400001D5C0B27047C905FCD580B270472DE90B
:10085000F0470D4699469246044600F12408016887
:10086000880604D5E06921F01001216000E0012034
:10087000A84201DD471B00E00027A1697A1902EBBD
:100880000900081AA0612078C00602D42046FFF7AC
:10089000A5FF002608E0D4E901211AF806009047D8
:1008A000206A401C761C20624E45F4DB2078C0068E
:1008B0000AD52046FFF792FF06E0D4E90121302057
:1008C0009047206A401C2062381EA7F10107F4DC23
:1008D00007E0D4E9012118F805009047206A401C80
:1008E0002062281EA5F10105F3DC2046FFF78CFFEE
:1008F0002078000602D50220BDE8F0870120FBE742
:1009000011680268006A530501D508700AE0D30532
:1009100001D5088006E0130603D5C217C1E900021D
:1009200000E008600120704701694A1C02610878F4
:10093000704700B58FB0CDE901310021059105491F
:100940007944CDE9031011466846FFF7A1FD0FB0C9
:1009500000BD0000E5FFFFFF0A6802F8010B0A6016
:100960007047D1E900239A4202D2531C0B601070E9
:10097000704710B5436913B1AFF3008001E0FFF792
:1009800021FD012010BD127800F124010A7000221F
:100990004A700122EDE711684FF0FF32E9E70000ED
:1009A000074B70B50D467B44FFF7C3FF044628464E
:1009B00000F0E4FB10B14FF0FF3070BD204670BD79
:1009C000AF4100002DE9FF5F15468A460446DFF877
:1009D000AC80F8440027D8E900103E46CDE900106D
:1009E00010E03AF816106A4602A800F0CBFB411C52
:1009F00007D02178890603D5E269391891420DD8CC
:100A00000744761C2078800602D5E069B84205DDEF
:100A1000AE42E6DB3AF816000028E2D1A069C01B1E
:100A2000A0612046FFF7DAFED8E90010CDE90010FA
:100A3000002017E03AF818106A4602A800F0A2FB5E
:100A4000B0F1FF3F81460BD000250DF1080B05E00A
:100A5000D4E901211BF8050090476D1C4D45F7D3E3
:100A600008F10100B0428046E4DB206A384420628D
:100A70002046FFF7C9FEBDE8FF9F00002684000066
:100A80002DE9F0418046D21D22F007020025D2E96F
:100A90000002F52915A614D0011E72F1000106DA34
:100AA0000023D0EB030063EB020211A608E0D8F8A4
:100AB00000108B0701D50FA602E0490701D50EA64D
:100AC00001251146002408F1240704E000F0ECF8A9
:100AD00030323A55641C50EA0102F7D12B463246B7
:100AE00021464046BDE8F041FFF7B1BE00000000DE
:100AF0002D0000002B0000002000000030B4002179
:100B000000F1240408E002F00705D208303542EA7B
:100B10004372DB086554491C52EA0305F3D10468AB
:100B2000002310A2250707D5A40600D421B1C4696B
:100B300001230DA2641EC46130BCFFF788BE10B54E
:100B4000044621461068FFF779FE02462046BDE8BC
:100B500010400023D2E7D21D22F00701D1E9002383
:100B6000CCE700000000000030000000F0B40D46AB
:100B70000188090502D5214C7C4402E01F4C7C44CD
:100B80000E34002100F1240608E002F00F071209DC
:100B9000E75D42EA03721B097754491C52EA0307D6
:100BA000F3D102780023120704D5702D06D009B1C5
:100BB000022311342246F0BCFFF749BE0123103452
:100BC000F8E770B504460D4621461068FFF736FE7B
:100BD000024629462046BDE870400023C6E7D21DE4
:100BE00022F00703D3E90023C0E70368126843F04B
:100BF000200303600823C3610023B7E78882000055
:100C000010B5203AC0F00B80B1E81850203AA0E8A7
:100C10001850B1E81850A0E81850BFF4F5AF5FEADB
:100C2000027C24BFB1E81850A0E8185044BF18C98E
:100C300018C0BDE810405FEA827C24BF51F8043B35
:100C400040F8043B08BF7047D20728BF31F8023B89
:100C500048BF11F8012B28BF20F8023B48BF00F81D
:100C6000012B70474FF000020429C0F0128010F0F1
:100C7000030C3FF44AADCCF1040CBCF1020F18BFD9
:100C800000F8012BA8BF20F8022BA1EB0C01FFF705
:100C90003CBD5FEAC17C24BF00F8012B00F8012BAA
:100CA00048BF00F8012B704730B5B0F10A024FEA97
:100CB000900E71F100034EEA817EB0EB0E0061EB05
:100CC00091014FEA101E4EEA017E10EB0E0041EB3F
:100CD00011114FEA102E4EEA016E10EB0E0041EB9F
:100CE00011214FEA104E4EEA014E10EB0E0041EB7F
:100CF0001141401841F100014FEAD00040EA417033
:100D00004FEAD10110EB80054FEA810444EA907468
:100D100044EB01046D1944EB0404521BA3414FF052
:100D2000000348BF0A3200D530BD401C41F100012C
:100D300030BD70472DE9FF4F0C461E464FF0FF3780
:100D40008BB0D2E90001DDF860800A908A46C1F3D9
:100D50000A5505B93D46002108464FF00000BAF19A
:100D6000000F00F4400005DA00EB80004FF4400172
:100D700001EA50004FEA9059B9F1010F00DDB94680
:100D80000A9850EA4A000ED044F61050A5F2FF35FA
:100D900045432F14B8F1000F1ED07542291E1EDDE9
:100DA000C9F100021CE0B8F1010F4FF0000001D0C2
:100DB000302103E0F24305E02154401CB042FBDB4C
:100DC00030460022002121540B99C1F80880C1E966
:100DD00000200FB0BDE8F08FBD1B6D1CDEE74A465A
:100DE00000DA694206A800F05FFA06AB93E8070054
:100DF00003AB83E8070050460A9900F0D5FA8DE866
:100E00000700A0F500501F3800900398002D0ADD60
:100E100042F21F014A460844002303A90390684692
:100E200000F03EFD09E0A0F500504A461F380023BF
:100E300003A90390684600F048FD8DE80700000410
:100E4000000C03D04FF0FF30410800E01046B8F12D
:100E5000000F03D00022009215461EE0751E05D437
:100E6000FFF722FF303262556D1EF9D5B3460122DD
:100E7000084302D000227F1C04E02078302801D1F2
:100E800000227F1E002A099784D01DE0112D07DA69
:100E9000FFF70AFF303262556D1C50EA0102F5D1AE
:100EA000084302D00098C8B10EE00021681E05E09A
:100EB000235C625C63542254401E491C8142F7DB70
:100EC000AB46A81B401E0990002004F80B000B98AD
:100ED000099AC0F80880C0E9002B7AE711264FF084
:100EE000000857E72DE9F04F88460446D21D22F04E
:100EF000070191B0D1E90001CDE90A0103F0DEF864
:100F000002460B98C00F01D02D2007E02068810712
:100F100001D52B2002E0202101EAC000032A09901C
:100F200001D0072A05DB03464146204600F07CF944
:100F30000BE12078800601D5E06900E00620B8F1D9
:100F4000650F814606D0B8F1660F18D0B8F1670F6B
:100F500070D131E00020B9F1110F009001DB1123B5
:100F600001E009F101030AAA01A90CA8FFF7E2FEBA
:100F7000DDE90C70002609F10105834647E00120F8
:100F80004B4600904FF000470AAA01A90CA8FFF7B2
:100F9000D1FEDDE90DB00C995D46002610B909F1CE
:100FA00001000D18B9EB050003D4C0F1FF3609F1BB
:100FB0000105A5EB09002BE0B9F1010F01DA4FF0B3
:100FC00001090020B9F1110F0090484601DD1123FD
:100FD00000E003460AAA01A90CA8FFF7ABFEDDE971
:100FE0000C704D4600268346207800070AD4AB4596
:100FF00000DA5D4601A8012D04DD411911F8011C3C
:10100000302907D04F4502DA17F1040F04DA012026
:1010100082460FE06D1EEEE7002F02DCED1B3E4422
:1010200003E0781CA84200DD7D1CB81B00F1010A1A
:101030004FF000472078000703D4AA4501DB4FF0AA
:10104000FF3A0021B7F1004F0DF143088DF843102E
:1010500024D002202B23002F01DA7F422D230A21E6
:10106000021EA0F1010000DC5FB197FBF1FC97FBD1
:10107000F1F201FB1C7C17460CF1300C08F801CD95
:10108000EEE7A8F1010003702188090501D545218B
:1010900000E06521A0F1010800F8011C09980FA9E2
:1010A000A1EB0807FF1D00B10120411901EBEA7017
:1010B000A1693844081A401EA0612078C00602D4F5
:1010C0002046FFF78BFB099828B1D4E9012190470E
:1010D000206A401C20622078C00622D52046FFF7F7
:1010E0007DFB1EE0002E04DBB34502DD01A8805D20
:1010F00000E03020D4E901219047206A401C2062A2
:10110000761CAAF101005FEA000A0AD100F088F813
:10111000C0680168405CD4E901219047206A401C06
:101120002062281EA5F10105DCDC07E0D4E90121DD
:1011300018F8010B9047206A401C2062381EA7F166
:101140000107F3DC2046FFF75FFB032011B041E607
:1011500010B5436913B1AFF3008001E0FFF732FC33
:10116000012010BD128800F1240182840022C28473
:101170000122EDE711684FF0FF32E9E7007B00F054
:101180008000704770B516460C46054600F040F8E2
:10119000036893F80101012806D0FF2C0FD8185DD1
:1011A00068B101202C7070BDD3F80701324621468A
:1011B00003F2071303442846BDE8704018474FF078
:1011C000FF3070BD754600F0EBF8AE46050069468D
:1011D000534620F00700854618B020B5FFF7A4F865
:1011E000BDE820404FF000064FF000074FF0000828
:1011F0004FF0000B21F00701AC46ACE8C009ACE8A9
:10120000C009ACE8C009ACE8C0098D4670470000D1
:1012100010B500F005F8001D10BD00BF05720000FC
:1012200000487047343A00202DE9F0411F4604463B
:1012300003260168072A01F4006004DB08B116A543
:1012400005E016A503E008B115A500E015A521F0FD
:1012500010002060A069C01EA0610FB1401EA061F7
:101260002046FFF7BBFA4FB1D4E901213846904739
:10127000206A401C2062C01C206206E0206AFAE757
:10128000D4E9012115F8010B9047761EF8D22046CB
:10129000FFF7BAFABDE8F0814E414E006E616E0074
:1012A000494E4600696E66002DE9F04781461646B4
:1012B0008AB0354878440DC88DE80D00324878442E
:1012C000801C03AC0DC884E80D0041F69B30084437
:1012D000372190FBF1F290FBF1F5A5F1800501FBC0
:1012E00012041B3C02D56442012000E00020DFF81C
:1012F00098A080460027FA44AAF1BE0A0EE0E00753
:101300000AD03246684607EB470101230AEB810108
:1013100000F0DBFA8DE8070064107F1C002CEED192
:10132000194F7F44AE3F19E0E80715D007EB0410D2
:101330000DF1180A90E80E008AE80E00C068F0422D
:1013400001D1981908903246012306A903A800F09C
:10135000BCFA03AB83E807006D10641C002DE3D1D9
:101360004FF0010332466946B8F1000F03A802D0DE
:1013700000F096FA01E000F0A8FAC9E90001C9F806
:1013800008200AB0BDE8F087F07B000010B50446E5
:10139000AFF300802046BDE81040FEF764BF0000B8
:1013A00000487047143A00205FEA400C08BF91F0F3
:1013B000000F4FEA8C234FEAC12243EA51514FEA12
:1013C0001C5018BF00F5F0404FEA300018BF41F044
:1013D00000415FEA6C5C00F02980BCF1FF3F08BF70
:1013E00040F080407047130C06BF12044FF0100C01
:1013F0004FF0000C130E04BF12020CF1080C130F77
:1014000004BF12010CF1040C930F04BF92000CF105
:10141000020CD30F04BF52000CF1010C11464FF027
:101420000002A0F11F00A0EB0C00704711F0004F6C
:1014300008BF704731F000413FF4D5AF0B0C06BF39
:1014400009044FF0100C4FF0000C0B0E04BF090202
:101450000CF1080C0B0F04BF09010CF1040C8B0FED
:1014600004BF89000CF1020CCB0F04BF49000CF142
:10147000010CCCF12003A0EB0C0022FA03F302FADA
:101480000CF241EA030100F10100704720F07F4CAB
:1014900080EA030023F07F47ACEB070303F57C539E
:1014A00000F0004003F1FF032DE980494FEA154B9E
:1014B00009B44FEA144325EA0B4E24EA03480FF21D
:1014C000042606EB132749083E785FEA320203FB45
:1014D0000667C7F5000707FB06F64FEA54374FEAE1
:1014E000D64606F1020607FB066CCCF1005C4FEA1B
:1014F0001C472CEA074C07FB06F40CFB06F504EB33
:1015000015464FEA961634BF00204FF000404FEAD0
:10151000D13706FB07FC4FEA1C4C0CFB0BF7D21B28
:1015200003FB0CF761EB07010CFB0EF7B0EB074078
:1015300072EB17420CFB08F734BFA2EB0742B2EB89
:10154000074261EB17414FEA0C444FEA910706FB53
:1015500007FC4FEA1C4C0CFB0BF7B0EBC74072EBDF
:10156000573203FB0CF734BFA2EBC742B2EBC742C2
:1015700061EB57310CFB0EF7B0EBC70072EB577203
:101580000CFB08F734BFA2EBC702B2EBC70261EB5A
:101590005771039F4FEA816141EA921104EBCC0439
:1015A0004FEAD1374FEA826206FB07FC42EA90120B
:1015B0004FEA80604FEA1C4C0CFB0BF7D21B03FB7D
:1015C0000CF761EB07010CFB0EF7B0EB074072EB79
:1015D00017420CFB08F734BFA2EB0742B2EB0742FD
:1015E00061EB17414FEA8C554FEA910704EB9C24BD
:1015F00006FB07FC4FEA1C4C0CFB0BF7B0EBC7409B
:1016000072EB573203FB0CF734BFA2EBC742B2EBCD
:10161000C74261EB57310CFB0EF7B0EBC70072EB22
:1016200057720CFB08F734BFA2EBC702B2EBC7023C
:1016300061EB577115EB4C254FEA816141EA92113C
:101640004FEA82624FEAD13742EA901206FB07FC6A
:1016500044F100044FEA80604FEA1C4C0CFB0BF78E
:10166000D21B03FB0CF761EB07010CFB0EF7B0EB91
:10167000074072EB17420CFB08F734BFA2EB07429E
:10168000B2EB074261EB174115EB1C154FEA8131B4
:1016900041EA92414FEA823242EA90424FEA803078
:1016A0004FEA0C7644F1000448EA03434EEA0B4843
:1016B0004FF0000EB2EB080C71EB030724BF62463B
:1016C00039464EEB0E0E4FF0000B001852414941C7
:1016D0004BEB0B0BB2EB080C71EB03077BF1000B30
:1016E00024BF624639464EEB0E0E4FF0000B001839
:1016F000524149414BEB0B0BB2EB080C71EB03076A
:101700007BF1000B24BF624639464EEB0E0E51EAC8
:10171000020718BF46F0010616EB0E7655F10002DF
:1017200054F1000103D5BDE88901BDE80088BDE89A
:101730008901BDE80048B619524141EB0101A3F10E
:101740000103704780807F7E7D7C7B7A7978777615
:1017500076757473727171706F6E6E6D6C6C6B6A8E
:101760006A6968686766666564646363626161602C
:10177000605F5F5E5E5D5D5C5C5B5B5A5A595958A9
:101780005857575656555555545453535252525113
:10179000515050504F4F4F4E4E4D4D4D4C4C4C4B69
:1017A0004B4B4A4A4A4949494848484747474746B0
:1017B00046464545454444444443434343424242EC
:1017C00042414141002B9C4630D477002BD01CB5C0
:1017D0004FEA370703B44FF010004FF01001BAF191
:1017E000000F06D0BCF1000FDCBF40F0080040F055
:1017F00008014FF000000FBCBDE810400BF1010BD9
:10180000BBF1010F08BF5FEA170722BF12F1010207
:1018100011F101014FF0004143F1000300F00040DD
:1018200043EA00007047F9D35708D0E746EA064676
:1018300013F1400F4FEA16461FDD13F1200FDFBFF3
:1018400016430A46002120335B42BED0C3F1200775
:1018500046EA064602FA07F74FEA164646EA070640
:10186000C3F1200722FA03F201FA07F721FA03F184
:101870004FF0000342EA0702A7E746EA020646EAFB
:1018800006464FEA164646EA0106BCBF46EA064649
:10189000360C4FF000034FF000024FF0000194E7C8
:1018A0002DE9804C9A46934670B491E8380007C8F9
:1018B00031EA400C48BF34EA430C03D5FFF7E6FD9C
:1018C000FFF780FFF0BCBDE8008C2DE9804C9A4604
:1018D000934670B491E8380007C810F0804F08BFF5
:1018E00013F0804F03D100F005F8FFF76BFFF0BC59
:1018F000BDE8008C20F07F4780EA030023F07F4C96
:1019000007EB0C03A3F57C5300F00040A3F1FE03AA
:1019100092F0000F00F0B38095F0000F00F0778098
:101920002DE901494FEA11404FEA144621EA0048E7
:1019300000FB06FC24EA064708FB06F607FB08F84E
:1019400000FB07F718EB06484CEB164C4FEA124B1E
:1019500018EB07484FEA15464CEB174022EA0B4EAE
:101960000BFB06FC25EA06470EFB06F607FB0EFE00
:101970000BFB07F71EEB064E4CEB164C4FF0000628
:101980001EEB074E4CEB174B18EB0B0840F1000019
:1019900018EB0E0B58EB000840F100008F1A4FF0C7
:1019A00000013CBFC943661B14BFB5EB040C00210A
:1019B0003CBFC943F61B4FEA17444EEA8E0E27EA96
:1019C00004454FEA1C4704FB07622CEA074C05FB61
:1019D00007F70CFB05F604FB0CFC16EB074642EB85
:1019E000174216EB0C4642EB1C421BEB060658EB6B
:1019F0000202414146EA9E0601D5BDE80189B619B9
:101A0000524141EB0101A3F10103BDE801894FEA15
:101A100014454FEA114724EA054621EA074C05FB25
:101A200007F406FB07F70CFB06F105FB0CFC11EBBA
:101A3000074144EB17444FEA124711EB0C4144EBCA
:101A40001C4422EA074C05FB07F206FB07F70CFBD8
:101A500006F605FB0CFC16EB074642EB174216EBAD
:101A60000C4642EB1C456A1854F1000148BF704710
:101A7000B619524141EB0101A3F10103704795F002
:101A8000000F37D04FEA11424FEA144721EA0246CD
:101A900024EA074C02FB07F106FB07F70CFB06F4F0
:101AA00002FB0CFC14EB074441EB17414FEA1547CE
:101AB00014EB0C4441EB1C4125EA074C02FB07F5F3
:101AC00006FB07F70CFB06F602FB0CFC16EB0746C1
:101AD00045EB174516EB0C4645EB1C42121951F12C
:101AE000000148BF7047B619524141EB0101A3F113
:101AF000010370474FEA14454FEA114724EA0546AF
:101B000021EA074C05FB07F106FB07F70CFB06F281
:101B10004FF0000605FB0CFC12EB074241EB1741AE
:101B200012EB0C4251EB1C4148BF7047921841EB3D
:101B30000101A3F10103704710B5012001F02CFC55
:101B4000002001F029FC10BD08B5014600200090DE
:101B5000034800900098084400900098008808BD51
:101B6000006C004008B500220092044A0092009ADE
:101B700002440092009A116008BD0000006C004011
:101B800000BFFEE770B505460C46284601F0E2FEB0
:101B9000064626EA0401284602F078FA70BD70472E
:101BA00010B5012000F014F840B10548007840F06D
:101BB000800003490870012000F004F810BD000007
:101BC0006E010020014908607047000014040140C4
:101BD000014600200022074B1B6803EA0102054B67
:101BE00014331B680B4013B10AB1012000E0002040
:101BF0007047000000040140002123498279002A37
:101C00003AD00A46126803689A430B461A600A1DC6
:101C1000126803689A430B1D1A60027911440A681E
:101C200003681A430A60184A0832126803689A4324
:101C3000154B08331A601A1D126803689A43124B39
:101C40000C331A604279102A0ED11A1F12680368E9
:101C50001A430D4B08331A601A1D126803681A43A1
:101C6000094B0C331A600DE00749427911440A68A8
:101C700003681A430A6005E0027911440A680368A0
:101C80009A430A60704700000004014030B50446E2
:101C900004254FF4302000F06FF80546042D17D1CD
:101CA0000C48006940F002000A4908610846446196
:101CB000006940F0400008614FF4302000F05CF80B
:101CC00005460448006941F6FD7108400149086174
:101CD000284630BD0020024004200B49C96801F0AD
:101CE000010109B101200EE00749C96801F00401B2
:101CF00009B1022007E00449C96801F0100109B1E7
:101D0000032000E0042070470020024003480069DF
:101D100040F0800001490861704700000020024047
:101D200070B504460D460426F00200F025F806467C
:101D3000042E11D10948006940F0010007490861EB
:101D40002580F00200F018F806460448006941F6C4
:101D5000FE71084001490861304670BD0020024014
:101D600002480349486003484860704723016745BB
:101D700000200240AB89EFCD00B502460423FFF7F7
:101D8000ABFF034603E0FFF7A7FF0346521E012BFC
:101D900001D1002AF7D102B90523184600BD000081
:101DA00070B504465C2115A0FEF736FC28B15C2115
:101DB00012A0FEF731FC401C00E010A0054617A35E
:101DC000204AED2103F022FC10231FA20421002051
:101DD00001F05EF84FF4FA61214800F043F8052065
:101DE00002F03EFC42F21071204600F089F84FF4F8
:101DF000FA7002F035FC00F0EDFA70BD2E2E5C4852
:101E0000415244574152455C66706D333833635CD0
:101E100046504D333833432E630000003E3E3EC7EC
:101E2000EBBDABD0E8D2AAD7A2B2E1B5C4CAD6D630
:101E3000B8B0B4D1B9D6B8CEC6C4A3BFE934B4CE15
:101E40003C3C3C00368D0008696E707574206669F4
:101E50006E67657220636F756E7420340000000039
:101E60008401002070B504460D462146102000F084
:101E700095FA02E0012002F0F3FB0B4800780C28F1
:101E800002DA681E051EF5D108488079072802D1BC
:101E90000648407A00E0FF200646FF22142103484E
:101EA000FEF729FC304670BD6801002023030020A6
:101EB00070B504460F490C2000F070FA02E00120D2
:101EC00002F0CEFB0C4800780C2802DA601E041EDB
:101ED000F5D10A488079072802D10848407A00E005
:101EE000FF200546FF2214210448FEF704FC284683
:101EF00070BD0000C0010020680100202303002005
:101F000070B504460D46201230498872CC720846DE
:101F1000807A5430C97A084400122C49C8730846A4
:101F2000807A5430C97A084428490874112000F096
:101F300035FA02E0012002F093FB254800780C28D6
:101F400003DA681E80B2051EF4D12248407A0028C8
:101F500018D15C2120A0FEF75FFB28B15C211EA0F8
:101F6000FEF75AFB401C00E01BA0064622A3274AAE
:101F70004FF4847103F04AFB4FF4FA612448FFF7F1
:101F800071FF70BD002D19D122490C2000F006FA16
:101F90005C2111A0FEF740FB28B15C210EA0FEF7EA
:101FA0003BFB401C00E00CA006461BA3174A40F276
:101FB0000F1103F02BFB322002F052FB4FF4FA61B9
:101FC0001948FFF74FFF00BFDBE70000D8010020F2
:101FD00068010020230300202E2E5C484152445704
:101FE0004152455C66706D333833635C46504D3307
:101FF0003833432E630000003E3E3ED6B8CEC6D7EF
:10200000A2B2E1B3C9B9A63C3C3C0000428D000835
:10201000A4010020CC0100203E3E3EB3ACCAB1CAB0
:10202000A7B0DC3C3C3C0000940100201FB501211E
:10203000084601F0A1F90121042001F09DF90120D9
:10204000ADF8000028208DF803006946114800F023
:10205000E9F90021084600F0C5F9012002900020AE
:102060008DF80C0008208DF80D0001208DF80E0071
:1020700002A8FFF7C1FD06208DF8040002208DF8AC
:1020800005008DF8060001208DF8070001A800F07A
:1020900037FD1FBD0008014070B504460F490D20F3
:1020A00000F07CF902E0012002F0DAFA0C48007836
:1020B0000C2802DA601E041EF5D10A488079072830
:1020C00002D10848407A00E0FF200546FF22142193
:1020D0000448FEF710FB284670BD0000F501002003
:1020E000680100202303002070B504460F490C202E
:1020F00000F054F902E0012002F0B2FA0C48007836
:102100000C2802DA601E041EF5D10A4880790728DF
:1021100002D10848407A00E0FF200546FF22142142
:102120000448FEF7E8FA284670BD0000E9010020E7
:10213000680100202303002038B54FF4FA60FFF750
:10214000D3FF002830D14FF4FA60FFF7A5FF002835
:102150002AD14FF4FA6000F001F9002824D11F4879
:10216000C07A1E49897A00EB01201D4908805C2154
:102170001CA0FEF751FA28B15C211AA0FEF74CFA18
:10218000401C00E017A00446154800881DA3224A01
:10219000E1210090204603F039FA4FF4FA611F481C
:1021A000FFF760FE002038BD5C210EA0FEF734FA78
:1021B00028B15C210BA0FEF72FFA401C00E009A01B
:1021C000044617A3144AE72103F020FA4FF4FA61FA
:1021D0001748FFF747FE4FF0FF30E4E723030020E6
:1021E0006C0100202E2E5C48415244574152455C00
:1021F00066706D333833635C46504D333833432E4D
:1022000063000000C9A8C3E8B3C9B9A620D6B8CEF8
:10221000C64944A3BA256400258D0008A401002006
:10222000CEB4CBD1CBF7B5BDD6B8CEC6000000003A
:102230009401002010B500F040FC01F0F1FD00F029
:10224000C9F8FFF7F3FE5C2109A0FEF7E5F928B114
:102250005C2107A0FEF7E0F9401C00E004A0044662
:102260000BA3134A4FF4DC7103F0D0F910BD00004A
:102270002E2E5C48415244574152455C66706D3386
:102280003833635C46504D333833432E63000000CF
:10229000A1AAA1AAA1AAD6B8CEC6B3F5CABCBBAFA3
:1022A000B3C9B9A6A1AAA1AAA1AAA1AA0000000027
:1022B000518D000870B54FF0FF3416480078802823
:1022C00025D15C2114A0FEF7A7F928B15C2112A04A
:1022D000FEF7A2F9401C00E00FA0054616A31D4A18
:1022E00040F2C71103F092F94FF4FA611A48FFF770
:1022F000B9FD052002F0B4F9FFF71EFF04463220B5
:1023000002F0AEF900F066F800200249087020469D
:1023100070BD00006E0100202E2E5C4841524457D3
:102320004152455C66706D333833635C46504D33C3
:102330003833432E63000000A1A1A1A1A1A13E3E1C
:102340003ED6B8CEC6D1E9D6A43C3C3CA1A1A1A1C1
:10235000A1A100005E8D00088401002010B5044694
:102360000B49112000F01AF802E0012002F078F980
:1023700008480078102802DA601E041EF5D10648CD
:102380008079072802D10448407A10BDFF20FCE77D
:102390000F020020680100202303002070B50546CD
:1023A0000E46002400BF0BE0315D084801F067FED7
:1023B00000BF8021054801F094FD0028F9D0641C7D
:1023C000AC42F1DB00200249087070BD00440040BF
:1023D0006801002010B502490C20FFF7DFFF10BD97
:1023E000B401002030B500228B071C0F0F2303FA25
:1023F00004F20B4B8C1053F824309343084C8D108F
:1024000044F8253023468C1053F824308C07240FD1
:1024100000FA04F42343024C8D1044F8253030BDFB
:10242000080001402DE9F041024600250026002069
:1024300000230024002791F803C00CF00F0591F849
:1024400003C00CF0100CBCF1000F03D091F802C0D7
:102450004CEA050591F800C0BCF1000F31D01468BA
:1024600000202BE04FF0010C0CFA00F3B1F800C093
:102470000CEA03069E4220D183004FF00F0C0CFAA9
:1024800003F7BC4305FA03FC4CEA040491F803C0CB
:10249000BCF1280F06D14FF0010C0CFA00FCC2F879
:1024A00014C00AE091F803C0BCF1480F05D14FF009
:1024B000010C0CFA00FCC2F810C0401C0828D1D353
:1024C0001460B1F800C0BCF1FF0F34DD5468002087
:1024D0002EE000F1080C4FF0010808FA0CF3B1F8F7
:1024E00000C00CEA03069E4221D183004FF00F0C7E
:1024F0000CFA03F7BC4305FA03FC4CEA040491F818
:1025000003C0BCF1280F05D100F1080C08FA0CF843
:10251000C2F8148091F803C0BCF1480F07D100F154
:10252000080C4FF0010808FA0CF8C2F81080401CA3
:102530000828CED35460BDE8F0810000F0B50A460B
:10254000002300240021002500F00046B6F1004FD2
:1025500002D11D4EF16901E01B4E7168C0F30345C5
:1025600083B200F44016B6F5401F08D121F0706127
:10257000154E766826F07066134F7E6012E000F408
:102580008016B6F5801F06D1032606FA05F4A1438E
:1025900041F0706106E0460D360103FA06F6B143DC
:1025A00041F0706122B1460D360103FA06F631435F
:1025B00000F00046B6F1004F02D1034EF16101E098
:1025C000014E7160F0BD0000000001400246002095
:1025D00093680B400BB1012000E00020704741617F
:1025E000704701617047C160704700BFFEE700009F
:1025F0004CF6CC40014908607047000000300040B4
:1026000010B500F013F810BD70B505460C4645F244
:10261000555000F01FF8284600F010F8204600F052
:1026200013F800F003F8FFF7E3FF70BD4AF6AA20A5
:1026300001490860704700000030004001494860CF
:10264000704700000030004001498860704700007A
:102650000030004001490860704700000030004031
:102660000146CA1701EB92729210A1EB820292B955
:10267000642091FBF0F200FB121050B94FF4C870C7
:1026800091FBF0F200FB121008B901207047002006
:10269000FCE70120FAE70020F8E7000010B5044647
:1026A000FF20207002F094FA8021C248FFF78EFFCD
:1026B00078B14021BF48FFF789FF50B12021BD48C4
:1026C000FFF784FF28B11021BA48FFF77FFF0028E9
:1026D00044D10A2001F0C4FF8021B648FFF776FFFD
:1026E00048B90120207000BF8021B248FFF76EFF7B
:1026F0000028F9D032E04021AE48FFF767FF48B923
:102700000220207000BF4021AA48FFF75FFF002889
:10271000F9D023E02021A748FFF758FF48B903204C
:10272000207000BF2021A348FFF750FF0028F9D0F8
:1027300014E010219F48FFF749FF48B9042020709A
:1027400000BF10219B48FFF741FF0028F9D005E0AA
:10275000FF202070FF219748FFF745FF02F04AFA5B
:1027600080219448FFF732FF78B140219148FFF76C
:102770002DFF50B120218F48FFF728FF28B11021ED
:102780008C48FFF723FF002844D10A2001F068FF9E
:1027900080218848FFF71AFF48B90520207000BF44
:1027A00080218448FFF712FF0028F9D032E0402151
:1027B0008048FFF70BFF48B90620207000BF40217A
:1027C0007C48FFF703FF0028F9D023E02021794857
:1027D000FFF7FCFE48B90720207000BF2021754894
:1027E000FFF7F4FE0028F9D014E010217148FFF73C
:1027F000EDFE48B90820207000BF10216D48FFF79A
:10280000E5FE0028F9D005E0FF202070FF2169488F
:10281000FFF7E9FE02F002FA80216648FFF7D6FED4
:1028200070B140216348FFF7D1FE48B120216148D3
:10283000FFF7CCFE20B110215E48FFF7C7FEF8B9C4
:102840000A2001F00DFF80215A48FFF7BFFE48B96A
:102850000920207000BF80215648FFF7B7FE0028EE
:10286000F9D032E040215348FFF7B0FE48B90A20C2
:10287000207000BF40214F48FFF7A8FE0028F9D084
:1028800023E020214B48FFF7A1FE48B90B20207020
:1028900000BF20214748FFF799FE0028F9D014E037
:1028A00010214448FFF792FE48B90C20207000BF69
:1028B00010214048FFF78AFE0028F9D005E0FF20EC
:1028C0002070FF213B48FFF78EFE02F0BBF980210C
:1028D0003848FFF77BFE70B140213648FFF776FE9F
:1028E00048B120213348FFF771FE20B11021314853
:1028F000FFF76CFEF8B90A2001F0B2FE80212D48E6
:10290000FFF764FE48B90D20207000BF80212948E0
:10291000FFF75CFE0028F9D032E040212548FFF7A0
:1029200055FE48B90E20207000BF40212148FFF716
:102930004DFE0028F9D023E020211E48FFF746FE77
:1029400048B90F20207000BF20211A48FFF73EFE33
:102950000028F9D014E010211648FFF737FE48B9D7
:102960001020207000BF10211248FFF72FFE002812
:10297000F9D005E0FF202070FF210E48FFF733FE5D
:1029800094F9000003F066FF40B2207094F9000053
:10299000401C70B194F9001007A0FDF7EBFC00207B
:1029A00008490860322001F05BFE01200649C1F8A9
:1029B000840110BD000801406B65792069732025F2
:1029C000640D0A00848121420080214208B5012162
:1029D0000C2000F0D1FC4FF47040ADF80000032053
:1029E0008DF8020010208DF8030069460B48FFF7B0
:1029F00019FD4FF470410948FFF7F3FDF020ADF8E1
:102A0000000048208DF8030069460548FFF70AFDDD
:102A1000F0210348FFF7E5FD08BD0000000C014070
:102A20000008014008B50121182000F0A5FC032092
:102A3000ADF8000010208DF8030003208DF802008F
:102A400069460648FFF7EEFC01210448FFF7C7FD81
:102A500002210248FFF7C5FD08BD0000000C01403F
:102A600010B50446412C24D108210846FFF78AF806
:102A70003D21112001F00AFB8621172001F006FB01
:102A80007F21262001F002FB1E212D2001F0FEFAFD
:102A900000212C2001F0FAFA8D212A2001F0F6FA0B
:102AA0003E212B2001F0F2FA022001F0F9FD00F0A6
:102AB00077FA10BD00BFFEE7704708B54FF4A0607D
:102AC00000F056F828208DF8000001208DF8030052
:102AD0008DF8010000208DF80200684600F010F823
:102AE00026208DF8000001208DF8030000208DF8CD
:102AF00001008DF80200684600F002F808BD0000F1
:102B000070B5002100230F22C47804B3154C24684B
:102B100004F4E064C4F5E064210AC1F10403CA408E
:102B2000447804FA03F184781440214309010E4CDF
:102B30000678A155047804F01F050124AC400578FF
:102B40006D11AD0005F1E025C5F8004109E00478FC
:102B500004F01F050124AC40044D0678761145F8B9
:102B6000264070BD0CED00E000E400E080E100E0F4
:102B700002490143024A1160704700000000FA0553
:102B80000CED00E070B5002418E004F1B000002165
:102B900000F099F90021084600F095F90021102075
:102BA00000F091F9002505E00121002000F08BF9EB
:102BB000681CC5B2802DF7DB601CC4B2082CE4DBB6
:102BC00070BD000010B54FF480710948FFF709FD92
:102BD0004FF400710648FFF704FD4FF400710448FC
:102BE000FFF7FDFC4FF480710148FFF7F8FC10BDC2
:102BF000000C014010B54FF480710748FFF7F1FC5D
:102C00004FF400710448FFF7EAFC4FF400710248EA
:102C1000FFF7E7FC10BD0000000C014010B54FF4B9
:102C200080710448FFF7DDFC4FF480710148FFF725
:102C3000D6FC10BD000C014008B50121092000F0B0
:102C40009BFB01214348FFF779FC4FF44070ADF83E
:102C5000000010208DF8030003208DF80200694663
:102C60003D48FFF7DFFB4FF440713B48FFF7B9FCED
:102C70004FF4487001F0F4FC0021AE2000F023F97D
:102C80000021084600F01FF90021102000F01BF978
:102C90000021402000F017F90021B02000F013F9C6
:102CA0000021812000F00FF90021FF2000F00BF936
:102CB0000021A12000F007F90021A62000F003F96F
:102CC0000021A82000F0FFF800213F2000F0FBF8D1
:102CD0000021C82000F0F7F80021D32000F0F3F81D
:102CE0000021084600F0EFF80021D52000F0EBF8B5
:102CF0000021802000F0E7F80021D82000F0E3F860
:102D00000021052000F0DFF80021D92000F0DBF8D9
:102D10000021F12000F0D7F80021DA2000F0D3F8EC
:102D20000021122000F0CFF80021DB2000F0CBF8CA
:102D30000021302000F0C7F800218D2000F0C3F8FA
:102D40000021142000F0BFF80021AF2000F0BBF8F4
:102D500008BD000000023000000C014070B50446C0
:102D60000D4605F1B000002100F0ADF8102141EA58
:102D70001410002100F0A7F804F00F00002100F06B
:102D8000A2F870BD2DE9F04180460E461546002799
:102D900031464046FFF7E2FF00240AE0124A02EB08
:102DA0008511085D012100F08EF8781CC7B2601C07
:102DB000C4B2102CF2DB701CC1B24046FFF7CEFF4C
:102DC00000240CE06900491C074A02EB4111085D30
:102DD000012100F078F8781CC7B2601CC4B2102C36
:102DE000F0DBBDE8F0810000280000202DE9F0476D
:102DF00007460E469046994600250024A8F120007B
:102E0000C5B27F2F02DD0027B01CC6B2B9F1100F8A
:102E100024D131463846FFF7A1FF002408E004EB37
:102E20000511194A505C012100F04DF8601CC4B234
:102E3000082CF4DB701CC1B23846FFF78FFF00246A
:102E400009E004EB051108310F4A505C012100F044
:102E50003AF8601CC4B2082CF3DB12E03146384665
:102E6000FFF77CFF00240AE005EB4501074A02EB6F
:102E70004101085D012100F026F8601CC4B2062C57
:102E8000F2DBBDE8F087000025870008FD8400081C
:102E90002DE9F04105460E4614461F460EE0227805
:102EA0003B4631462846FFF7A1FF05F10800C5B2B1
:102EB000782D02DD0025B01CC6B2641C20780028E5
:102EC000EDD1BDE8F08170B504460D461DB1E0B20C
:102ED00000F04AF802E0E0B200F030F870BD000007
:102EE0002DE9F04105462C464FF480711248FFF75A
:102EF00076FB00261CE0274607F08007802F04D1D0
:102F0000B9000D48FFF76DFB04E04FF400710A486B
:102F1000FFF765FB6006040E4FF480710648FFF76B
:102F200060FB4FF480710448FFF759FB701CC6B278
:102F3000082EE0DBBDE8F081000C014010B504462E
:102F4000FFF740FE7820FFF7CBFFFFF767FE00207A
:102F5000FFF7C6FFFFF762FE2046FFF7C1FFFFF74E
:102F60005DFEFFF747FE10BD10B50446FFF72AFED1
:102F70007820FFF7B5FFFFF751FE4020FFF7B0FFC5
:102F8000FFF74CFE2046FFF7ABFFFFF747FEFFF7CA
:102F900031FE10BD014908627047000000000E427A
:102FA00010B5142000F0D6FC044604F0030018B954
:102FB0000321142000F0D3FD10BDF0B587B0054605
:102FC000002708210846FEF7DDFD00210D2001F055
:102FD0005DF880210E20FEF7D5FD93208DF80800C6
:102FE00020208DF8090001A802AB022202A900905E
:102FF0000C2000F01BF80646262E10D1002407E016
:1030000002A8005D285502A8005D4740601CC4B2BC
:10301000042CF5DB02A8005DB84200D0BB2680215D
:103020000E2000F09CFD304607B0F0BD2DE9FE4FAC
:103030000646884691469A46DDF830B0BB2002909D
:103040000020019000900C2E06D00E2E09D11220E7
:1030500001901020009005E0772001903020009032
:1030600000E000BF00BF019840F08001022001F0A5
:103070000DF880210420FEF785FD0021012001F0DC
:1030800005F880210A2000F06AFD002505E018F807
:103090000510092000F0FAFF6D1C4D45F7D33146AD
:1030A000012000F0F3FF0C2E03D180210D2000F051
:1030B00056FD4FF47A7500BF042000F04BFC044627
:1030C0006D1E35B104F0010018B9009820400028A9
:1030D000F2D080210D20FEF755FD95B3062000F0BB
:1030E00039FC00F01B0068BB2620029001982040AC
:1030F00000F0010008B1CC2002900C2E24D10A204F
:1031000000F028FC04460C2000F024FC00F0070727
:103110002FB1601E07EBC000CBF8000002E0E0001A
:10312000CBF8000004B90124122C00DD1224002584
:1031300005E0092000F00EFC0AF805006D1CA54210
:10314000F7D301E0BB20029080210C2000F007FDA6
:103150000021012000F09AFF0298BDE8FE8F70B5B3
:1031600088B005460C4608210846FEF70BFD0721EE
:103170000D2000F08BFF0321142000F0F0FC8DF8EF
:103180000C5002A803AB012203A900900C20FFF70A
:103190004DFF0646262E09D10298102806D19DF82B
:1031A0000C0020709DF80D00607000E0BB263046DA
:1031B00008B070BD10B508211D48FFF712FA0120B4
:1031C00001F06EFA08211A48FFF709FA012001F010
:1031D00067FA08211648FFF704FA012001F060FAA7
:1031E0000F21012000F052FF00BF012000F0B2FBD0
:1031F00000F010000028F8D1012001F051FA3D2123
:10320000112000F043FF1E212D2000F03FFF002180
:103210002C2000F03BFF8D212A2000F037FF3E21BB
:103220002B2000F033FF4021152000F02FFF10BDB0
:10323000000C014010B513495220FFF790FF1249CE
:10324000087008460078262805D00E495220FFF75E
:1032500086FF0D4908700C480078262807D1BB204E
:10326000094908700948FFF7A8FE07490870064891
:103270000078262804D1BB2003490870034810BDFC
:103280000020FCE732020020380200203402002037
:1032900010B500F00BF808210348FFF7A2F98021D0
:1032A0000148FFF79EF910BD000C014008B501214F
:1032B000082000F061F88020ADF8000003208DF8B0
:1032C000020010208DF8030069462248FFF7AAF893
:1032D0000121082000F050F84020ADF80000032044
:1032E0008DF8020010208DF8030069461948FFF799
:1032F00099F80121082000F03FF82020ADF80000E7
:1033000003208DF8020010208DF803006946114853
:10331000FFF788F80121082000F02EF81020ADF802
:10332000000004208DF8030069460A48FFF77AF888
:103330000121082000F020F80820ADF8000003204B
:103340008DF8020010208DF8030069460148FFF750
:1033500069F808BD000C014029B1064AD269024350
:10336000044BDA6104E0034AD2698243014BDA611B
:10337000704700000010024029B1064A92690243DA
:10338000044B9A6104E0034A92698243014B9A61BB
:1033900070470000001002400149086070470000BB
:1033A0004004424230B500210022002400232D4D6C
:1033B0006D6805F00C0121B1042905D0082923D13D
:1033C00005E0294D056022E0274D05601FE0254DF1
:1033D0006D6805F47012234D6D6805F48034022584
:1033E00005EB92421CB9214D554305600BE01D4D84
:1033F0006D6805F400351DB11C4D5543056002E0B4
:10340000194D5543056002E0174D056000BF00BF30
:10341000144D6D6805F0F0010909154D6B5C0568E8
:10342000DD4045600F4D6D6805F4E061090A104DFF
:103430006B5C4568DD4085600A4D6D6805F4605140
:10344000C90A0B4D6B5C4568DD40C560054D6D6874
:1034500005F44041890B074D6B5CC568B5FBF3F57E
:10346000056130BD0010024000127A0000093D00E5
:10347000460200205602002010B50146002200231B
:1034800000204A11012A02D1094C236806E0022AD1
:1034900002D1074C236A01E0054C636A01F01F0268
:1034A000012494401C400CB1012000E0002010BD1C
:1034B0000010024000210B4A11700A4A203A82F89B
:1034C0002010012802D0042808D103E00121054A78
:1034D000117004E00521034A117000E000BF00BF35
:1034E000704700002010024001490860704700004A
:1034F0003C0442420249096A0143014A1162704791
:1035000000100240024909888143014A1180704736
:10351000042800400348008840F01000014908805A
:103520007047000004280040034800884FF6EF7100
:1035300008400149088070470428004070B5002603
:103540000024002500F07AF806463848B6FBF0F46F
:1035500037480088A0423CD035490C8040F2B27513
:1035600010E02846FFF77CF840B1B4F5B77F02D3EE
:10357000A4F5B77404E0681C85B206E0A4F26D14EB
:10358000681C85B2B4F5B67FEBD800BF29488580AA
:10359000002516E027498888FFF762F830B1012D31
:1035A00004D11D2C01D31D3C09E00CE02248405DF4
:1035B000A04203D82048405D241A00E003E0681CC4
:1035C00085B21C2CE6D200BF681C1A498871601CA9
:1035D000C8711648B6FBF0F100FB11644FF461604E
:1035E000B4FBF0F0134908704FF46160B4FBF0F1E4
:1035F00000FB11403C21B0FBF1F00E4948704FF444
:103600006160B4FBF0F100FB11403C21B0FBF1F232
:1036100001FB1200074988700B46DA79997998887E
:1036200000F028F803490872002070BD80510100A5
:103630003002002038030020778D00080021034865
:103640000188001F008841EA004070471C280040A4
:1036500001460020064A12880A40D0B2044A121FCE
:1036600012880A4012B108B1012000E00020704722
:1036700004280040F0B503460C461546642093FB31
:10368000F0F0C6B2642093FBF0F700FB1730C1B234
:10369000132E02DD01F16400C1B20846CF1701EB21
:1036A000977701EBA707BAB2072092FBF0F700FB70
:1036B000172082B25719601EDFF82CC01CF80000DA
:1036C000384482B2CF1701EB9777BF10A1EB870781
:1036D0001FB9032C01DA501E82B2072092FBF0F7CB
:1036E00000FB1720C0B2F0BD6B8D000810B50120A3
:1036F000FFF7AEFF08B1FFF721FF0220FFF7A8FF99
:1037000010B10220FFF7FEFE0520FFF7FBFE00F0E0
:1037100005F910BD29B1064A12880243044B1A80EC
:1037200004E0034A12888243014B1A80704700006C
:10373000002800401CB5002401214FF0C050FFF7C5
:103740000BFE0120FFF726FC0420FEF7FDF945F2F1
:10375000500188423FD0FEF7EFF90120FFF7AAFEA3
:1037600004E0601CC4B20A2000F07AFF4120FFF799
:1037700083FE0028F5D0FA2C01DB01201CBD4FF49C
:103780008070FFF7B7FE0120FFF7AEFE00F0C6F82D
:1037900000F0CEF801210846FFF7BCFF00F0BEF8AC
:1037A000FFF7B8FE47F6FF7000F0A8F800F0B6F893
:1037B000372000210A230222CDE900100C2140F21B
:1037C000D97000F027F8FFF7AFFE45F25001042052
:1037D000FEF7C8F907E000F0ABF801210846FFF753
:1037E00099FF00F09BF800F004F8FFF7A7FE002017
:1037F000C4E708B503208DF8000000208DF8010013
:103800008DF8020001208DF803006846FFF778F973
:1038100008BD00002DE9F05F06460F469046994628
:10382000DDE90AAB002440F2B270864203DB40F6C9
:103830003300864202DD0120BDE8F09F40F2B27500
:103840000AE02846FEF70CFF10B12148044401E0CD
:1038500020480444681C85B2B542F2DB781EC7B22A
:10386000002510E01C48405D40F2A321484304EBD2
:10387000C0143046FEF7F4FE18B1012D01D11748EF
:103880000444681C85B2BD42ECDBA8F1010040F2A3
:10389000A321484304EBC014C9EB4910C0EB092035
:1038A00004EB0014CAEB0A1004EB80045C44012111
:1038B0004FF0C050FFF750FD0120FFF76BFB204693
:1038C00000F00EF800F02AF8FFF738FE0020B3E70A
:1038D0000085E2018033E101778D0008805101000D
:1038E00000B50246FFF716FE100C03490880091DBB
:1038F0000A80FFF719FE00BD1828004000B50246F7
:10390000FFF708FEC2F3034003490880091D0A803F
:10391000FFF70AFE00BD00000828004000BF034872
:10392000008800F020000028F9D0704704280040EB
:10393000074800884FF6F77108400549088000BF26
:103940000348008800F008000028F9D07047000004
:103950000428004070B504467E2000EA440040F090
:10396000800580210748FEF73AFE284600F032F82D
:1039700000F00AF8064680210248FEF732FE304683
:1039800070BD0000000C014070B500251CE0600611
:10399000040E40210E48FEF722FE142000F080FEA7
:1039A00010210B48FEF712FE012801D144F001045A
:1039B000142000F075FE40210548FEF712FE142089
:1039C00000F06EFE681CC5B2082DE0DB204670BD1D
:1039D000000C014070B50446002520E004F0800092
:1039E00020B120210F48FEF7FCFD03E020210D4807
:1039F000FEF7F5FD142000F053FE40210948FEF7C4
:103A0000EEFD142000F04CFE40210648FEF7E9FDD3
:103A1000142000F045FE6006040E681CC5B2082D97
:103A2000DCDB70BD000C014030B503460C4615468A
:103A3000002207E0184600F008F824F812009B1C4A
:103A4000501C82B2AA42F5DB30BD0146088870479F
:103A50002DE9F05F80468A461746B8F1006F02D321
:103A60003348804501D3BDE8F09FFEF779F9A8F10E
:103A7000006B4FEADB25CBF34909C9F58064A74207
:103A800000DC3C464DE04FF0006101EBC5204A14DC
:103A90002849FFF7C9FF00260BE009EB060025497E
:103AA00031F810004FF6FF71884200D003E0701C1F
:103AB00086B2A642F1DB00BFA6421BDA4FF00061DE
:103AC00001EBC520FEF7E2F8002608E03AF8160000
:103AD00006EB0901174A22F81100701C86B2A642B3
:103AE000F4DB4FF0006101EBC5204A14114900F0EE
:103AF00023F804E022465146404600F01DF8A74254
:103B000000D10FE06D1C4FF000090AEB440AA044FD
:103B1000381B87B2B7F5806F02DD4FF4806400E098
:103B20003C46B0E700BFFEF7F1F800BF9BE700009E
:103B300000000408420300202DE9F04105460E462E
:103B40001746002407E036F814102846FEF7E8F878
:103B5000AD1C601C84B2BC42F5DBBDE8F08170B5E1
:103B600005460C462846FFF7F5FE064646EA0401E0
:103B7000284600F08BFA70BD10B500F001F810BDBA
:103B80000CB50020019000903348006840F480306C
:103B90003149086000BF3048006800F400300090F0
:103BA0000198401C0190009818B90198B0F5A06FD9
:103BB000F1D12948006800F4003010B101200090D4
:103BC00001E0002000900098012843D123480068BC
:103BD00040F01000214908600846006820F003000A
:103BE00008600846006840F0020008601A48406813
:103BF000194948600846406848600846406840F4F3
:103C0000806048600846406820F47C1048600846A0
:103C1000406840F4E81048600846006840F0807052
:103C2000086000BF0C48006800F000700028F9D060
:103C30000948406820F0030007494860084640688A
:103C400040F00200486000BF0348406800F00C00EC
:103C50000828F9D10CBD00000010024000200240ED
:103C6000042808D14FF0E021096941F004014FF028
:103C7000E022116107E04FF0E021096921F0040121
:103C80004FF0E0221161704710B504F00BF90128E4
:103C900001D003F08DFD10BD10B51348006840F051
:103CA00001001149086008464068104908400E4963
:103CB0004860084600680E4908400B4908600846FD
:103CC000006820F4802008600846406820F4FE0068
:103CD00048604FF41F008860FFF74EFF4FF0006010
:103CE0000449086010BD0000001002400000FFF809
:103CF000FFFFF6FE08ED00E000BF0549098801F06E
:103D000080018029F9D10249091D0880704700000F
:103D10000048004010B540F225511D4800F0EEF873
:103D200010B31B4800F0A6F9C4B21A48008800F48A
:103D30000040C8B91748008800F4804060B10A2CE0
:103D400003D000201349088020E01248008840F486
:103D500000401049088019E00D2C06D10D4800885C
:103D600040F480400B49088010E00A480088C0F306
:103D70000D0009490C5407480088401C054908807B
:103D800008460088C72801DD0020088010BD00001B
:103D90000038014044020020420B002010B540F2E0
:103DA0002551134800F0AAF8D8B1114800F062F983
:103DB000C4B21048007800F0800090B90D48007837
:103DC000142808DA0B4801780078401C094A107062
:103DD0000948445405E00748007840F08000054950
:103DE000087040F22551024800F060F810BD000054
:103DF00000440040680100202303002010B540F279
:103E00002551064800F07AF830B1044800F032F944
:103E1000C4B2204602F0F0FD10BD00000048004092
:103E200000B585B001210420FFF7A6FA012148045E
:103E3000FFF792FA18208DF813000420ADF8100057
:103E400003208DF8120004A91648FEF7EBFA0420AF
:103E50008DF813000820ADF8100004A91148FEF7F2
:103E6000E1FA4FF4614000900020ADF80C000C2006
:103E7000ADF80A000020ADF80800ADF80600ADF876
:103E800004006946084800F089F8012240F22551F3
:103E9000054800F05DF80121034800F016F805B070
:103EA00000BD0000000801400044004010B50022A1
:103EB000002340F66A14A14200D100BF0A12012477
:103EC0009440A3B2DC43048010BD21B1828942F446
:103ED0000052828104E082894DF6FF731A4082818C
:103EE000704702460020B1F5007F00D100BF138863
:103EF0000B400BB1012000E00020704770B5024676
:103F0000002400230025002040F66A16B14200D1AB
:103F100000BFC1F3421501F01F03012606FA03F3A7
:103F2000012D02D19689334006E0022D02D1168A76
:103F3000334001E0968A33400C12012606FA04F45D
:103F40001688344013B10CB1012000E0002070BD90
:103F5000F0B50346002400260025002040F66A172D
:103F6000B94200D100BF1846C1F3421401F01F0648
:103F7000012707FA06F5012C01D10C3004E0022CD0
:103F800001D1103000E014301AB107682F430760E8
:103F900002E00768AF430760F0BD00002DE9F0477D
:103FA00086B005460E460024A24600BFA146002763
:103FB000B08900B100BF2F462C8A4CF6FF70044038
:103FC000F08804432C82AC894EF6F3100440B0888C
:103FD00031890843718908430443AC81AC8A4FF6A8
:103FE000FF400440B0890443AC8201A8FFF7DAF92E
:103FF0001F48874202D1DDF810A001E0DDF80CA0D7
:10400000A88900F4004040B10AEBCA0000EB0A1096
:1040100031684900B0FBF1F807E00AEBCA0000EB99
:104020000A1031688900B0FBF1F86420B8FBF0F0A9
:1040300004012009642101FB1089A88900F40040D3
:1040400040B1322000EBC900B0FBF1F000F00700F6
:10405000044308E0322000EB09106421B0FBF1F0CA
:1040600000F00F0004432C8106B0BDE8F08700008B
:104070000038014001468888C0F308007047C1F34A
:1040800008028280704700BFFEE7000070B504465A
:104090000D467E2000EA440680210748FEF79FFA7D
:1040A0003046FFF797FC2846FFF794FC8021024832
:1040B000FEF797FA70BD0000000C0140490050EA7D
:1040C000C12018BF04204A0D18BF40F0010040F283
:1040D000FF72B2EB515F08BF40F00200012808BF39
:1040E0000520704730380A2801D20120704700208F
:1040F000704700BF704710B50446012C04D0022C55
:1041000005D0032C09D105E000F090FE06E000F098
:10411000C5FD03E000F0BAFB00E000BF00BF10BD2A
:10412000704700007FB5044600265C210DA0FCF717
:1041300073FA28B15C210BA0FCF76EFA401C00E07A
:1041400008A00546E078A17862782378CDE90032AE
:10415000CDE902100AA3134A2721284601F056FA96
:104160007FBD00002E2E5C48415244574152455CB1
:1041700052433532325C72633532322E63000000B6
:10418000636172642069642069733D3D3D3D3D205B
:104190002530327825303278253032782530327823
:1041A0000D0A0000838D00082DE9F0410646002429
:1041B0000025002700BF2DE000240CE005EB4500A2
:1041C00000EBC50020490844C01D005D315D8842F8
:1041D00000D17F1C641C042CF0DB042F18D15C215F
:1041E0001AA0FCF719FA28B15C2118A0FCF714FA00
:1041F000401C00E015A0804616A31A4ADC2101F0FD
:1042000005FA3046FFF78EFF01F0DCFBBDE8F081D8
:1042100000276D1C052DCFDB5C210CA0FCF7FCF901
:1042200028B15C2109A0FCF7F7F9401C00E007A0C9
:1042300080460DA30B4AE32101F0E8F93046FFF771
:1042400071FF00BFE2E70000EC0200206D61696EC3
:104250002E6300006F70656E20646F6F722062794C
:1042600000000000808400086E6F2074686973206D
:1042700063617264000000002DE9FC5F04464FF0AA
:10428000000A7D49E01C11F800B0BBF10F0F7DD290
:10429000DFE80BF0080B0E111B1F23ED44ED4791D7
:1042A000EDEDE10000F0E0FCE2E001F09BFBDFE07F
:1042B00000F086FCDCE07049A01D085C6F490870C6
:1042C0000021032003F0F4F9D2E001206C490870CA
:1042D000CEE001206B490870CAE06749601D095CA7
:1042E000654A201D105C41EA0028002713E0A01D4C
:1042F0003844801C6049085C0502A01D3844C01C7D
:10430000085C05442144891DC81900F0C5F806461B
:10431000281D384487B24745E9DBA9E0FFF700FFD5
:10432000A6E04FF00009B9F1000F04D14FF48070FE
:10433000554908800EE0B9F1010F04D14FF4007027
:104340005149088006E0B9F1020F03D14FF48060B3
:104350004D4908804849A01D085C4C490860084642
:104360000068000208604449E01D085C474909688C
:1043700008434649086008460068000208603E4954
:1043800004F10800085C4149096800E06FE0084357
:104390003E4908600846006800020860364904F19A
:1043A0000900085C394909680843384908600A204F
:1043B000374908705CE0364800780A284AD1012065
:1043C000344908702C49601D095C2B4A201D105C83
:1043D00041EA00281146A01D0D5C2D02E01D085C7D
:1043E00005432D0204F10800085C05432D0204F189
:1043F0000900085C05438A4604F10A008244B8F1CA
:10440000040F0DD121480068854209D100222946B8
:10441000504601F06BFA064600201D49087010E076
:10442000A8F1040018490988884206DC82B22946AE
:10443000504601F05BFA064603E00020144908707C
:104440000026012E03D100210B2003F031F90020BA
:10445000104908700CE00849A01D085C0190E01D9F
:10446000085C0090DDE9001003F08EF800E000BF6A
:1044700000BFBDE8FC9F000020380020DF020020C4
:10448000DD020020DE020020E2020020E402002023
:10449000E8020020DC0200202DE9F04704462678DF
:1044A00094F80180A0784FF6FF7101EA0025E078CA
:1044B000284485B2304600F06BFB0746084800EB05
:1044C00047004078404502D00020BDE8F0872A46EA
:1044D000211D304600F008F981464846F5E7000006
:1044E000918D000870B505460024012D04D0022DE1
:1044F0002AD0032D68D150E000240FE004EB4401E2
:1045000001EBC401324A88180722002101F03AFA6F
:1045100037222F492F48FFF79BFA641C052CEDDB4F
:104520005C212DA0FCF778F828B15C212AA0FCF7CB
:1045300073F8401C00E028A0064629A32A4A40F24E
:10454000851101F063F840E0002410E004EB440121
:1045500001EBC4011E4A1144C81D0422002101F0D0
:1045600011FA37221A491B48FFF772FA641C052C0E
:10457000ECDB5C2118A0FCF74FF828B15C2116A0F9
:10458000FCF74AF8401C00E013A0064617A3164AA1
:1045900040F28D1101F03AF817E00520FDF788FC94
:1045A0005C210DA0FCF738F828B15C210AA0FCF7CB
:1045B00033F8401C00E008A006460FA30A4A40F268
:1045C000911101F023F800E000BF00BF70BD0000B2
:1045D000EC02002000F000086D61696E2E6300009F
:1045E00064656C206B657900B484000864656C2098
:1045F000636172640000000064656C2066696E6728
:104600006572000010B50420FFF72AFB104800680F
:104610001049B0FBF1F0104908700D4800680D49D1
:10462000B0FBF1F44FF47A70444301200B49088049
:104630004FF0E020006940F002004FF0E0210861F7
:1046400008464461006940F00100086110BD0000A7
:104650001400002040420F003A0200203C020020DB
:1046600070B5044603F01EFC012810D00B480088EA
:10467000844206D309480088B4FBF0F5284602F0CE
:104680001FFD06480088B4FBF0F100FB11444FF415
:104690007A7104FB01F000F003F870BD3C020020C9
:1046A00070B5034600224FF0E02675690D4E36784E
:1046B00003FB06F44FF0E026B16910E04FF0E0266E
:1046C000B06988420BD0884202D20E1A324402E00E
:1046D0002E1A0E4432440146A24200D300E0EDE718
:1046E00000BF70BD3A0200202DE9F04105460E469C
:1046F0001746322D04D0372D08D0D42D12D10BE01F
:104700003946304600F080F804460CE03946304621
:1047100000F01CF8044606E03946304600F007F881
:10472000044600E000BF00BF2046BDE8F08170B540
:1047300004460D462A462146D42001F09DF806463F
:10474000012E00D170BD0020FCE700002DE9F041F2
:1047500006460F463946304601F0CBF8054695B976
:104760005C211CA0FBF758FF28B15C2119A0FBF7C6
:1047700053FF401C00E017A080461CA31D4AD32114
:1047800000F044FF1BE05C2112A0FBF745FF28B1BD
:104790005C2110A0FBF740FF401C00E00DA080460C
:1047A00015A3144AD52100F031FF012014490860F7
:1047B000C82002F085FC00201249C1F8800129467A
:1047C000372001F027F80446012C01D1BDE8F08123
:1047D0000020FBE72E2E5C6D63755F73646B5C706D
:1047E000726F746F636F6C2E630000003D3D3D314E
:1047F00032330A00C78D00083D3D3D3435360A008E
:1048000080812142008021422DE9F04105460E467B
:104810005C2113A0FBF700FF28B15C2110A0FBF77F
:10482000FBFE401C00E00EA0074613A3144AAC2177
:1048300000F0ECFE012013490860C82002F040FCA3
:1048400000201149C1F8800132462946322001F08A
:1048500013F80446012C01D1BDE8F0810020FBE7EC
:104860002E2E5C6D63755F73646B5C70726F746F1A
:10487000636F6C2E6300000031323333323100003D
:10488000A38D000880812142008021427CB5FF2059
:1048900001904FF4FA745C213EA0FBF7BDFE28B1F5
:1048A0005C213CA0FBF7B8FE401C00E039A00546A7
:1048B0003AA3424A40F2471100F0A8FE01204049C5
:1048C00008705C2133A0FBF7A7FE28B15C2131A062
:1048D000FBF7A2FE401C00E02EA0054639A3374A94
:1048E00040F24B1100F092FEFEF74CF910233BA270
:1048F00004210020FEF7CCFA2FE001A8FDF7CEFE40
:104900009DF804000A2803D100202D4908707CBDC1
:104910009DF90400401CE0B15C211EA0FBF77CFE69
:1049200028B15C211BA0FBF777FE401C00E019A01A
:1049300005469DF904002EA3204A4FF4AD71009066
:10494000284600F063FE9DF9041088B2FDF728FAAE
:1049500005E00A2002F0B4FB641E002CCDDC00BF91
:1049600094B95C210BA0FBF757FE28B15C2109A08C
:10497000FBF752FE401C00E006A0054622A30F4AAA
:1049800040F2631100F042FE00200D49087000BFA4
:10499000BDE700006D61696E2E630000A1AAA1AAA7
:1049A000A1AAA1AAD7A2B2E1D6B8CEC6C4A3CABD55
:1049B000A1AAA1AAA1AAA1AA00000000A984000896
:1049C000100000203E3E3EC7EBCFC8CAE4C8EBD67D
:1049D000B8CEC649443C3C3C00000000696E70758E
:1049E000742066696E6765722076616C756500007B
:1049F0003E3E3ECAE4C8EBB5C4D6B8CEC64944A3D1
:104A0000BA25643C3C3C00003E3E3EB3ACCAB1CD4E
:104A1000CBB3F63C3C3C000038B5002400BF0BE0B3
:104A200004EB440000EBC400254908440021016068
:104A3000416001818172641C052CF1DB3722204921
:104A40002048FEF7F1FF002436E004EB440101EBBF
:104A5000C4011B4A8818FBF7EAFDC8B15C211AA003
:104A6000FBF7DAFD28B15C2117A0FBF7D5FD401C50
:104A700000E015A0054604EB440000EBC40010491B
:104A8000084413A3144A43210090284600F0BEFDB9
:104A900004EB440101EBC401094A1144C81DFBF7B2
:104AA000C6FD40B104EB440101EBC401044A1144CA
:104AB000C81DFFF737FB641C052CC6DB38BD0000A2
:104AC000EC02002000F000086D61696E2E630000AA
:104AD0003D3D3D25730A00005084000870B5002458
:104AE00000BF0BE004EB440000EBC4001049084495
:104AF00000210160416001818172641C052CF1DBA1
:104B000037220B490B48FEF7A3FF5C210AA0FBF7F5
:104B100083FD28B15C2108A0FBF77EFD401C00E06E
:104B200005A0054606A30B4A542100F06FFD70BD99
:104B3000EC02002000F000086D61696E2E63000039
:104B4000666C617368207265736574207375636346
:104B5000657373005B84000800BF054A128802F089
:104B60004002002AF9D0C2B2014B1B1D1A807047C7
:104B70000038014030B502460020002305E012F85D
:104B8000015B2C18E0B25C1CA3B28B42F7DB30BD9A
:104B900070B5054600F012F80646002407E0064806
:104BA00010F81400A84200D103E0601CC4B2B44263
:104BB000F5DB00BF204670BD918D000809207047CD
:104BC00010B500242146022002F072FD10BD000045
:104BD00000200649086001200549C1F8B4010349D5
:104BE000083108600249C1F8BC017047B081214218
:104BF0000080214201200749086000200649C1F8D1
:104C0000B40101200349083108600349C1F8BC011F
:104C100070470000B08121420080214201200749F5
:104C200008600749C1F8B401002004490831086050
:104C300001200349C1F8BC0170470000B081214246
:104C4000008021420120064908600649C1F8B401EC
:104C500003490831086000200249C1F8BC017047CF
:104C6000B08121420080214210B500240A4800781A
:104C700040B90021204601F07FFDC4B20120064961
:104C8000087004E00121204601F076FDC4B22146FF
:104C9000002002F00DFD10BDE0020020F0B585B04F
:104CA0000024002004904FF4FA750026FDF76AFFF7
:104CB000102349A204210020FEF7EAF80120494907
:104CC00008706DE004A8FDF7E9FC9DF810000A28C3
:104CD00004D100204349087005B0F0BDFEF7AAFAE0
:104CE0000646002E58D0002454E004EB440101EBAA
:104CF000C4013D4A1144C81DFBF799FC002848D166
:104D000004EB440101EBC401374A1144C81D0422DD
:104D1000314600F015FE5C2134A0FBF77DFC28B184
:104D20005C2132A0FBF778FC401C00E02FA0074676
:104D300004EB440000EBC4002B490844807A04EBE8
:104D4000440101EBC401284A1144497A04EB4402AE
:104D500002EBC402244B1A44127A04EB440303EB23
:104D6000C403DFF884C06344DB79CDE90032CDE9C8
:104D7000021020A3274A4FF49971384600F046FCF0
:104D8000372219492448FEF763FE002015490870B0
:104D9000A2E7641C052CA8DB0A2002F091F96D1E25
:104DA000002D8FDC95B95C2110A0FBF735FC28B1F4
:104DB0005C210EA0FBF730FC401C00E00BA0074676
:104DC00016A3144A4FF49F7100F020FC00200549FF
:104DD000087000BF80E70000696E70757420636121
:104DE0007264000011000020EC0200206D61696E09
:104DF0002E63000061646420636172642069642032
:104E000025303278253032782530327825303278A6
:104E10000D0A00009E84000800F000083E3E3EB3EC
:104E2000ACCAB1CDCBB3F63C3C3C00002DE9F04719
:104E300086B00024A246002004900590FF20039035
:104E400000254FF47A765C2181A0FBF7E5FB28B1C1
:104E50005C217FA0FBF7E0FB401C00E07CA0074644
:104E60007DA3824AEE2100F0D1FBD8E003A8FDF734
:104E700015FC9DF80C000A2802D106B0BDE8F087A9
:104E80009DF90C00401C00283BD09DF80C003030F0
:104E900004A948555C216EA0FBF7BEFB28B15C213C
:104EA0006BA0FBF7B9FB401C00E069A0074604A813
:104EB000405D6FA36D4AF9210090384600F0A6FBD3
:104EC000FDF760FE05EB85014906080E10236BA275
:104ED0000221FDF7DDFF6D1C5C215DA0FBF79CFB53
:104EE00028B15C215AA0FBF797FB401C00E058A0BA
:104EF000074663A35D4AFD21009500F087FBFF2074
:104F00000390062D6FD100246FE004EB440101EB08
:104F1000C4015E4A8818FBF78AFB002864D104EBC1
:104F2000440101EBC401594A881804AB58A2072177
:104F3000FBF72CFA04EB440101EBC401534A881837
:104F4000FBF775FB074604A8FBF771FB80465C2165
:104F50003FA0FBF761FB28B15C213DA0FBF75CFBA8
:104F6000401C00E03AA081464AA3404A40F20711A3
:104F7000CDE9008700F04AFB5C2135A0FBF74CFB34
:104F800028B15C2132A0FBF747FB401C00E030A0B9
:104F9000074604A845A3354A4FF48471009038466B
:104FA00000F034FB5C212AA0FBF736FB28B15C2122
:104FB00027A0FBF731FB401C00E025A0074604EBCF
:104FC000440000EBC4003149084438A3274A40F2AA
:104FD00009110090384600F019FB37222B49384858
:104FE000FEF736FD49E716E0641C052C8DDB5C21DD
:104FF00017A0FBF711FB28B15C2115A0FBF70CFBF8
:10500000401C00E012A007462EA3184A4FF48771F7
:1050100000F0FCFA31E70A2002F052F8761E002E6A
:105020003FF724AF96B95C2109A0FBF7F5FA28B148
:105030005C2107A0FBF7F0FA401C00E004A0074643
:1050400024A30A4A4FF48B7100F0E0FA00BF14E782
:105050006D61696E2E630000616464206B65792068
:1050600070617373776F7264000000008D840008B4
:1050700076616C7565202563000000002A00000041
:10508000636F756E7420256400000000EC02002040
:1050900025730000736574206B65792073756363F5
:1050A00065737320256420256400000073657420F7
:1050B0006B657920737563636573732025730000D6
:1050C00000F000086B657920627566206E756C6C67
:1050D0000000000074696D65206F757400000000A9
:1050E000F8B504460F2C62D2DFE804F097626364DF
:1050F00065666768696A979779088800FDF742FDD9
:10510000102347A200210846FDF7C2FE204600F00A
:1051100021F900284BD1FFF7E1FC00F0F3FB002060
:1051200042490860642001F0CBFF01204049C1F8EA
:105130008401642001F0C4FF00203C490860642021
:1051400001F0BEFF01203A49C1F88401002000F0BF
:10515000E5FB5C2137A0FBF75FFA28B15C2135A0A5
:10516000FBF75AFA401C00E032A0054633480078AD
:1051700033A33A4A40F223210090284600F046FA31
:1051800000F0BAFB05465C212AA0FBF745FA28B1DE
:105190005C2128A0FBF740FA401C00E025A0064651
:1051A0002FA32E4A4FF40971009500F02FFA34E036
:1051B00000BF00BF00BF00BF00BF00BF00BF00BFF7
:1051C000FDF7E0FC102328A200210846FDF760FE51
:1051D000204600F0BFF808B900F0F4FB1DE0FDF731
:1051E000D1FC102323A200210846FDF751FE2046E2
:1051F00000F0B0F808B901F085FC0EE0FDF7C2FC44
:1052000010231FA200210846FDF742FE204600F0B1
:10521000A1F808B901F006FD00BF00BFF8BD00000D
:10522000636F6E66696720776966690084812142D1
:10523000008021426D61696E2E630000DE02002055
:10524000B0B4BCFCC5E4CDF820534D4152545F438B
:105250004F4E4649472025640D0A0000E8840008A7
:10526000253032780A0000006F70656E20646F6F21
:1052700072000000616464207573657200000000B4
:1052800064656C20757365720000000086B0FF20B5
:1052900005905C2123A0FBF7BFF928B15C2121A078
:1052A000FBF7BAF9401C00E01EA004461FA3234AE6
:1052B0004FF4157100F0AAF933E005A8FDF7EEF9F7
:1052C0001F480078002829D19DF91400401C28B3FC
:1052D00014216846FBF717FA9DF9143019A214211E
:1052E0006846FBF753F85C210EA0FBF795F928B14F
:1052F0005C210CA0FBF790F9401C00E009A00446DB
:105300006B460E4A40F25D2100F080F99DF91400D1
:10531000FFF7E6FEFDF736FC01F036FA0A2001F051
:10532000CFFECAE76D61696E2E6300006B65792060
:105330007461736B2073746172740000F4840008EC
:10534000100000206B6579206973202564202020DF
:10535000200000002DE9FF5F06460025AB46002037
:1053600002900390FF20019000244FF47A775C2193
:105370006CA0FBF751F928B15C216AA0FBF74CF94E
:10538000401C00E067A0804668A36D4A4FF4EF71AF
:1053900000F03CF9092E0BDA06F13000C0B28DF8AE
:1053A0000800641C102367A202212020FDF770FD75
:1053B0009DE001A8FDF772F99DF804000A2803D1C9
:1053C000404604B0BDE8F09F9DF90400401C002851
:1053D0003AD09DF80400303002A908555C2151A054
:1053E000FBF71AF928B15C214EA0FBF715F9401C18
:1053F00000E04CA0814602A8005D53A3504A40F251
:10540000F1110090484600F001F95C2145A0FBF73E
:1054100003F928B15C2143A0FBF7FEF8401C00E033
:1054200040A081464BA3464A4FF4F971009400F026
:10543000EDF804EB840149002031C8B2102341A2E9
:105440000221FDF725FD641C062C4CD1002530E01F
:1054500005EB450101EBC501414A8818FBF7E7F868
:1054600030B305EB450101EBC5013D4A881802A99F
:10547000FBF770F9E0B95C212AA0FBF7CDF828B161
:105480005C2128A0FBF7C8F8401C00E025A081465D
:1054900005EB450000EBC5003149084431A3284A1B
:1054A0004FF4FF710090484600F0B0F8002088E704
:1054B0006D1C052DCCDB5C211AA0FBF7ADF828B1E3
:1054C0005C2118A0FBF7A8F8401C00E015A081465D
:1054D00002A828A31A4A40F203210090484600F08F
:1054E00095F848466DE70A2001F0EAFD7F1E002F7F
:1054F0003FF75FAF97B95C210AA0FBF78DF828B1A1
:105500005C2108A0FBF788F8401C00E005A082465B
:105510001CA30B4A40F20B2100F078F84FF0FF304B
:105520004FE700006D61696E2E6300006F70656E5D
:10553000206B65792070617373776F72640000006F
:10554000CF8400082A00000076616C756520256311
:1055500000000000636F756E742025640000000079
:10556000EC0200206F70656E207375636365737362
:10557000202573006F70656E206661696C6564201C
:105580002573000074696D65206F7574000000005C
:1055900000245C2113A0FBF73FF828B15C2111A087
:1055A000FBF73AF8401C00E00EA005460FA3144A92
:1055B000A82100F02BF814E01248007820B9FCF77D
:1055C00079FE08B900F0FEF9322001F079FD0E48AD
:1055D000007830B9FDF72EFE044614B12046FEF7E0
:1055E000E3FDE9E76D61696E2E6300006C65642080
:1055F0007461736B2073746172740D0A0000000093
:105600006C84000810000020110000200FB4F0B5D9
:10561000C3B004460D4616464FF4807102A8FBF74E
:1056200072F84CA8429002A8429A4B99FAF790FE61
:1056300007460D4880780C494978CDE900100A48A2
:105640000378C279817909A0FAF794FE02A833465B
:105650002A46214600900AA0FAF78CFE00204290CC
:1056600043B0F0BC5DF814FB380300205B25642FC9
:1056700025642D25643A25643A25645D0000000008
:105680005B25735D5B25645D5B25735D3A25730D5A
:105690000A0000001CB54FF44070FDF769FAFEF7F0
:1056A000B1FF4FF4E13001F057F9FDF78FF9FDF745
:1056B000B9F9FDF7C1FAFDF765FAFFF7ADF9FDF7A6
:1056C000E7FDFDF777FD4120FDF7CAF94FF4E13022
:1056D00001F0C4F901F042FF27E05C2134A0FAF7A1
:1056E0009BFF28B15C2132A0FAF796FF401C00E036
:1056F0002FA0044630A3344A6F21FFF787FF4FF4F1
:105700004870FEF7ADFF5C2129A0FAF785FF28B1AC
:105710005C2127A0FAF780FF401C00E024A004468B
:105720002AA3294A7121FFF771FFFEF703F8002829
:10573000D3D1FCF77FFD40F253710420FCF764FFE6
:105740005C211BA0FAF768FF28B15C2118A0FAF7CA
:1057500063FF401C00E016A0044620A31A4A7521EE
:10576000FFF754FF0020214908602149C1F880015A
:1057700020490860C820FEF773FF01201C49C1F8CA
:10578000840101F001F800201B4908701B490870D2
:105790001B48012100234FF49062CDE9001019A1AC
:1057A0001B4802F04FFB01F027FE00201CBD00004B
:1057B0006D61696E2E630000525443204552524F72
:1057C000522120202000000067840008525443200A
:1057D000547279696E672E2E2E000000696E69740E
:1057E00020737563636573730A000000B40122427D
:1057F00000802142848121421100002010000020FD
:105800000000002073746172745F7461736B000038
:10581000C167000870B504460D460026154800789B
:10582000012800D170BD2146304600F0A5FF064694
:105830000121304600F0A0FF06460021304600F06E
:105840009BFF06460121304600F096FF06462DB923
:105850000021304600F090FF064604E0012130466A
:1058600000F08AFF06463146072001F021FF0120A3
:10587000D8E70000DC0200202DE9F041064688460A
:105880001446002718480078012801D1BDE8F081AE
:105890003146384600F070FF07460021384600F0D8
:1058A0006BFF07462546E01704EB1060C0F30721A5
:1058B000384600F061FF0746E01704EB1060001265
:1058C000A4EB0020C1B2384600F056FF074622463E
:1058D0004146384600F03CFF07463946072001F0B4
:1058E000E7FE0120D2E70000DC0200200346012091
:1058F00070470246107870470148007870470000F2
:10590000DF02002010B500200349087000210420A8
:1059100001F0CEFE10BD0000DD02002070B504468F
:1059200000250020054908702146284600F024FF84
:10593000C5B22946052001F0BBFE70BDDE02002085
:10594000F0B505460E4613462A46344605B10EB953
:105950000020F0BDA24202D9E018904208D20021F6
:1059600003E0605C5054481C81B29942F9DB07E0C7
:10597000194603E0481E275C175481B20029F9DC60
:105980002846E6E730B503460C4619460BB9002019
:1059900030BD01E001F8014B101EA2F10105AAB2D1
:1059A000F8D11846F4E70146002209B900207047F3
:1059B000002200E0521C11F8013B002BFAD11046E6
:1059C000F5E7000010B5012004490860C82001F087
:1059D00077FB00200249C1F8800110BD808121427F
:1059E000008021423EB500240020009001900290EA
:1059F00025A0FFF7D8FF85B22A4623A1204600F054
:105A0000A7FEC4B222A0FFF7CEFF85B22A4620A18E
:105A1000204600F09DFEC4B222A0FFF7C4FF85B26D
:105A20002A4620A1204600F093FEC4B21FA0FFF733
:105A3000BAFF85B22A461DA1204600F089FEC4B2F5
:105A40001CA0FFF7B0FF85B22A461AA1204600F03D
:105A50007FFEC4B219A0FFF7A6FF85B22A4617A1A0
:105A6000204600F075FEC4B215A0FFF79CFF85B27A
:105A70002A4613A1204600F06BFEC4B22146012045
:105A800001F016FE3EBD00007B2270223A2200008B
:105A9000656B6C7064666C616965756F636E75319A
:105AA00000000000222C2276223A2200312E302ED5
:105AB00030000000222C226D223A0000320000004B
:105AC0007D0000002DE9F04105460E461C480768A0
:105AD0001C480068001D01F035F950B919480068EC
