:020000040800F2
:10000000303F00200D030008E92900088B25000877
:10001000E5290008AD1B0008E73A000800000000D1
:100020000000000000000000000000007502000851
:10003000B11B000800000000B9020008E936000802
:1000400027030008270300082703000839320008A7
:100050002703000827030008B51B00082703000832
:1000600027030008270300082703000827030008C8
:1000700027030008270300082703000827030008B8
:1000800027030008270300082703000827030008A8
:100090002703000827030008270300082703000898
:1000A0002703000827030008270300082703000888
:1000B0002703000827030008270300082703000878
:1000C0002703000827030008270300082703000868
:1000D0002703000875370008FD3700085D38000861
:1000E00027030008270300082703000800F002F890
:1000F00000F0B0F80AA090E8000C82448344AAF112
:100100000107DA4501D100F0A5F8AFF2090EBAE80F
:100110000F0013F0010F18BFFB1A43F0010318473B
:100120002C8000004C8000000A444FF0000C10F8B6
:10013000013B13F0070408BF10F8014B1D1108BF65
:1001400010F8015B641E05D010F8016B641E01F805
:10015000016BF9D113F0080F1EBF10F8014BAD1C55
:100160000C1B09D16D1E58BF01F801CBFAD505E073
:1001700014F8016B01F8016B6D1EF9D59142D6D3CD
:10018000704700000023002400250026103A28BFF5
:1001900078C1FBD8520728BF30C148BF0B607047F9
:1001A0006E2900F0C383702900F03585662907F0B9
:1001B000D782652907F0D482672907F0D1826129A7
:1001C000AFF3008003681B0A28BF41F08001692952
:1001D00000F03881642900F03581752900F0328102
:1001E0006F2900F0C284782900F00185E92900F028
:1001F0005D84E42900F05A84F52900F05784EF2942
:1002000000F0BF84F82900F000850368DB0928BFEF
:1002100041F08001632900F0CC83732900F0D18381
:10022000E32900F0B587F32900F0BA870020704772
:100230001FB501F00BF804000020002107F07AFA46
:10024000401C60600020002107F05EFAE0601FBDE6
:1002500010B510BD00F0CCFF1146FFF7E9FF04F028
:10026000FBFB01F0A9F803B4FFF7F2FF03BC03F0B6
:1002700057FC0000224B19680868B0E8F00F80F3C3
:100280000988BFF36F8F4FF0000080F311884EF0A4
:100290000D0E70470000000006480068006880F3FB
:1002A000088862B661B6BFF34F8FBFF36F8F00DF70
:1002B00000BF00BF08ED00E0EFF30980BFF36F8FD0
:1002C0000F4B1A6820E9F00F106008B54FF050008E
:1002D00080F31188BFF34F8FBFF36F8F06F076FA6C
:1002E0004FF0000080F31188BDE8084019680868E5
:1002F000B0E8F00F80F30988BFF36F8F704700BF3D
:1003000014010020EFF30580704700000948804782
:1003100009480047FEE7FEE7FEE7FEE7FEE7FEE7E7
:10032000FEE7FEE7FEE7FEE704480549054A064BFF
:1003300070470000F9360008ED0000083039002051
:10034000303F0020303B0020303B00207047000051
:100350001CB50C46064B7B4469460090204600F0D5
:10036000FEFA04460020694600F00CFB20461CBD46
:100370002B0600000FB4044910B503AA029800F040
:1003800025FB10BC5DF814FBF80000200FB41CB571
:10039000084B06AA7B4469460090059800F0DFFAF6
:1003A00004460020694600F0EDFA20461CBC5DF8CA
:1003B00014FB0000ED0500000FB47CB50C0009AA89
:1003C000009001D02044401E084B7B4469460190B8
:1003D000089800F0C4FA05461CB10020694600F0F8
:1003E000D1FA28467CBC5DF814FB0000C105000072
:1003F00070B50C460546012A05D02878800600D540
:10040000EA69002302E0012305E05B1C934202D26B
:10041000E05C0028F9D1A869E618C01AA861286A2A
:1004200018442862284600F0EFF904E0D5E90121DC
:1004300014F8010B9047B442F8D3284600F0FAF9BB
:1004400070BD00002DE9F0410646002410687529B2
:10045000314616A510D000F0FEF9002802DA40421D
:1004600013A507E031688A0701D512A502E0490704
:1004700004D511A5012401E000F0F6F900210A22BB
:1004800006F1240709E0B0FBF2FCB0FBF2F302FB3B
:100490001C00303078541846491C0028F3D12346FC
:1004A0002A463046BDE8F04100F0E7B90000000000
:1004B0002D0000002B000000200000002DE9F05F5F
:1004C000894604464FF0000ADFF874B1FB44C0F8D7
:1004D00020A02046E1688847002874D0252806D04F
:1004E000D4E901219047206A401C2062F1E70026F0
:1004F0005F462046E16888472028054607DB312D06
:1005000005D2781910F8200C08B10643F1E7B007BE
:1005100001D526F00406C4F81CA00027C4F818A0D2
:100520002A2D09D0284603F0F4FA38B304EB8708E3
:10053000303DC8F8185019E059F8041B204604EB68
:1005400087029161E1688847012F054618D1E0696B
:10055000002820DA26F020061DE0D8F8180000EB6D
:10056000800005EB40003038C8F818002046E168EC
:100570008847054603F0CDFA0028EED1012F0AD0B6
:100580002E2D08D12046E16888477F1C0546022FA2
:1005900046F02006C4DBA069002803DA404246F09A
:1005A0000106A061F00701D026F010066C2D0BD0DB
:1005B000682D09D04C2D39D06A2D35D0742D35D009
:1005C0007A2D33D016E038E0E1682F462046884780
:1005D000B842054609D16C2F26D04FF48060E168FF
:1005E000064320468847054604E06C2F1AD04FF496
:1005F000807006430DB3A5F14100192802D82035BB
:1006000046F400664A462946204626604E46FFF7D5
:10061000C7FD80B101280BD0F61D26F0070000F1C0
:10062000080956E74020E4E78020D8E70020D6E715
:1006300006F104094DE7284652E7206ABDE8F09F1D
:10064000A47B00000022CBB210F8011B994200D11C
:10065000421E0029F8D11046704710B5431C02E035
:1006600010F8011B71B18107FAD14FF0013202C8B5
:100670008C1A8C4314EAC211F9D0C01A0A0603D0AE
:10068000C01E10BDC01A10BD0A0401D0801E10BDCE
:100690000902FCD0401E10BD032A40F2308010F049
:1006A000030C00F0158011F8013BBCF1020F62440D
:1006B00098BF11F801CB00F8013B38BF11F8013B9E
:1006C000A2F1040298BF00F801CB38BF00F8013B4B
:1006D00011F0030300F0AA82083AC0F0088051F834
:1006E000043B083A51F804CBA0E80810F5E7121DC6
:1006F0005CBF51F8043B40F8043BAFF30080D207E5
:1007000024BF11F8013B11F801CB48BF11F8012BB0
:1007100024BF00F8013B00F801CB48BF00F8012BD3
:10072000704702F0FF0343EA032242EA024200F06C
:10073000B1BA4FF0000200B51346944696462039F0
:1007400022BFA0E80C50A0E80C50B1F12001BFF48A
:10075000F7AF090728BFA0E80C5048BF0CC05DF8F0
:1007600004EB890028BF40F8042B08BF704748BF3E
:1007700020F8022B11F0804F18BF00F8012B7047B2
:100780004FF0013C50F8042B51F8043B9A4221D120
:10079000A2EB0C03934313EACC1317D150F8042BAC
:1007A00051F8043B9A4215D1A2EB0C03934313EA90
:1007B000CC130BD150F8042B51F8043B9A4209D1C9
:1007C000A2EB0C03934313EACC13DBD04FF00000F1
:1007D000704700BFD01A01BAB1FA81F101F01801D7
:1007E00022FA01F0CB40C1F12001DBB2C0B2C01A45
:1007F0002CFA01F3D11A914311EAC311E6D17047E3
:10080000704770477047704770B504468569006847
:10081000C10601D5302600E02026C00707D070BDF4
:10082000D4E9012130469047206A401C20626D1EA9
:10083000F6D570BD70B5044685690078C00707D14C
:1008400070BDD4E9012120209047206A401C20621D
:100850006D1EF6D570BD09684A0501D540B27047D6
:10086000C905FCD500B2704709684A0501D5C0B278
:100870007047C905FCD580B270472DE9F0470D4699
:1008800099469246044600F124080168880604D57A
:10089000E06921F01001216000E00120A84201DDA3
:1008A000471B00E00027A1697A1902EB0900081A2A
:1008B000A0612078C00602D42046FFF7A5FF0026DD
:1008C00008E0D4E901211AF806009047206A401C8C
:1008D000761C20624E45F4DB2078C0060AD52046FF
:1008E000FFF792FF06E0D4E9012130209047206A0B
:1008F000401C2062381EA7F10107F4DC07E0D4E9B0
:10090000012118F805009047206A401C2062281E2B
:10091000A5F10105F3DC2046FFF78CFF20780006E7
:1009200002D50220BDE8F0870120FBE711680268CC
:10093000006A530501D508700AE0D30501D5088087
:1009400006E0130603D5C217C1E9000200E0086003
:100950000120704701694A1C02610878704700B5A0
:100960008FB0CDE901310021059105497944CDE9E8
:10097000031011466846FFF7A1FD0FB000BD00004F
:10098000E5FFFFFF0A6802F8010B0A607047D1E932
:1009900000239A4202D2531C0B601070704710B5AE
:1009A000436913B1AFF3008001E0FFF721FD01209F
:1009B00010BD127800F124010A7000224A70012251
:1009C000EDE711684FF0FF32E9E70000074B70B523
:1009D0000D467B44FFF7C3FF0446284600F0E4FBC6
:1009E00010B14FF0FF3070BD204670BDE3370000FE
:1009F0002DE9FF5F15468A460446DFF8AC80F844CF
:100A00000027D8E900103E46CDE9001010E03AF882
:100A100016106A4602A800F0CBFB411C07D02178D3
:100A2000890603D5E269391891420DD80744761C2E
:100A30002078800602D5E069B84205DDAE42E6DBEB
:100A40003AF816000028E2D1A069C01BA061204638
:100A5000FFF7DAFED8E90010CDE90010002017E01A
:100A60003AF818106A4602A800F0A2FBB0F1FF3F66
:100A700081460BD000250DF1080B05E0D4E90121DA
:100A80001BF8050090476D1C4D45F7D308F1010098
:100A9000B0428046E4DB206A384420622046FFF7FB
:100AA000C9FEBDE8FF9F0000867600002DE9F041F9
:100AB0008046D21D22F007020025D2E90002F52966
:100AC00015A614D0011E72F1000106DA0023D0EB46
:100AD000030063EB020211A608E0D8F800108B07B0
:100AE00001D50FA602E0490701D50EA60125114642
:100AF000002408F1240704E000F0ECF830323A5505
:100B0000641C50EA0102F7D12B463246214640468A
:100B1000BDE8F041FFF7B1BE000000002D0000006D
:100B20002B0000002000000030B4002100F124045C
:100B300008E002F00705D208303542EA4372DB08CC
:100B40006554491C52EA0305F3D10468002310A23E
:100B5000250707D5A40600D421B1C46901230DA23D
:100B6000641EC46130BCFFF788BE10B50446214640
:100B70001068FFF779FE02462046BDE810400023CA
:100B8000D2E7D21D22F00701D1E90023CCE7000013
:100B90000000000030000000F0B40D460188090597
:100BA00002D5214C7C4402E01F4C7C440E340021D1
:100BB00000F1240608E002F00F071209E75D42EA9F
:100BC00003721B097754491C52EA0307F3D10278D8
:100BD0000023120704D5702D06D009B10223113469
:100BE0002246F0BCFFF749BE01231034F8E770B588
:100BF00004460D4621461068FFF736FE0246294698
:100C00002046BDE870400023C6E7D21D22F007034E
:100C1000D3E90023C0E70368126843F020030360B0
:100C20000823C3610023B7E7E874000010B5203A39
:100C3000C0F00B80B1E81850203AA0E81850B1E895
:100C40001850A0E81850BFF4F5AF5FEA027C24BF4B
:100C5000B1E81850A0E8185044BF18C918C0BDE842
:100C600010405FEA827C24BF51F8043B40F8043B0B
:100C700008BF7047D20728BF31F8023B48BF11F8C0
:100C8000012B28BF20F8023B48BF00F8012B70471A
:100C90004FF000020429C0F0128010F0030C3FF462
:100CA0004AADCCF1040CBCF1020F18BF00F8012BC7
:100CB000A8BF20F8022BA1EB0C01FFF73CBD5FEAB7
:100CC000C17C24BF00F8012B00F8012B48BF00F8BD
:100CD000012B704730B5B0F10A024FEA900E71F166
:100CE00000034EEA817EB0EB0E0061EB91014FEA0A
:100CF000101E4EEA017E10EB0E0041EB11114FEA7F
:100D0000102E4EEA016E10EB0E0041EB11214FEA5E
:100D1000104E4EEA014E10EB0E0041EB114140180F
:100D200041F100014FEAD00040EA41704FEAD101A1
:100D300010EB80054FEA810444EA907444EB01040F
:100D40006D1944EB0404521BA3414FF0000348BF4C
:100D50000A3200D530BD401C41F1000130BD704762
:100D60002DE9FF4F0C461E464FF0FF378BB0D2E9FE
:100D70000001DDF860800A908A46C1F30A5505B982
:100D80003D46002108464FF00000BAF1000F00F484
:100D9000400005DA00EB80004FF4400101EA50000A
:100DA0004FEA9059B9F1010F00DDB9460A9850EAAF
:100DB0004A000ED044F61050A5F2FF3545432F14DB
:100DC000B8F1000F1ED07542291E1EDDC9F10002C8
:100DD0001CE0B8F1010F4FF0000001D0302103E01A
:100DE000F24305E02154401CB042FBDB30460022B8
:100DF000002121540B99C1F80880C1E900200FB0EF
:100E0000BDE8F08FBD1B6D1CDEE74A4600DA694283
:100E100006A800F05FFA06AB93E8070003AB83E88F
:100E2000070050460A9900F0D5FA8DE80700A0F5B2
:100E300000501F3800900398002D0ADD42F21F0178
:100E40004A460844002303A90390684600F03EFD8B
:100E500009E0A0F500504A461F38002303A903907B
:100E6000684600F048FD8DE807000004000C03D040
:100E70004FF0FF30410800E01046B8F1000F03D0FA
:100E80000022009215461EE0751E05D4FFF722FFD2
:100E9000303262556D1EF9D5B3460122084302D0A7
:100EA00000227F1C04E02078302801D100227F1E20
:100EB000002A099784D01DE0112D07DAFFF70AFFF9
:100EC000303262556D1C50EA0102F5D1084302D060
:100ED0000098C8B10EE00021681E05E0235C625C4A
:100EE00063542254401E491C8142F7DBAB46A81BC9
:100EF000401E0990002004F80B000B98099AC0F8D6
:100F00000880C0E9002B7AE711264FF0000857E768
:100F10002DE9F04F88460446D21D22F0070191B01A
:100F2000D1E90001CDE90A0102F0DFFD02460B988C
:100F3000C00F01D02D2007E02068810701D52B20AC
:100F400002E0202101EAC000032A099001D0072A0B
:100F500005DB03464146204600F07CF90BE1207892
:100F6000800601D5E06900E00620B8F1650F8146F2
:100F700006D0B8F1660F18D0B8F1670F70D131E024
:100F80000020B9F1110F009001DB112301E009F1FC
:100F900001030AAA01A90CA8FFF7E2FEDDE90C7023
:100FA000002609F10105834647E001204B460090E9
:100FB0004FF000470AAA01A90CA8FFF7D1FEDDE90E
:100FC0000DB00C995D46002610B909F101000D180D
:100FD000B9EB050003D4C0F1FF3609F10105A5EB1B
:100FE00009002BE0B9F1010F01DA4FF001090020EF
:100FF000B9F1110F0090484601DD112300E00346CE
:101000000AAA01A90CA8FFF7ABFEDDE90C704D465A
:1010100000268346207800070AD4AB4500DA5D46F7
:1010200001A8012D04DD411911F8011C302907D058
:101030004F4502DA17F1040F04DA012082460FE06F
:101040006D1EEEE7002F02DCED1B3E4403E0781C32
:10105000A84200DD7D1CB81B00F1010A4FF00047DB
:101060002078000703D4AA4501DB4FF0FF3A0021A6
:10107000B7F1004F0DF143088DF8431024D0022042
:101080002B23002F01DA7F422D230A21021EA0F11B
:10109000010000DC5FB197FBF1FC97FBF1F201FB73
:1010A0001C7C17460CF1300C08F801CDEEE7A8F1D6
:1010B000010003702188090501D5452100E0652163
:1010C000A0F1010800F8011C09980FA9A1EB08077D
:1010D000FF1D00B10120411901EBEA70A1693844FC
:1010E000081A401EA0612078C00602D42046FFF7EF
:1010F0008BFB099828B1D4E901219047206A401C54
:1011000020622078C00622D52046FFF77DFB1EE036
:10111000002E04DBB34502DD01A8805D00E0302035
:10112000D4E901219047206A401C2062761CAAF174
:1011300001005FEA000A0AD100F088F8C06801687F
:10114000405CD4E901219047206A401C2062281E9F
:10115000A5F10105DCDC07E0D4E9012118F8010B59
:101160009047206A401C2062381EA7F10107F3DC7B
:101170002046FFF75FFB032011B041E610B543693D
:1011800013B1AFF3008001E0FFF732FC012010BD86
:10119000128800F1240182840022C2840122EDE73A
:1011A00011684FF0FF32E9E7007B00F080007047E4
:1011B00070B516460C46054600F040F8036893F8F3
:1011C0000101012806D0FF2C0FD8185D68B101205D
:1011D0002C7070BDD3F807013246214603F2071385
:1011E00003442846BDE8704018474FF0FF3070BDFB
:1011F000754600F0EBF8AE4605006946534620F010
:101200000700854618B020B5FFF78EF8BDE82040EE
:101210004FF000064FF000074FF000084FF0000BB2
:1012200021F00701AC46ACE8C009ACE8C009ACE865
:10123000C009ACE8C0098D467047000010B500F049
:1012400005F8001D10BD00BFED64000000487047A8
:10125000EC3800202DE9F0411F46044603260168C2
:10126000072A01F4006004DB08B116A505E016A505
:1012700003E008B115A500E015A521F010002060DD
:10128000A069C01EA0610FB1401EA0612046FFF7FB
:10129000BBFA4FB1D4E9012138469047206A401C7F
:1012A0002062C01C206206E0206AFAE7D4E901212E
:1012B00015F8010B9047761EF8D22046FFF7BAFAD0
:1012C000BDE8F0814E414E006E616E00494E460011
:1012D000696E66002DE9F047814616468AB03548AA
:1012E00078440DC88DE80D0032487844801C03AC6A
:1012F0000DC884E80D0041F69B300844372190FB6F
:10130000F1F290FBF1F5A5F1800501FB12041B3C05
:1013100002D56442012000E00020DFF898A080465A
:101320000027FA44AAF1BE0A0EE0E0070AD03246CE
:10133000684607EB470101230AEB810100F0DBFA65
:101340008DE8070064107F1C002CEED1194F7F44FC
:10135000AE3F19E0E80715D007EB04100DF1180AAD
:1013600090E80E008AE80E00C068F04201D198199A
:1013700008903246012306A903A800F0BCFA03AB8B
:1013800083E807006D10641C002DE3D14FF00103CA
:1013900032466946B8F1000F03A802D000F096FA71
:1013A00001E000F0A8FAC9E90001C9F808200AB074
:1013B000BDE8F087506E000010B50446AFF3008022
:1013C0002046BDE81040FEF74EBF000000487047C1
:1013D000CC3800205FEA400C08BF91F0000F4FEAC4
:1013E0008C234FEAC12243EA51514FEA1C5018BFE7
:1013F00000F5F0404FEA300018BF41F000415FEACD
:101400006C5C00F02980BCF1FF3F08BF40F08040D9
:101410007047130C06BF12044FF0100C4FF0000C75
:10142000130E04BF12020CF1080C130F04BF1201BB
:101430000CF1040C930F04BF92000CF1020CD30FBB
:1014400004BF52000CF1010C11464FF00002A0F154
:101450001F00A0EB0C00704711F0004F08BF704751
:1014600031F000413FF4D5AF0B0C06BF09044FF03B
:10147000100C4FF0000C0B0E04BF09020CF1080C0D
:101480000B0F04BF09010CF1040C8B0F04BF890082
:101490000CF1020CCB0F04BF49000CF1010CCCF194
:1014A0002003A0EB0C0022FA03F302FA0CF241EA4B
:1014B000030100F10100704720F07F4C80EA030037
:1014C00023F07F47ACEB070303F57C5300F00040AB
:1014D00003F1FF032DE980494FEA154B09B44FEAA8
:1014E000144325EA0B4E24EA03480FF2042606EBC8
:1014F000132749083E785FEA320203FB0667C7F507
:10150000000707FB06F64FEA54374FEAD64606F1C6
:10151000020607FB066CCCF1005C4FEA1C472CEA84
:10152000074C07FB06F40CFB06F504EB15464FEAE7
:10153000961634BF00204FF000404FEAD13706FB2B
:1015400007FC4FEA1C4C0CFB0BF7D21B03FB0CF700
:1015500061EB07010CFB0EF7B0EB074072EB174293
:101560000CFB08F734BFA2EB0742B2EB074261EB7A
:1015700017414FEA0C444FEA910706FB07FC4FEA7C
:101580001C4C0CFB0BF7B0EBC74072EB573203FB64
:101590000CF734BFA2EBC742B2EBC74261EB573145
:1015A0000CFB0EF7B0EBC70072EB57720CFB08F7A1
:1015B00034BFA2EBC702B2EBC70261EB5771039FC6
:1015C0004FEA816141EA921104EBCC044FEAD13732
:1015D0004FEA826206FB07FC42EA90124FEA806003
:1015E0004FEA1C4C0CFB0BF7D21B03FB0CF761EB17
:1015F00007010CFB0EF7B0EB074072EB17420CFB38
:1016000008F734BFA2EB0742B2EB074261EB174188
:101610004FEA8C554FEA910704EB9C2406FB07FC2C
:101620004FEA1C4C0CFB0BF7B0EBC74072EB573288
:1016300003FB0CF734BFA2EBC742B2EBC74261EB2E
:1016400057310CFB0EF7B0EBC70072EB57720CFB77
:1016500008F734BFA2EBC702B2EBC70261EB5771C8
:1016600015EB4C254FEA816141EA92114FEA826203
:101670004FEAD13742EA901206FB07FC44F100041E
:101680004FEA80604FEA1C4C0CFB0BF7D21B03FBAC
:101690000CF761EB07010CFB0EF7B0EB074072EBA8
:1016A00017420CFB08F734BFA2EB0742B2EB07422C
:1016B00061EB174115EB1C154FEA813141EA92416C
:1016C0004FEA823242EA90424FEA80304FEA0C768B
:1016D00044F1000448EA03434EEA0B484FF0000E81
:1016E000B2EB080C71EB030724BF624639464EEBA0
:1016F0000E0E4FF0000B0018524149414BEB0B0B03
:10170000B2EB080C71EB03077BF1000B24BF6246C0
:1017100039464EEB0E0E4FF0000B00185241494176
:101720004BEB0B0BB2EB080C71EB03077BF1000BDF
:1017300024BF624639464EEB0E0E51EA020718BF2F
:1017400046F0010616EB0E7655F1000254F1000149
:1017500003D5BDE88901BDE80088BDE88901BDE881
:101760000048B619524141EB0101A3F10103704752
:1017700080807F7E7D7C7B7A7978777676757473CE
:10178000727171706F6E6E6D6C6C6B6A6A6968688D
:10179000676666656464636362616160605F5F5E23
:1017A0005E5D5D5C5C5B5B5A5A5959585857575699
:1017B00056555555545453535252525151505050FE
:1017C0004F4F4F4E4E4D4D4D4C4C4C4B4B4B4A4A50
:1017D0004A49494948484847474747464646454594
:1017E00045444444444343434342424242414141CD
:1017F000002B9C4630D477002BD01CB54FEA37071E
:1018000003B44FF010004FF01001BAF1000F06D0F2
:10181000BCF1000FDCBF40F0080040F008014FF0C1
:1018200000000FBCBDE810400BF1010BBBF1010F34
:1018300008BF5FEA170722BF12F1010211F101018F
:101840004FF0004143F1000300F0004043EA000084
:101850007047F9D35708D0E746EA064613F1400F20
:101860004FEA16461FDD13F1200FDFBF16430A466D
:10187000002120335B42BED0C3F1200746EA064672
:1018800002FA07F74FEA164646EA0706C3F12007B1
:1018900022FA03F201FA07F721FA03F14FF00003ED
:1018A00042EA0702A7E746EA020646EA06464FEA88
:1018B000164646EA0106BCBF46EA0646360C4FF01D
:1018C00000034FF000024FF0000194E72DE9804C37
:1018D0009A46934670B491E8380007C831EA400C44
:1018E00048BF34EA430C03D5FFF7E6FDFFF780FF5E
:1018F000F0BCBDE8008C2DE9804C9A46934670B44C
:1019000091E8380007C810F0804F08BF13F0804FEF
:1019100003D100F005F8FFF76BFFF0BCBDE8008CC9
:1019200020F07F4780EA030023F07F4C07EB0C0395
:10193000A3F57C5300F00040A3F1FE0392F0000FEA
:1019400000F0B38095F0000F00F077802DE9014999
:101950004FEA11404FEA144621EA004800FB06FC1A
:1019600024EA064708FB06F607FB08F800FB07F722
:1019700018EB06484CEB164C4FEA124B18EB074895
:101980004FEA15464CEB174022EA0B4E0BFB06FCC8
:1019900025EA06470EFB06F607FB0EFE0BFB07F7D4
:1019A0001EEB064E4CEB164C4FF000061EEB074E9E
:1019B0004CEB174B18EB0B0840F1000018EB0E0B2B
:1019C00058EB000840F100008F1A4FF000013CBFB7
:1019D000C943661B14BFB5EB040C00213CBFC943CF
:1019E000F61B4FEA17444EEA8E0E27EA04454FEAEB
:1019F0001C4704FB07622CEA074C05FB07F70CFBAE
:101A000005F604FB0CFC16EB074642EB174216EBFF
:101A10000C4642EB1C421BEB060658EB020241410E
:101A200046EA9E0601D5BDE80189B619524141EB4F
:101A30000101A3F10103BDE801894FEA14454FEA12
:101A4000114724EA054621EA074C05FB07F406FB8B
:101A500007F70CFB06F105FB0CFC11EB074144EB0F
:101A600017444FEA124711EB0C4144EB1C4422EAA5
:101A7000074C05FB07F206FB07F70CFB06F605FB18
:101A80000CFC16EB074642EB174216EB0C4642EBFA
:101A90001C456A1854F1000148BF7047B6195241FD
:101AA00041EB0101A3F10103704795F0000F37D01E
:101AB0004FEA11424FEA144721EA024624EA074C52
:101AC00002FB07F106FB07F70CFB06F402FB0CFC1C
:101AD00014EB074441EB17414FEA154714EB0C4454
:101AE00041EB1C4125EA074C02FB07F506FB07F713
:101AF0000CFB06F602FB0CFC16EB074645EB174504
:101B000016EB0C4645EB1C42121951F1000148BF7F
:101B10007047B619524141EB0101A3F1010370472F
:101B20004FEA14454FEA114724EA054621EA074CDB
:101B300005FB07F106FB07F70CFB06F24FF000066A
:101B400005FB0CFC12EB074241EB174112EB0C4278
:101B500051EB1C4148BF7047921841EB0101A3F1C2
:101B60000103704710B5012001F0BCF9002001F01D
:101B7000B9F910BD08B50146002000900348009057
:101B80000098084400900098008808BD006C004050
:101B900008B500220092044A0092009A0244009282
:101BA000009A116008BD0000006C004000BFFEE715
:101BB0007047000010B5012000F014F840B105484E
:101BC000007840F0800003490870012000F004F81C
:101BD00010BD00002E000020014908607047000081
:101BE00014040140014600200022074B1B6803EA51
:101BF0000102054B14331B680B4013B10AB10120DD
:101C000000E000207047000000040140002123494B
:101C10008279002A3AD00A46126803689A430B4632
:101C20001A600A1D126803689A430B1D1A60027934
:101C300011440A6803681A430A60184A0832126895
:101C400003689A43154B08331A601A1D126803681B
:101C50009A43124B0C331A604279102A0ED11A1F84
:101C6000126803681A430D4B08331A601A1D126874
:101C700003681A43094B0C331A600DE00749427997
:101C800011440A6803681A430A6005E002791144A6
:101C90000A6803689A430A60704700000004014024
:101CA00030B5044604254FF4302000F06FF80546A7
:101CB000042D17D10C48006940F002000A49086160
:101CC00008464461006940F0400008614FF430204C
:101CD00000F05CF805460448006941F6FD710840D3
:101CE00001490861284630BD0020024004200B490C
:101CF000C96801F0010109B101200EE00749C96876
:101D000001F0040109B1022007E00449C96801F0AB
:101D1000100109B1032000E00420704700200240B8
:101D20000348006940F080000149086170470000E5
:101D30000020024070B504460D460426F00200F073
:101D400025F80646042E11D10948006940F001002B
:101D5000074908612580F00200F018F8064604489B
:101D6000006941F6FE71084001490861304670BDC6
:101D70000020024002480349486003484860704719
:101D80002301674500200240AB89EFCD00B5024634
:101D90000423FFF7ABFF034603E0FFF7A7FF03466B
:101DA000521E012B01D1002AF7D102B90523184692
:101DB00000BD000070B504465C2112A0FEF742FC95
:101DC00028B15C210FA0FEF73DFC401C00E00DA0F7
:101DD000054614A31D4AED2102F0FAFD4FF4FA6105
:101DE0001B4800F037F8052002F052F842F210715B
:101DF000204600F055F84FF4FA7002F049F800F070
:101E0000B9FA70BD2E2E5C48415244574152455C90
:101E100066706D333833635C46504D333833432E30
:101E2000630000003E3E3EC7EBBDABD0E8D2AAD770
:101E3000A2B2E1B5C4CAD6D6B8B0B4D1B9D6B8CE7C
:101E4000C6C4A3BFE934B4CE3C3C3C0015800008B6
:101E50004400002070B504460D462146102000F0D5
:101E60006DFA02E0012002F013F80B4800780C280C
:101E700002DA681E051EF5D108488079072802D1CC
:101E80000648407A00E0FF200646FF22142103485E
:101E9000FEF747FC304670BD28000020DB01002023
:101EA00070B504460D46201230498872CC7208463F
:101EB000807A5430C97A084400122C49C873084605
:101EC000807A5430C97A084428490874112000F0F7
:101ED00035FA02E0012001F0DBFF254800780C28EC
:101EE00003DA681E80B2051EF4D12248407A002829
:101EF00018D15C2120A0FEF7A5FB28B15C211EA013
:101F0000FEF7A0FB401C00E01BA0064622A3274AC8
:101F100040F2071102F05CFD4FF4FA612448FFF72C
:101F200099FF70BD002D19D122490C2000F006FA4E
:101F30005C2111A0FEF786FB28B15C210EA0FEF704
:101F400081FB401C00E00CA006461BA3174A4FF47F
:101F5000877102F03DFD322001F09AFF4FF4FA61E3
:101F60001948FFF777FF00BFDBE70000980000206B
:101F700028000020DB0100202E2E5C4841524457EF
:101F80004152455C66706D333833635C46504D3367
:101F90003833432E630000003E3E3ED6B8CEC6D74F
:101FA000A2B2E1B3C9B9A63C3C3C000021800008C4
:101FB000640000208C0000203E3E3EB3ACCAB1CA93
:101FC000A7B0DC3C3C3C0000540000201FB50121C0
:101FD000084600F077FF0121042000F073FF012084
:101FE000ADF8000028208DF803006946114800F084
:101FF000E9F90021084600F0C5F90120029000200F
:102000008DF80C0008208DF80D0001208DF80E00D1
:1020100002A8FFF7FBFD06208DF8040002208DF8D2
:1020200005008DF8060001208DF8070001A800F0DA
:10203000FFFC1FBD0008014070B504460F490D208C
:1020400000F07CF902E0012001F022FF0C4800784A
:102050000C2802DA601E041EF5D10A488079072890
:1020600002D10848407A00E0FF200546FF221421F3
:102070000448FEF756FB284670BD0000B50000205E
:1020800028000020DB01002070B504460F490C2019
:1020900000F054F902E0012001F0FAFE0C4800784B
:1020A0000C2802DA601E041EF5D10A488079072840
:1020B00002D10848407A00E0FF200546FF221421A3
:1020C0000448FEF72EFB284670BD0000A900002042
:1020D00028000020DB01002038B54FF4FA60FFF73C
:1020E000D3FF002830D14FF4FA60FFF7A5FF002896
:1020F0002AD14FF4FA6000F001F9002824D11F48DA
:10210000C07A1E49897A00EB01201D4908805C21B4
:102110001CA0FEF797FA28B15C211AA0FEF792FAEC
:10212000401C00E017A00446154800881DA3224A61
:10213000E1210090204602F04BFC4FF4FA611F4869
:10214000FFF788FE002038BD5C210EA0FEF77AFA6A
:1021500028B15C210BA0FEF775FA401C00E009A035
:10216000044617A3144AE72102F032FC4FF4FA6147
:102170001748FFF76FFE4FF0FF30E4E7DB01002068
:102180002C0000202E2E5C48415244574152455CA1
:1021900066706D333833635C46504D333833432EAD
:1021A00063000000C9A8C3E8B3C9B9A620D6B8CE59
:1021B000C64944A3BA2564000480000864000020D6
:1021C000CEB4CBD1CBF7B5BDD6B8CEC6000000009B
:1021D0005400002010B500F008FC01F051FB00F0A5
:1021E000C9F8FFF7F3FE5C2109A0FEF72BFA28B12E
:1021F0005C2107A0FEF726FA401C00E004A004467C
:102200000BA3134A40F2B71102F0E2FB10BD00002D
:102210002E2E5C48415244574152455C66706D33E6
:102220003833635C46504D333833432E630000002F
:10223000A1AAA1AAA1AAD6B8CEC6B3F5CABCBBAF03
:10224000B3C9B9A6A1AAA1AAA1AAA1AA0000000087
:102250003080000870B54FF0FF34164800788028B1
:1022600026D15C2114A0FEF7EDF928B15C2112A063
:10227000FEF7E8F9401C00E00FA0054616A31D4A32
:102280004FF4E37102F0A4FB4FF4FA611A48FFF730
:10229000E1FD052001F0FCFDFFF71EFF04464FF4B1
:1022A000FA7001F0F5FD00F065F8002001490870B2
:1022B000204670BD2E0000202E2E5C48415244570F
:1022C0004152455C66706D333833635C46504D3324
:1022D0003833432E63000000A1A1A1A1A1A13E3E7D
:1022E0003ED6B8CEC6D1E9D6A43C3C3CA1A1A1A122
:1022F000A1A100003D8000084400002010B5044664
:102300000B49112000F01AF802E0012001F0C0FD95
:1023100008480078102802DA601E041EF5D106482D
:102320008079072802D10448407A10BDFF20FCE7DD
:10233000CF00002028000020DB01002070B50546FA
:102340000E46002400BF0BE0315D084801F0C7FBDA
:1023500000BF8021054801F0F4FA0028F9D0641C80
:10236000AC42F1DB00200249087070BD004400401F
:102370002800002010B502490C20FFF7DFFF10BD38
:102380007400002030B500228B071C0F0F2303FAC6
:1023900004F20B4B8C1053F824309343084C8D10EF
:1023A00044F8253023468C1053F824308C07240F32
:1023B00000FA04F42343024C8D1044F8253030BD5C
:1023C000080001402DE9F0410246002500260020CA
:1023D00000230024002791F803C00CF00F0591F8AA
:1023E00003C00CF0100CBCF1000F03D091F802C038
:1023F0004CEA050591F800C0BCF1000F31D014681B
:1024000000202BE04FF0010C0CFA00F3B1F800C0F3
:102410000CEA03069E4220D183004FF00F0C0CFA09
:1024200003F7BC4305FA03FC4CEA040491F803C02B
:10243000BCF1280F06D14FF0010C0CFA00FCC2F8D9
:1024400014C00AE091F803C0BCF1480F05D14FF069
:10245000010C0CFA00FCC2F810C0401C0828D1D3B3
:102460001460B1F800C0BCF1FF0F34DD54680020E7
:102470002EE000F1080C4FF0010808FA0CF3B1F857
:1024800000C00CEA03069E4221D183004FF00F0CDE
:102490000CFA03F7BC4305FA03FC4CEA040491F878
:1024A00003C0BCF1280F05D100F1080C08FA0CF8A4
:1024B000C2F8148091F803C0BCF1480F07D100F1B5
:1024C000080C4FF0010808FA0CF8C2F81080401C04
:1024D0000828CED35460BDE8F0810000F0B50A466C
:1024E000002300240021002500F00046B6F1004F33
:1024F00002D11D4EF16901E01B4E7168C0F3034526
:1025000083B200F44016B6F5401F08D121F0706187
:10251000154E766826F07066134F7E6012E000F468
:102520008016B6F5801F06D1032606FA05F4A143EE
:1025300041F0706106E0460D360103FA06F6B1433C
:1025400041F0706122B1460D360103FA06F63143BF
:1025500000F00046B6F1004F02D1034EF16101E0F8
:10256000014E7160F0BD00000000014002460020F5
:1025700093680B400BB1012000E0002070474161DF
:10258000704701617047C160704700BFFEE70000FF
:102590004CF6CC4001490860704700000030004014
:1025A00010B500F013F810BD70B505460C4645F2A5
:1025B000555000F01FF8284600F010F8204600F0B3
:1025C00013F800F003F8FFF7E3FF70BD4AF6AA2006
:1025D0000149086070470000003000400149486030
:1025E00070470000003000400149886070470000DB
:1025F0000030004001490860704700000030004092
:102600000146CA1701EB92729210A1EB820292B9B5
:10261000642091FBF0F200FB121050B94FF4C87027
:1026200091FBF0F200FB121008B901207047002066
:10263000FCE70120FAE70020F8E7000010B50446A7
:1026400001F0FCFD8021B948FFF790FF78B14021EF
:10265000B648FFF78BFF50B12021B448FFF786FF43
:1026600028B11021B148FFF781FF002844D10A208A
:1026700001F00EFC8021AD48FFF778FF48B901203A
:10268000207000BF8021A948FFF770FF0028F9D013
:1026900032E04021A548FFF769FF48B902202070C9
:1026A00000BF4021A148FFF761FF0028F9D023E0D7
:1026B00020219E48FFF75AFF48B90320207000BF31
:1026C00020219A48FFF752FF0028F9D014E010218A
:1026D0009648FFF74BFF48B90420207000BF102137
:1026E0009248FFF743FF0028F9D005E0FF20207053
:1026F000FF218E48FFF747FF01F0B2FD80218B4894
:10270000FFF734FF78B140218848FFF72FFF50B121
:1027100020218648FFF72AFF28B110218348FFF7C0
:1027200025FF002844D10A2001F0B2FB80217F4818
:10273000FFF71CFF48B90520207000BF80217B48AF
:10274000FFF714FF0028F9D032E040217748FFF767
:102750000DFF48B90620207000BF40217348FFF7E5
:1027600005FF0028F9D023E020217048FFF7FEFE86
:1027700048B90720207000BF20216C48FFF7F6FE03
:102780000028F9D014E010216848FFF7EFFE48B99F
:102790000820207000BF10216448FFF7E7FE0028E2
:1027A000F9D005E0FF202070FF216048FFF7EBFE25
:1027B00001F06AFD80215D48FFF7D8FE70B140212D
:1027C0005A48FFF7D3FE48B120215848FFF7CEFE04
:1027D00020B110215548FFF7C9FEF8B90A2001F0D1
:1027E00057FB80215148FFF7C1FE48B909202070EE
:1027F00000BF80214D48FFF7B9FE0028F9D032E034
:1028000040214A48FFF7B2FE48B90A20207000BFB5
:1028100040214648FFF7AAFE0028F9D023E02021F6
:102820004248FFF7A3FE48B90B20207000BF2021CB
:102830003E48FFF79BFE0028F9D014E010213B48EA
:10284000FFF794FE48B90C20207000BF10213748D4
:10285000FFF78CFE0028F9D005E0FF202070FF2153
:102860003248FFF790FE01F023FD80212F48FFF74B
:102870007DFE70B140212D48FFF778FE48B1202140
:102880002A48FFF773FE20B110212848FFF76EFE9B
:10289000F8B90A2001F0FCFA80212448FFF766FE0F
:1028A00048B90D20207000BF80212048FFF75EFE50
:1028B0000028F9D032E040211C48FFF757FE48B904
:1028C0000E20207000BF40211848FFF74FFE00285F
:1028D000F9D023E020211548FFF748FE48B90F2022
:1028E000207000BF20211148FFF740FE0028F9D0DA
:1028F00014E010210D48FFF739FE48B91020207070
:1029000000BF10210948FFF731FE0028F9D005E08B
:10291000FF202070FF210548FFF735FE94F90000E5
:1029200003F0FEF940B2207010BD00000008014025
:1029300008B501210C2000F0C5FA4FF47040ADF845
:10294000000003208DF8020010208DF80300694676
:102950000B48FFF737FD4FF470410948FFF711FEB0
:10296000F020ADF8000048208DF8030069460548C6
:10297000FFF728FDF0210348FFF703FE08BD000024
:10298000000C01400008014008B50121182000F0AA
:1029900099FA4FF40050ADF8000010208DF80300B4
:1029A00003208DF8020069460C48FFF70BFD4FF439
:1029B00000510A48FFF7E5FD0120ADF800001020A6
:1029C0008DF8030003208DF8020069460448FFF7E4
:1029D000F9FC01210248FFF7D2FD08BD00100140BB
:1029E000000C014000BFFEE7704708B54FF4A0603F
:1029F00000F056F828208DF8000001208DF8030023
:102A00008DF8010000208DF80200684600F010F8F3
:102A100026208DF8000001208DF8030000208DF89D
:102A200001008DF80200684600F002F808BD0000C1
:102A300070B5002100230F22C47804B3154C24681C
:102A400004F4E064C4F5E064210AC1F10403CA405F
:102A5000447804FA03F184781440214309010E4CB0
:102A60000678A155047804F01F050124AC400578D0
:102A70006D11AD0005F1E025C5F8004109E00478CD
:102A800004F01F050124AC40044D0678761145F88A
:102A9000264070BD0CED00E000E400E080E100E0C5
:102AA00002490143024A1160704700000000FA0524
:102AB0000CED00E070B5002418E004F1B000002136
:102AC00000F065F90021084600F061F900211020AE
:102AD00000F05DF9002505E00121002000F057F924
:102AE000681CC5B2802DF7DB601CC4B2082CE4DB87
:102AF00070BD000010B54FF480710948FFF741FD2B
:102B00004FF400710648FFF73CFD4FF40071044894
:102B1000FFF735FD4FF480710148FFF730FD10BD20
:102B2000000C014010B54FF480710748FFF729FDF4
:102B30004FF400710448FFF722FD4FF40071024882
:102B4000FFF71FFD10BD0000000C014010B54FF451
:102B500080710448FFF715FD4FF480710148FFF7BD
:102B60000EFD10BD000C014008B50121092000F048
:102B7000A9F901214348FFF7B1FC4FF44070ADF8CB
:102B8000000010208DF8030003208DF80200694634
:102B90003D48FFF717FC4FF440713B48FFF7F1FC4D
:102BA0004FF4487001F074F90021AE2000F0EFF806
:102BB0000021084600F0EBF80021102000F0E7F8B3
:102BC0000021402000F0E3F80021B02000F0DFF801
:102BD0000021812000F0DBF80021FF2000F0D7F871
:102BE0000021A12000F0D3F80021A62000F0CFF8AA
:102BF0000021A82000F0CBF800213F2000F0C7F80A
:102C00000021C82000F0C3F80021D32000F0BFF855
:102C10000021084600F0BBF80021D52000F0B7F8ED
:102C20000021802000F0B3F80021D82000F0AFF898
:102C30000021052000F0ABF80021D92000F0A7F812
:102C40000021F12000F0A3F80021DA2000F09FF825
:102C50000021122000F09BF80021DB2000F097F803
:102C60000021302000F093F800218D2000F08FF833
:102C70000021142000F08BF80021AF2000F087F82D
:102C800008BD000000023000000C014070B5044691
:102C90000D4605F1B000002100F079F8102141EA5D
:102CA0001410002100F073F804F00F00002100F070
:102CB0006EF870BD2DE9F04707460E4690469946DE
:102CC00000250024A8F12000C5B27F2F02DD0027D7
:102CD000B01CC6B2B9F1100F24D131463846FFF707
:102CE000D5FF002408E004EB0511194A505C0121CE
:102CF00000F04DF8601CC4B2082CF4DB701CC1B2AB
:102D00003846FFF7C3FF002409E004EB0511083142
:102D10000F4A505C012100F03AF8601CC4B2082C44
:102D2000F3DB12E031463846FFF7B0FF00240AE03B
:102D300005EB4501074A02EB4101085D012100F066
:102D400026F8601CC4B2062CF2DBBDE8F087000058
:102D5000047A0008DC7700082DE9F04105460E46AC
:102D600014461F460EE022783B4631462846FFF7C0
:102D7000A1FF05F10800C5B2782D02DD0025B01CC9
:102D8000C6B2641C20780028EDD1BDE8F08170B592
:102D900004460D461DB1E0B200F04AF802E0E0B290
:102DA00000F030F870BD00002DE9F04105462C46DA
:102DB0004FF480711248FFF7E2FB00261CE0274623
:102DC00007F08007802F04D1B9000D48FFF7D9FB29
:102DD00004E04FF400710A48FFF7D1FB6006040ECF
:102DE0004FF480710648FFF7CCFB4FF48071044824
:102DF000FFF7C5FB701CC6B2082EE0DBBDE8F08112
:102E0000000C014010B50446FFF774FE7820FFF770
:102E1000CBFFFFF79BFE0020FFF7C6FFFFF796FEF4
:102E20002046FFF7C1FFFFF791FEFFF77BFE10BDC5
:102E300010B50446FFF75EFE7820FFF7B5FFFFF7F9
:102E400085FE4020FFF7B0FFFFF780FE2046FFF72A
:102E5000ABFFFFF77BFEFFF765FE10BD014908627F
:102E60007047000000000E420B4909680B4A1268C7
:102E700091420FD008490A6809498A4202D387392A
:102E8000054A116004490968087803490968491C22
:102E9000014A116070470000900100208C01002061
:102EA0009238002029B1064AD2690243044BDA6104
:102EB00004E0034AD2698243014BDA6170470000A3
:102EC0000010024029B1064A92690243044B9A61FC
:102ED00004E0034A92698243014B9A617047000003
:102EE000001002400149086070470000400442425F
:102EF00030B500210022002400232D4D6D6805F01F
:102F00000C0121B1042905D0082923D105E0294D60
:102F1000056022E0274D05601FE0254D6D6805F432
:102F20007012234D6D6805F48034022505EB924242
:102F30001CB9214D554305600BE01D4D6D6805F42E
:102F400000351DB11C4D5543056002E0194D554338
:102F5000056002E0174D056000BF00BF144D6D68AD
:102F600005F0F0010909154D6B5C0568DD40456011
:102F70000F4D6D6805F4E061090A104D6B5C456802
:102F8000DD4085600A4D6D6805F46051C90A0B4D3E
:102F90006B5C4568DD40C560054D6D6805F44041DA
:102FA000890B074D6B5CC568B5FBF3F5056130BD5A
:102FB0000010024000127A0000093D00FE000020CF
:102FC0000E01002010B501460022002300204A1106
:102FD000012A02D1094C236806E0022A02D1074CDB
:102FE000236A01E0054C636A01F01F02012494404A
:102FF0001C400CB1012000E0002010BD0010024078
:1030000000210B4A11700A4A203A82F82010012848
:1030100002D0042808D103E00121054A117004E020
:103020000521034A117000E000BF00BF7047000097
:103030002010024001490860704700003C044242F1
:103040000249096A0143014A1162704700100240B7
:10305000024909888143014A1180704704280040D1
:103060000348008840F010000149088070470000C4
:1030700004280040034800884FF6EF7108400149DA
:10308000088070470428004070B500260024002501
:1030900000F07AF806463848B6FBF0F43748008866
:1030A000A0423CD035490C8040F2B27510E0284671
:1030B000FFF7A6FA40B1B4F5B77F02D3A4F5B77411
:1030C00004E0681C85B206E0A4F26D14681C85B2A9
:1030D000B4F5B67FEBD800BF29488580002516E0FF
:1030E00027498888FFF78CFA30B1012D04D11D2CB7
:1030F00001D31D3C09E00CE02248405DA04203D80A
:103100002048405D241A00E003E0681C85B21C2CB6
:10311000E6D200BF681C1A498871601CC871164845
:10312000B6FBF0F100FB11644FF46160B4FBF0F00A
:10313000134908704FF46160B4FBF0F100FB1140DB
:103140003C21B0FBF1F00E4948704FF46160B4FBD4
:10315000F0F100FB11403C21B0FBF1F201FB120049
:10316000074988700B46DA799979988800F028F831
:1031700003490872002070BD80510100F00000205A
:10318000F001002056800008002103480188001F3C
:10319000008841EA004070471C280040014600209A
:1031A000064A12880A40D0B2044A121F12880A4006
:1031B00012B108B1012000E000207047042800404F
:1031C000F0B503460C461546642093FBF0F0C6B2FA
:1031D000642093FBF0F700FB1730C1B2132E02DD21
:1031E00001F16400C1B20846CF1701EB977701EBFC
:1031F000A707BAB2072092FBF0F700FB172082B2B4
:103200005719601EDFF82CC01CF80000384482B249
:10321000CF1701EB9777BF10A1EB87071FB9032CDE
:1032200001DA501E82B2072092FBF0F700FB172054
:10323000C0B2F0BD4A80000810B50120FFF7AEFF14
:1032400008B1FFF721FF0220FFF7A8FF10B102200D
:10325000FFF7FEFE0520FFF7FBFE00F005F910BDAD
:1032600029B1064A12880243044B1A8004E0034A3B
:1032700012888243014B1A807047000000280040EA
:103280001CB5002401214FF0C050FFF70BFE0120B8
:10329000FFF7E4FD0420FEF76DFC45F25001884283
:1032A0003FD0FEF75FFC0120FFF7AAFE04E0601CA0
:1032B000C4B20A2000F0ECFD4120FFF783FE002895
:1032C000F5D0FA2C01DB01201CBD4FF48070FFF714
:1032D000B7FE0120FFF7AEFE00F0C6F800F0CEF812
:1032E00001210846FFF7BCFF00F0BEF8FFF7B8FE6B
:1032F00047F6FF7000F0A8F800F0B6F8372000217C
:103300000A230222CDE900100C2140F2D97000F00E
:1033100027F8FFF7AFFE45F250010420FEF738FC16
:1033200007E000F0ABF801210846FFF799FF00F035
:103330009BF800F004F8FFF7A7FE0020C4E708B5EB
:1033400003208DF8000000208DF801008DF80200A8
:1033500001208DF803006846FFF76AFB08BD0000F6
:103360002DE9F05F06460F4690469946DDE90AAB27
:10337000002440F2B270864203DB40F633008642FE
:1033800002DD0120BDE8F09F40F2B2750AE0284658
:10339000FFF736F910B12148044401E02048044405
:1033A000681C85B2B542F2DB781EC7B2002510E07A
:1033B0001C48405D40F2A321484304EBC014304652
:1033C000FFF71EF918B1012D01D117480444681CFC
:1033D00085B2BD42ECDBA8F1010040F2A3214843D5
:1033E00004EBC014C9EB4910C0EB092004EB001436
:1033F000CAEB0A1004EB80045C4401214FF0C0507A
:10340000FFF750FD0120FFF729FD204600F00EF8E0
:1034100000F02AF8FFF738FE0020B3E70085E2014C
:103420008033E101568000088051010000B502465A
:10343000FFF716FE100C03490880091D0A80FFF7EC
:1034400019FE00BD1828004000B50246FFF708FE2F
:10345000C2F3034003490880091D0A80FFF70AFEF2
:1034600000BD00000828004000BF0348008800F0AD
:1034700020000028F9D07047042800400748008841
:103480004FF6F77108400549088000BF03480088DF
:1034900000F008000028F9D0704700000428004020
:1034A00030B503460C461546002207E0184600F0EA
:1034B00008F824F812009B1C501C82B2AA42F5DBCB
:1034C00030BD0146088870472DE9F05F80468A4686
:1034D0001746B8F1006F02D33348804501D3BDE8E9
:1034E000F09FFEF747FCA8F1006B4FEADB25CBF31A
:1034F0004909C9F58064A74200DC3C464DE04FF025
:10350000006101EBC5204A142849FFF7C9FF0026D6
:103510000BE009EB0600254931F810004FF6FF716A
:10352000884200D003E0701C86B2A642F1DB00BFE7
:10353000A6421BDA4FF0006101EBC520FEF7B0FB9D
:10354000002608E03AF8160006EB0901174A22F8AF
:103550001100701C86B2A642F4DB4FF0006101EB53
:10356000C5204A14114900F023F804E022465146D0
:10357000404600F01DF8A74200D10FE06D1C4FF04F
:1035800000090AEB440AA044381B87B2B7F5806FE4
:1035900002DD4FF4806400E03C46B0E700BFFEF778
:1035A000BFFB00BF9BE7000000000408FA010020F9
:1035B0002DE9F04105460E461746002407E036F88F
:1035C00014102846FEF7B6FBAD1C601C84B2BC424A
:1035D000F5DBBDE8F08110B500F002F810BD000089
:1035E0000CB50020019000903348006840F4803012
:1035F0003149086000BF3048006800F40030009096
:103600000198401C0190009818B90198B0F5A06F7E
:10361000F1D12948006800F4003010B10120009079
:1036200001E0002000900098012843D12348006861
:1036300040F01000214908600846006820F00300AF
:1036400008600846006840F0020008601A484068B8
:10365000194948600846406848600846406840F498
:10366000806048600846406820F47C104860084646
:10367000406840F4E81048600846006840F08070F8
:10368000086000BF0C48006800F000700028F9D006
:103690000948406820F00300074948600846406830
:1036A00040F00200486000BF0348406800F00C0092
:1036B0000828F9D10CBD0000001002400020024093
:1036C000042808D14FF0E021096941F004014FF0CE
:1036D000E022116107E04FF0E021096921F00401C7
:1036E0004FF0E0221161704710B503F065FD01282D
:1036F00001D003F0E7F910BD10B51348006840F0A1
:1037000001001149086008464068104908400E4908
:103710004860084600680E4908400B4908600846A2
:10372000006820F4802008600846406820F4FE000D
:1037300048604FF41F008860FFF74DFF4FF00060B6
:103740000449086010BD0000001002400000FFF8AE
:10375000FFFFF6FE08ED00E000BF0549098801F013
:1037600080018029F9D10249091D088070470000B5
:103770000048004010B540F225511D4800F0EEF819
:1037800010B31B4800F0A6F9C4B21A48008800F430
:103790000040C8B91748008800F4804060B10A2C86
:1037A00003D000201349088020E01248008840F42C
:1037B00000401049088019E00D2C06D10D48008802
:1037C00040F480400B49088010E00A480088C0F3AC
:1037D0000D0009490C5407480088401C0549088021
:1037E00008460088C72801DD0020088010BD0000C1
:1037F00000380140FC000020FA09002010B540F21A
:103800002551134800F0AAF8D8B1114800F062F928
:10381000C4B21048007800F0800090B90D480078DC
:10382000142808DA0B4801780078401C094A107007
:103830000948445405E00748007840F080000549F5
:10384000087040F22551024800F060F810BD0000F9
:103850000044004028000020DB01002010B540F2A9
:103860002551064800F07AF830B1044800F032F9EA
:10387000C4B2204602F002FB10BD00000048004028
:1038800000B585B001210420FFF71CFB012148048D
:10389000FFF708FB18208DF813000420ADF8100086
:1038A00003208DF8120004A91648FEF78BFD0420B2
:1038B0008DF813000820ADF8100004A91148FEF798
:1038C00081FD4FF4614000900020ADF80C000C2009
:1038D000ADF80A000020ADF80800ADF80600ADF81C
:1038E00004006946084800F089F8012240F2255199
:1038F000054800F05DF80121034800F016F805B016
:1039000000BD0000000801400044004010B5002246
:10391000002340F66A14A14200D100BF0A1201241C
:103920009440A3B2DC43048010BD21B1828942F4EB
:103930000052828104E082894DF6FF731A40828131
:10394000704702460020B1F5007F00D100BF138808
:103950000B400BB1012000E00020704770B502461B
:10396000002400230025002040F66A16B14200D151
:1039700000BFC1F3421501F01F03012606FA03F34D
:10398000012D02D19689334006E0022D02D1168A1C
:10399000334001E0968A33400C12012606FA04F403
:1039A0001688344013B10CB1012000E0002070BD36
:1039B000F0B50346002400260025002040F66A17D3
:1039C000B94200D100BF1846C1F3421401F01F06EE
:1039D000012707FA06F5012C01D10C3004E0022C76
:1039E00001D1103000E014301AB107682F4307608E
:1039F00002E00768AF430760F0BD00002DE9F04723
:103A000086B005460E460024A24600BFA146002708
:103A1000B08900B100BF2F462C8A4CF6FF700440DD
:103A2000F08804432C82AC894EF6F3100440B08831
:103A300031890843718908430443AC81AC8A4FF64D
:103A4000FF400440B0890443AC8201A8FFF750FA5C
:103A50001F48874202D1DDF810A001E0DDF80CA07C
:103A6000A88900F4004040B10AEBCA0000EB0A103C
:103A700031684900B0FBF1F807E00AEBCA0000EB3F
:103A80000A1031688900B0FBF1F86420B8FBF0F04F
:103A900004012009642101FB1089A88900F4004079
:103AA00040B1322000EBC900B0FBF1F000F007009C
:103AB000044308E0322000EB09106421B0FBF1F070
:103AC00000F00F0004432C8106B0BDE8F087000031
:103AD0000038014001468888C0F308007047C1F3F0
:103AE00008028280704700BFFEE7490050EAC1200B
:103AF00018BF04204A0D18BF40F0010040F2FF72C9
:103B0000B2EB515F08BF40F00200012808BF05205A
:103B1000704730380A2801D20120704700207047D2
:103B200000BF704710B50446012C04D0022C05D00C
:103B3000032C09D105E000F0CFFB06E000F0CAFB42
:103B400003E000F03DFA00E000BF00BF10BD000040
:103B50002DE9F05F04464FF0000900259B49E01C69
:103B600011F800A0BAF1150F7DD2DFE80AF07C0B46
:103B70000E181C7C7CD37C20DB7C484E837CE1E7E8
:103B8000FCFBFA0001F02AF91DE19049A01D085C38
:103B90008F4908700021022002F012FF13E101207A
:103BA0008C4908700FE101208B4908700BE18749AF
:103BB000201D085C4FF6FF7101EA00268349601D55
:103BC000085C304486B24FF0000815E0A01D404468
:103BD000801C7E49085C0502A01D4044C01C085C96
:103BE00005442144891D01EB080000F0FDF807465B
:103BF000281D40441FFA80F8B045E7DBE3E0734A34
:103C0000A11D505C01F060F8DDE07049A01D085C6A
:103C10007249086008460068000208606B49E01DB0
:103C2000085C6E49096808436C49086008460068EA
:103C300000020860654904F10800085C67490968EA
:103C400008436649086008460068000208605F494A
:103C500004F10900085C6149096808435F4908608C
:103C600000210D2000E0ADE002F0AAFE0D205C492D
:103C70000870A8E05A4800780D284AD10120594917
:103C800008705249201D085C4FF6FF7101EA0026BA
:103C90004E49601D085C304486B2A01D0D5C2D02AB
:103CA000E01D085C05432D0204F10800085C054393
:103CB0002D0204F10900085C0543894604F10A005D
:103CC0008144042E0DD145480068854209D1002267
:103CD0002946484600F0CEFF0746002040490870BC
:103CE0000EE0301FB0F5807F06DC82B229464846E0
:103CF00000F0C0FF074603E00020394908700027A4
:103D0000012F03D100210E2002F05AFE0020354978
:103D1000087058E02D4BE21D995CA21D985C02F0E2
:103D2000BFFD50E0294AA11D505C02F06BFE4AE045
:103D300026492144881D00F0D6FF44E02349A01DF8
:103D4000085C012823D1201D085C4FF6FF7101EAB1
:103D500000261E49601D085C304486B2A6F1070C9F
:103D600002E029E022E01BE00CF0FF038C46A444B3
:103D70000CF10D028C46A4440CF10701DFF84CB0A5
:103D800004F1060C1BF80C0001F0FCFF07E00F4AE1
:103D9000A11D505C00231A46194601F0F3FF12E002
:103DA0000A4AA11D505C01F00AF80CE007492144C1
:103DB000881D00F09DFF06E004492144881D01F0A4
:103DC000FDFE00E000BF00BFBDE8F09FD836002038
:103DD0009701002095010020960100209C01002001
:103DE000A0010020940100202DE9F0470446267828
:103DF00094F80180A0784FF6FF7101EA0025E07881
:103E0000284485B2304600F0F3F90746084800EB35
:103E100047004078404502D00020BDE8F0872A46A0
:103E2000211D304600F078F881464846F5E700004D
:103E30006280000810B50420FFF742FC10480068BB
:103E40001049B0FBF1F0104908700D4800680D49A9
:103E5000B0FBF1F44FF47A70444301200B49088021
:103E60004FF0E020006940F002004FF0E0210861CF
:103E700008464461006940F00100086110BD00007F
:103E80001400002040420F00F2000020F400002047
:103E900070B5044603F090F9012810D00B48008853
:103EA000844206D309480088B4FBF0F5284602F0A6
:103EB00093FA06480088B4FBF0F100FB11444FF47C
:103EC0007A7104FB01F000F003F870BDF4000020EB
:103ED00070B5034600224FF0E02675690D4E367826
:103EE00003FB06F44FF0E026B16910E04FF0E02646
:103EF000B06988420BD0884202D20E1A324402E0E6
:103F00002E1A0E4432440146A24200D300E0EDE7EF
:103F100000BF70BDF20000202DE9F04105460E46BD
:103F20001746322D04D0372D08D0D42D12D10BE0F6
:103F30003946304600F035F804460CE03946304644
:103F400000F01BF8044606E03946304600F007F85A
:103F5000044600E000BF00BF2046BDE8F08170B518
:103F600004460D462A462146D42000F049FE064666
:103F7000012E00D170BD0020FCE72DE9F041044680
:103F80000D462946204600F078FE07463946372080
:103F900000F004FE0646012E01D1BDE8F0810020AC
:103FA000FBE770B504460D462A462146322000F054
:103FB00027FE0646012E00D170BD0020FCE7000060
:103FC0007CB5FF2001904FF4FA745C2132A0FCF71D
:103FD00039FB28B15C2130A0FCF734FB401C00E029
:103FE0002DA005462EA3364ADE2100F0F1FC5C210F
:103FF00029A0FCF727FB28B15C2127A0FCF722FBB6
:10400000401C00E024A005462EA32D4AE22100F02A
:10401000DFFC29E001A8FEF711FB9DF804000A2847
:1040200000D17CBD9DF90400401CE0B15C211AA0C8
:10403000FCF708FB28B15C2117A0FCF703FB401C30
:1040400000E015A005469DF9040024A31C4AEE21BA
:104050000090284600F0BCFC9DF9041088B2FDF7E2
:10406000A9FEFF20019001E0002CD3DC00BF8CB939
:104070005C2109A0FCF7E6FA28B15C2106A0FCF758
:10408000E1FA401C00E004A005461AA30C4AF821FE
:1040900000F09EFC00BFC4E76D61696E2E630000F6
:1040A000A1AAA1AAA1AAA1AAD7A2B2E1D6B8CEC6B6
:1040B000C4A3CABDA1AAA1AAA1AAA1AA00000000E6
:1040C0009A7700083E3E3EC7EBCFC8CAE4C8EBD69D
:1040D000B8CEC649443C3C3C000000003E3E3ECACF
:1040E000E4C8EBB5C4D6B8CEC64944A3BA25643CEF
:1040F0003C3C00003E3E3EB3ACCAB1CDCBB3F63C37
:104100003C3C000010B5002400BF0BE004EB440071
:1041100000EBC400074908440021016041600181AF
:104120008172641C052CF1DB372202490248FFF73B
:10413000B7F910BDA401002000F0000870B50024FC
:1041400000BF0BE004EB440000EBC400104908443E
:1041500000210160416001818172641C052CF1DB4A
:1041600037220B490B48FFF7AFF95C210AA0FCF797
:1041700069FA28B15C2108A0FCF764FA401C00E051
:1041800005A0054606A30B4A462100F021FC70BDA0
:10419000A401002000F000086D61696E2E6300002C
:1041A000666C6173682072657365742073756363F0
:1041B000657373006477000800BF054A128802F037
:1041C0004002002AF9D0C2B2014B1B1D1A80704771
:1041D0000038014030B502460020002305E012F807
:1041E000015B2C18E0B25C1CA3B28B42F7DB30BD44
:1041F00070B5054600F012F80646002407E00648B0
:1042000010F81400A84200D103E0601CC4B2B4420C
:10421000F5DB00BF204670BD6280000809207047B2
:104220000448006804490968884201D001207047A9
:104230000020FCE78C0100209001002000200649AE
:10424000086001200549C1F8B4010349083108603C
:104250000249C1F8BC017047B0812142008021426F
:1042600001200749086000200649C1F8B401012077
:104270000349083108600349C1F8BC0170470000D8
:10428000B08121420080214201200749086007498E
:10429000C1F8B40100200449083108600120034935
:1042A000C1F8BC0170470000B0812142008021426A
:1042B0000120064908600649C1F8B40103490831E4
:1042C000086000200249C1F8BC017047B08121425A
:1042D00000802142704700002DE9F04786B000249D
:1042E000A246002004900590FF20039000254FF483
:1042F0007A765C2179A0FCF7A5F928B15C2177A03A
:10430000FCF7A0F9401C00E074A0074675A37A4AA8
:10431000AD2100F05DFBC9E003A8FEF78FF99DF821
:104320000C000A2802D106B0BDE8F0879DF90C0008
:10433000401C002830D09DF80C00303004A94855AE
:104340005C2166A0FCF77EF928B15C2163A0FCF734
:1043500079F9401C00E061A0074604A8405D67A30E
:10436000654AB8210090384600F032FB6D1C5C2194
:104370005AA0FCF767F928B15C2158A0FCF762F954
:10438000401C00E055A007465FA35B4ABA21009598
:1043900000F01EFBFF200390062D7AD100246BE075
:1043A00004EB440101EBC4015A4A8818FCF755F9A3
:1043B000002860D104EB440101EBC401554A881880
:1043C00004AB55A20721FBF7F7FF04EB440101EB17
:1043D000C401504A8818FCF740F9074604A8FCF7C6
:1043E0003CF980465C213DA0FCF72CF928B15C210A
:1043F0003AA0FCF727F9401C00E038A0814647A30B
:104400003D4AC421CDE9008700F0E2FA5C2133A0E7
:10441000FCF718F928B15C2130A0FCF713F9401C17
:1044200000E02EA0074604A842A3334AC52100900D
:10443000384600F0CDFA5C2128A0FCF703F928B13A
:104440005C2126A0FCF7FEF8401C00E023A00746F4
:1044500004EB440000EBC4002E49084435A3264A6F
:10446000C6210090384600F0B3FA37222949364871
:10447000FFF72AF857E7641C052C91DB5C2117A095
:10448000FCF7E0F830B15C2114A0FCF7DBF8401C2D
:1044900001E007E011A007462CA3174ACB2100F04A
:1044A00097FA40E70A2001F097FF761E002E3FF7AB
:1044B00033AF8EB95C2109A0FCF7C4F828B15C21A8
:1044C00006A0FCF7BFF8401C00E004A0074623A3A9
:1044D000094AD32100F07CFA00BF24E76D61696EC0
:1044E0002E630000616464206B65792070617373D2
:1044F000776F7264000000008977000876616C7540
:104500006520256300000000636F756E74202564CC
:1045100000000000A40100202573000073657420D2
:104520006B6579207375636365737320256420253B
:1045300064000000736574206B6579207375636394
:10454000657373202573000000F000086B65792007
:10455000627566206E756C6C0000000074696D6594
:10456000206F757400000000F8B504460E2C52D27E
:10457000DFE804F051434445464748494A4B51510E
:104580004E07FFF7DBFD00F081FB322001F024FF36
:10459000002000F087FB5C2120A0FCF753F828B135
:1045A0005C211EA0FCF74EF8401C00E01BA0054655
:1045B0001C4800781CA3234A4FF4B0710090284691
:1045C00000F006FA00F05CFB05465C2113A0FCF746
:1045D00039F828B15C2111A0FCF734F8401C00E048
:1045E0000EA0064618A3174A40F26111009500F08C
:1045F000EFF9322001F0F0FE0DE000BF00BF00BF78
:1046000000BF00BF00BF00BF00BF00F08DF802E098
:1046100001F0C2FC00BF00BFF8BD00006D61696E13
:104620002E63000096010020B0B4BCFCC5E4CDF8B8
:1046300020534D4152545F434F4E46494720256415
:104640000D0A0000C7770008253032780A00000004
:1046500086B0FF2005905C2127A0FBF7F3FF28B16F
:104660005C2125A0FBF7EEFF401C00E022A00446E1
:1046700023A3274A40F27D1100F0AAF93AE005A8E9
:10468000FDF7DCFF9DF91400401C002829D01421FF
:104690006846FCF74EF89DF914301EA214216846B6
:1046A000FBF78AFE5C2114A0FBF7CCFF28B15C214C
:1046B00011A0FBF7C7FF401C00E00FA004466B46AB
:1046C000134A4FF4C37100F083F910236A460021A6
:1046D0000846FEF741FB9DF9140064214843114947
:1046E00008609DF91400FFF73FFFFF2005900A20A6
:1046F00001F072FEC3E700006D61696E2E63000079
:104700006B6579207461736B20737461727400003F
:10471000D37700086B6579206973202564202020F9
:1047200020000000100000202DE9FF410024A046D9
:10473000002002900390FF20019000254FF47A762C
:104740005C2162A0FBF77EFF28B15C215FA0FBF734
:1047500079FF401C00E05DA007465EA3624A4FF46B
:10476000977100F035F997E001A8FDF767FF9DF913
:104770000400401C002832D09DF80400303002A90B
:1047800048555C2151A0FBF75DFF28B15C214FA08B
:10479000FBF758FF401C00E04CA0074602A8405D14
:1047A00052A3514A40F235110090384600F010F9FA
:1047B0005C2146A0FBF746FF28B15C2143A0FBF734
:1047C00041FF401C00E041A007464BA3464A4FF47E
:1047D0009B71009500F0FCF86D1CFF200190062DE8
:1047E00056D100243BE004EB440101EBC401454AEF
:1047F0008818FBF732FF002830D004EB440101EBAE
:10480000C401404A881802A9FBF7BAFF30BB5C21FB
:104810002EA0FBF717FF28B15C212CA0FBF712FF9D
:10482000401C00E029A0074604EB440000EBC40054
:104830003449084434A32C4A4FF4A17100903846FF
:1048400000F0C6F8012034490860C82001F0C4FD1A
:1048500000203249C1F88001BDE8FF81641C052CAD
:10486000C1DB5C2119A0FBF7EDFE28B15C2117A08C
:10487000FBF7E8FE401C00E014A0074602A828A3AE
:10488000194A4FF4A5710090384600F0A1F8E3E70B
:104890000A2001F0A1FD761E002E3FF765AF96B904
:1048A0005C210AA0FBF7CEFE28B15C2107A0FBF734
:1048B000C9FE401C00E005A007461DA30A4A4FF4AC
:1048C000A97100F085F800BFC6E700006D61696E50
:1048D0002E6300006F70656E206B657920706173C8
:1048E00073776F7264000000AE77000876616C75B4
:1048F0006520256300000000636F756E74202564D9
:1049000000000000A40100206F70656E20737563C5
:1049100063657373202573008081214200802142EA
:104920006F70656E206661696C6564202573000098
:1049300074696D65206F75740000000000245C21AF
:1049400017A0FBF77FFE28B15C2115A0FBF77AFECC
:10495000401C00E012A0054613A3184A882100F06D
:1049600037F81CE0601CC4B20A2C08DB144800684D
:10497000C0431449C1F8B401FDF712FE0024FDF74D
:1049800069FC48B9012010490860C82001F024FDE5
:1049900000200E49C1F88001322001F01DFDE1E741
:1049A0006D61696E2E6300006C6564207461736BC9
:1049B0002073746172740D0A00000000757700089E
:1049C000B401224200002242808121420080214223
:1049D0000FB4F0B5C3B004460D4616464FF48071CF
:1049E00002A8FBF7A6FE4CA8429002A8429A4B9957
:1049F000FBF7AEFC07460D4880780C494978CDE9B5
:104A000000100A480378C279817909A0FBF7B2FC4B
:104A100002A833462A46214600900AA0FBF7AAFCCA
:104A20000020429043B0F0BC5DF814FBF001002080
:104A30005B25642F25642D25643A25643A25645D41
:104A4000000000005B25735D5B25645D5B25735D85
:104A50003A25730D0A0000001CB54FF44070FEF7B4
:104A60001FF8FFF7E7F94FF4E13001F0B7F9FDF770
:104A70005FFFFDF789FFFEF777F8FEF71BF8FFF7FA
:104A800041FB4FF4E13001F033FA01F0F3FE27E08F
:104A90005C212CA0FBF7D6FD28B15C2129A0FBF7F7
:104AA000D1FD401C00E027A0044628A32B4A562134
:104AB000FFF78EFF4FF44870FFF7EAF95C2121A061
:104AC000FBF7C0FD28B15C211EA0FBF7BBFD401C1D
:104AD00000E01CA0044622A3204A5821FFF778FFDB
:104AE000FEF7CEFB0028D3D1FDF774FB40F25371E3
:104AF0000420FDF759FD5C2112A0FBF7A3FD28B1AE
:104B00005C2110A0FBF79EFD401C00E00DA00446B8
:104B100017A3124A5C21FFF75BFF002018490860C9
:104B20001849C1F880011848012100234FF4906210
:104B3000CDE9001015A1184802F00EFB01F0E8FDC8
:104B400000201CBD6D61696E2E630000525443202D
:104B50004552524F5221202020000000707700085B
:104B600052544320547279696E672E2E2E00000035
:104B7000696E697420737563636573730A0000005E
:104B8000B40122420080214200000020737461724F
:104B9000745F7461736B00008D5C000870B504462F
:104BA0000D46002615480078012800D170BD214629
:104BB000304601F063F806460121304601F05EF808
:104BC00006460021304601F059F8064601213046DC
:104BD00001F054F806462DB90021304601F04EF898
:104BE000064604E00121304601F048F80646314609
:104BF000052001F0E5FE0120D8E700009401002027
:104C00002DE9F041064688461446002718480078EA
:104C1000012801D1BDE8F0813146384601F02EF877
:104C200007460021384601F029F807462546E017D7
:104C300004EB1060C0F30721384601F01FF8074667
:104C4000E01704EB10600012A4EB0020C1B238465C
:104C500001F014F8074622464146384600F0FAFFB4
:104C600007463946052001F0ABFE0120D2E70000DF
:104C700094010020034601207047024610787047D7
:104C800001480078704700009701002010B500200F
:104C9000034908700021032001F092FE10BD0000BE
:104CA0009501002070B504460025002005490870D4
:104CB0002146284600F0E2FFC5B22946042001F053
:104CC0007FFE70BD96010020052809D2DFE800F0C4
:104CD00003040506070004E003E002E001E000E051
:104CE00000BF00BF70477047F0B505ACF0CCF0BD19
:104CF0002DE9FF4704460026277894F8019094F8A0
:104D000002800025012F1DD100BF18E008F10F001F
:104D10007043C5B26119123160190C306219921DCD
:104D2000CDE90218CDE90020681D235C281D225C16
:104D3000E81C215C3846FFF7D7FF701CC6B24E4511
:104D4000E4DB0AE000200090019002900346024656
:104D5000014603903846FFF7C7FFBDE8FF87F0B56F
:104D600005460E4613462A46344605B10EB90020C4
:104D7000F0BDA24202D9E018904208D2002103E01F
:104D8000605C5054481C81B29942F9DB07E0194637
:104D900003E0481E275C175481B20029F9DC28463D
:104DA000E6E70146002209B900207047002200E032
:104DB000521C11F8013B002BFAD11046F5E730B137
:104DC000012805D0022804D0032804D102E003E022
:104DD00002E001E000E000BF00BF70473EB50024E4
:104DE00000200090019002902FA0FFF7DAFF85B21B
:104DF0002A462DA1204600F02DFFC4B22CA0FFF7BB
:104E0000D0FF85B22A462AA1204600F023FFC4B273
:104E10002CA0FFF7C6FF85B22A462AA1204600F043
:104E200019FFC4B229A0FFF7BCFF85B22A4627A10B
:104E3000204600F00FFFC4B226A0FFF7B2FF85B2F4
:104E40002A4624A1204600F005FFC4B2002222A178
:104E50006846FBF79BFA6846FFF7A3FF85B22A4630
:104E60006946204600F0F6FEC4B21D4802781DA136
:104E70006846FBF78BFA6846FFF793FF85B22A4630
:104E80006946204600F0E6FEC4B219A0FFF789FF8C
:104E900085B22A4616A1204600F0DCFEC4B22146A7
:104EA000012001F08DFD3EBD7B2270223A220000E0
:104EB000656B6C7064666C616965756F636E753186
:104EC00000000000222C2276223A2200312E302EC1
:104ED00030000000220000002C226E223A256400DF
:104EE000980100202C22636170223A2564000000A2
:104EF0007D0000002DE9F04105460E461C4807687C
:104F00001C480068001D01F0A9F850B91948006854
:104F100090F82C10012088401749096881431648F1
:104F20000160681C38B936B112480168091D134880
:104F300001F0D2F81AE07C190E4800684460BC42C7
:104F400007D20C480168091D0D48006801F0AAF855
:104F50000CE008480168091D0A48006801F0A2F841
:104F600009480068844201D207480460BDE8F08126
:104F700028010020140100202C0100209C0E00209C
:104F80001C010020180100204401002010B5044637
:104F900001F0AEF824480068401C2349086023480B
:104FA000006840B9214804600846006801280DD116
:104FB00000F0EEF90AE01E48006838B91B480068A6
:104FC000C06AE16A884201D818480460194800683C
:104FD000401C1849086008460068606494F82C106A
:104FE0000120884014490968084313490860E16AB0
:104FF00001EB8101114A02EB8100211D01F06CF8E7
:1050000001F0BAF80A48006868B108480068C06A48
:10501000E16A884207D24FF0805009490860BFF327
:105020004F8FBFF36F8F10BD2401002014010020AB
:1050300030010020400100202C010020CC0B00207A
:1050400004ED00E010B501F053F810480068D0B945
:105050000F4801F017F80F4801F014F80C480E49FA
:1050600008600C480D49086000221021052001F05D
:1050700043FD064908600846006820B108A10348BE
:10508000006801F06DF901F077F810BD58010020BB
:10509000B00E0020C40E002050010020540100205A
:1050A000546D72510000000070B523E001F086FBE2
:1050B0001348006808B9012000E00020054602F00E
:1050C00007FABDB901F014F80D48C068C468201D86
:1050D00000F0C4FF0B480068401E0A4908600A48F7
:1050E0000068401E0849086001F046F8204600F0BC
:1050F00060F800BF044800680028D7D170BD0000E8
:10510000880E0020240100202001002070B50446F4
:105110000D46206C70B1216CE0680844E060616865
:10512000E068884201D32068E0602846226CE1688C
:10513000FBF7B2FA70BD2DE9F04104460F46154663
:105140004FF00008A66B206C40B9206860BB606817
:1051500002F0F8F880460020606025E07DB939460D
:10516000226CA068FBF798FA216CA0680844A06044
:10517000D4E90110884217D32068A06014E03946B2
:10518000226CE068FBF788FA216CE068401AE06066
:105190002168E068884203D2216C6068401AE060B0
:1051A000022D01D106B1761E701CA0634046BDE8F9
:1051B000F08110B50446206B01F016F8204601F08E
:1051C00013F810BD0146084A126812680AB9012294
:1051D00000E000220A600A6822B9034A1268D26815
:1051E000106800E0002070475001002030B54FF4F7
:1051F0002053174800F007042CB1C01D20F0070011
:10520000134C041B1B1B0246124C22600024114D40
:105210006C60D018083820F007000F4C2060002484
:105220000D4D2D686C600C4D2D682C601146441A94
:105230004C60094C24680C60084D4C682C60084D8B
:105240004C682C604FF00044064D2C6030BD0000CF
:10525000D80E00207001002078010020800100207D
:105260007C0100208401002000BFFFF71DFF0648DD
:1052700000680128F9D94FF0805004490860BFF355
:105280004F8FBFF36F8FF0E7CC0B002004ED00E0F1
:105290002DE9F04106460D4617469846069C0DB985
:1052A000246000E02760E66325640121204601F0C8
:1052B00041FD84F850800020A064BDE8F08100002A
:1052C0002DE9F05F82460F4690469B460A9E0C9C55
:1052D0004FEA8801A522206BFBF723FAA8F1010011
:1052E000216B01EB800929F0070909F0070008B9D3
:1052F000012000E0002028B940F22B321BA120A0A1
:10530000FBF738F8002507E0795D04F134004155DA
:10531000785D00B902E06D1C102DF5D300BF0021AF
:1053200043200155202E00D31F26E662E6640020AC
:105330002065201D00F0B3FE04F1180000F0AFFE60
:105340002461C6F12000A06164620020606584F8D9
:1053500058005A465146484600F000FC20600B9821
:1053600008B10B980460BDE8F09F00002E2E5C464B
:1053700072656552544F535C7461736B732E630096
:105380004572726F723A25732C25640D0A00000075
:1053900010B5002407E004EB84010F4A02EB810002
:1053A00000F070FE641C202CF5D30C4800F06AFE5F
:1053B0000B4800F067FE0B4800F064FE0A4800F05E
:1053C00061FE0A4800F05EFE04480949086004488E
:1053D0000849086010BD0000CC0B00204C0E0020D6
:1053E000600E0020740E0020880E00209C0E00200D
:1053F000180100201C01002010B50146164800E0ED
:10540000006803688B42FBD30246436813448B4217
:1054100004D143684C682344436001460A464B6804
:1054200013440468A34211D10C4C03682468A342BE
:1054300008D04B680468646823444B6003681B68A9
:105440000B6005E0054B1B680B6001E003680B6017
:10545000884200D0016010BD70010020780100205A
:105460002DE9F04104460D4616461F464FF0000850
:1054700065602461B5420CD8F01BA169884202D353
:105480004FF0010811E0211D0948006800F00AFEF4
:105490000BE0BE4204D2BD4202D34FF0010804E04B
:1054A000211D0448006800F0FDFD4046BDE8F08184
:1054B000540100205001002070B5054600F018FE90
:1054C000A86B08B9012400E0002400F055FE204636
:1054D00070BD70B5054600F00BFEA86BE96B884205
:1054E00001D1012400E0002400F046FE204670BDFA
:1054F0002DE9F3410D460098846C00272CB940F645
:10550000CE121AA11EA0FAF735FFA06BE16B8842FC
:1055100001D2012000E0002028B940F6CF1213A1EB
:1055200017A0FAF727FFA06BE16B88421BD294F912
:1055300045602A4669462046FFF7FDFD0746701C78
:1055400060B9606A08B9012000E0002050B904F198
:10555000240001F063FF28B1012703E0701C40B272
:1055600084F8450000BF3846BDE8FC812E2E5C461D
:1055700072656552544F535C71756575652E630095
:105580004572726F723A25732C25640D0A00000073
:10559000F8B505460F4613480068C068C468201D6A
:1055A00000F05CFDE069012818D1A06941192B4683
:1055B0003A462046FFF754FF80B1002003462A46B2
:1055C00001460090204602F04DF806462EB94FF4F1
:1055D000027205A10AA0FAF7CDFE00BF2046616A5B
:1055E0008847F8BD500100202E2E5C46726565523A
:1055F000544F535C74696D6572732E630000000034
:105600004572726F723A25732C25640D0A000000F2
:10561000F0B587B070E0039800280CDA04AE2EB91C
:1056200040F2E7223AA140A0FAF7A4FED6E9002012
:10563000B168904700BF039800285DDB059C606956
:1056400008B9012000E0002010B9201D00F006FD7F
:1056500002A800F0C7F8054603980A284AD2DFE8F6
:1056600000F00905072C2E4506082D2F00BF00BFAE
:1056700000BF00BF0498A269811803462A4620464D
:10568000FFF7EEFEC0B12046616A8847E069012855
:1056900012D1002000900498A169421800231946F5
:1056A000204601F0DFFF07462FB940F2213218A152
:1056B0001DA0FAF75FFE00BF1DE000BF1BE000BFAA
:1056C0000498A061A06908B1012000E0002028B979
:1056D0004FF44E720EA114A0FAF74CFEA0694119C6
:1056E0002B462A462046FFF7BBFE04E0204600F08A
:1056F0007BFD00E000BF00BF00231A4603A90E484F
:10570000006801F033FA002885D107B0F0BD000031
:105710002E2E5C4672656552544F535C74696D65FC
:1057200072732E63000000004572726F723A257327
:105730002C25640D0A00000058010020F8B505462C
:105740000C4601F03BF8684600F04CF8064600981D
:1057500020BB44B9B54206D801F0BAFE314628460E
:10576000FFF716FF1CE03CB10E480068006808B95E
:10577000012000E000200446A91B22460A480068D8
:1057800000F004FE01F0A4FE50B94FF0805007492C
:105790000860BFF34F8FBFF36F8F01E001F098FEF9
:1057A000F8BD0000540100205801002004ED00E085
:1057B0000A490968096809B9012100E0002121B1FD
:1057C0004FF0FF31064A116006E004490968C968D4
:1057D000C868034A41681160704700001801002042
:1057E0004401002070B5044601F0F6FC0546074868
:1057F0000068854204D200F00BF80120206001E02F
:105800000020206001480560284670BD600100202E
:105810002DE9F8432DE021480068C06805681F485D
:105820000068C068C468201D00F018FC2046616A4A
:105830008847E06901281CD1A0694619AE4207D902
:1058400066602461211D1548006800F02BFC10E003
:10585000002003462A4601460090204601F002FF40
:1058600007462FB940F292320DA113A0FAF782FD3C
:1058700000BF0A480068006808B9012000E0002065
:105880000028C8D00548D0F800800F4800680349B8
:1058900008600D48C0F80080BDE8F8835001002082
:1058A0002E2E5C4672656552544F535C74696D656B
:1058B00072732E63000000004572726F723A257396
:1058C0002C25640D0A000000540100200B480068DC
:1058D000401C08B9012000E0002020B9F42208A1F2
:1058E00012A0FAF747FD00BF502080F31188BFF3E4
:1058F0004F8FBFF36F8F00BF00BFFEE76401002032
:105900002E2E5C4672656552544F535C706F7274F4
:1059100061626C655C525644535C41524D5F434D2D
:10592000335C706F72742E63000000004572726FFA
:10593000723A25732C25640D0A00000008B500BFDB
:105940006846FFF73FFC044620460099FFF7F6FE45
:10595000FFF75EFEF4E770B5044600F0C9FB94F96A
:1059600045501AE0A06C38B100212046FFF7C0FD79
:1059700088B100F0F1FD0EE0606A08B9012000E096
:10598000002038B904F1240001F048FD18B100F0FE
:10599000E3FD00E003E0681E45B2002DE2DC00BF3D
:1059A000FF2084F8450000F0E7FB00F0A1FB94F92C
:1059B000445010E0206908B9012000E0002048B9F7
:1059C00004F1100001F02AFD08B100F0C5FD681EC9
:1059D00045B200E001E0002DECDC00BFFF2084F8C0
:1059E000440000F0C9FB70BD2DE9F04104464FF0C2
:1059F000000800F0E3FE3E48006808B9FFF7F6FB38
:105A00003C480068204000285FD1A4B1083404F06D
:105A1000070080B104F00700C0F10800044404F05E
:105A2000070008B9012000E0002020B9BF2232A100
:105A30003BA0FAF79FFC002C47D03D480068844209
:105A400043D83C4E3046056801E02E462D68686814
:105A5000A04202D228680028F7D125480068854274
:105A600033D0306800F10808286830606868001B8F
:105A7000102813D92F1907F0070008B9012000E0FA
:105A8000002020B9EC221CA125A0FAF773FC68685D
:105A9000001B78606C603846FFF7AEFC24496868EC
:105AA0000968081A224908600846006822490968FE
:105AB000884203D21E4800681F4908600D49686883
:105AC0000968084368600020286001F001FD08F0C3
:105AD000070008B9012000E0002028B94FF49672B1
